:1000000080314A28053008007E1480310B1F0928F2
:100010000A2848282100111E0E280F281B2820001E
:10002000111E132814281B28210066088A00650861
:100030000A00803148282100911E1F2820282C28E2
:100040002000911E242825282C28220048088A00F8
:1000500047080A00803148282100921D30283128A5
:100060003D282000921D352836283D2821006808AB
:100070008A0067080A00803148282100911D412824
:10008000422848282000911D46284728482836281D
:100090007E10090080314C282100AC31F3248031DE
:1000A000EE00D6308400AD308500DD3086000130B2
:1000B00087000A30A0310020803121308400A43034
:1000C000850020308600023087003230A0310020C9
:1000D0008031FD012000EA01EB01EC01DF308400FA
:1000E000003085000F30AD317A2580312200C50106
:1000F000C601C701C801A0308400013085003D3031
:10010000AD317A258031CB3084000230850020303B
:10011000AD317A2580317E10200092314A2A2100AB
:10012000B400B52BB730AD00B030AE00AF315927B9
:100130008031402CCC30AD00B230AE00AF31592709
:1001400080312A302000B800B630B900BA30BA0089
:10015000B230BB006E30BC00A830BD006E30BE00B7
:10016000A830BF00AF31E7278031402C6530AD00AB
:10017000B330AE00AF3159278031402CDD30AD00B7
:10018000B230AE00AF31592780313A302000B8008C
:10019000B630B9001A30BA00B430BB006E30BC00C3
:1001A000A830BD006E30BE00A830BF00AF31E727D9
:1001B0008031402C6530AD00B330AE00AF315927EF
:1001C0008031402CEE30AD00B230AE00AF31592757
:1001D000803142302000B800B630B9003830BA0063
:1001E000B430BB006E30BC00A830BD006E30BE0025
:1001F000A830BF00AF31E7278031402C6530AD001B
:10020000B330AE00AF3159278031402CFF30AD0004
:10021000B230AE00AF31592780314A302000B800EB
:10022000B630B9002930BA00B430BB006E30BC0023
:10023000A830BD006E30BE00A830BF00AF31E72748
:100240008031402C6530AD00B330AE00AF3159275E
:100250008031402C1030AD00B330AE00AF315927A3
:10026000803152302000B800B630B900BE30BA003C
:10027000B530BB006E30BC00A830BD006E30BE0093
:10028000A830BF00AF31E7278031402C6530AD008A
:10029000B330AE00AF3159278031402C2130AD0052
:1002A000B330AE00AF31592780315A302000B8004A
:1002B000B630B9005D30BA00B130BB006E30BC0062
:1002C000A830BD006E30BE00A830BF00AF31E727B8
:1002D0008031402C6530AD00B330AE00AF315927CE
:1002E0008031402C3230AD00B330AE00AF315927F1
:1002F000803162302000B800B630B9007130BA00E9
:10030000B130BB006E30BC00A830BD006E30BE0006
:10031000A830BF00AF31E7278031402C6530AD00F9
:10032000B330AE00AF3159278031402C4330AD009F
:10033000B330AE00AF31592780316A302000B800A9
:10034000B630B900CB30BA00B330BB009830BC0037
:10035000B330BD006E30BE00A830BF00AF31E7271C
:100360008031402C6530AD00B330AE00AF3159273D
:100370008031402C5430AD00B330AE00AF3159273E
:100380008031C9302000B800B530B900CB30BA0098
:10039000B330BB00DC30BC00B330BD006E30BE00FB
:1003A000A830BF00AF31E7278031402C6530AD0069
:1003B000B330AE00AF3159278031402CBE30AD0094
:1003C000B130AE00AF3159278031D2302000B800B3
:1003D000B530B900A730BA00B530BB006E30BC00F4
:1003E000A830BD006E30BE00A830BF00AF31E72797
:1003F0008031402C6530AD00B330AE00AF315927AD
:100400008031402CD030AD00B130AE00AF31592733
:100410008031D2302000B800B530B9006E30BA005B
:10042000A830BB006E30BC00A830BD006E30BE00EE
:10043000A830BF00AF31E7278031402C6530AD00D8
:10044000B330AE00AF3159278031402CE230AD00DF
:10045000B130AE00AF3159278031E4302000B80010
:10046000B530B900EC30BA00B330BB009F30BC00EF
:10047000B430BD00A930BE00B330BF00AF31E727B4
:10048000803121003008860031088700013081006A
:10049000402C6530AD00B330AE00AF31592780310C
:1004A000402CF430AD00B130AE00AF31592780316F
:1004B000210030088600310887008101ED302000DE
:1004C000B800B530B900DB30BA00B530BB006E30D3
:1004D000BC00A830BD006E30BE00A830BF00AF31F8
:1004E000E7278031402C6530AD00B330AE00AF312E
:1004F00059278031402C0630AD00B230AE00AF310C
:1005000059278031F6302000B800B530B9002230CC
:10051000BA00B530BB006E30BC00A830BD006E30F4
:10052000BE00A830BF00AF31E7278031402C6530D6
:10053000AD00B330AE00AF3159278031402C1830B8
:10054000AD00B230AE00AF3159278031FF3020000E
:10055000B800B530B9002230BA00B630BB006E30FA
:10056000BC00A830BD006E30BE00A830BF00AF3167
:10057000E7278031402C6530AD00B330AE00AF319D
:1005800059278031402C2A30AD00B230AE00AF3157
:100590005927803108302000B800B630B900323019
:1005A000BA00B630BB006E30BC00A830BD006E3063
:1005B000BE00A830BF00AF31E7278031402C653046
:1005C000AD00B330AE00AF3159278031402C3C3004
:1005D000AD00B230AE00AF3159278031113020006C
:1005E000B800B630B9005630BA00B430BB00B330F2
:1005F000BC00B530BD00A930BE00B330BF00AF3184
:10060000E7278031412A6530AD00B330AE00AF310D
:1006100059278031402C4E30AD00B230AE00AF31A2
:100620005927803121003008860031088700810178
:100630002F302000B800B530B9008D30BA00B2308C
:10064000BB009130BC00B430BD002030BE00B130E2
:10065000BF00AF31E7278031402C6530AD00B330AB
:10066000AE00AF3159278031402C5E30AD00B03044
:10067000AE00AF3159278031AB302000B800B13027
:10068000B9004730BA00B430BB00A830BC00B2306B
:10069000BD006530BE00B430BF00AF31E727803108
:1006A000402C7630AD00B330AE00AF3159278031E9
:1006B000402C8730AD00B330AE00AF3159278031C8
:1006C000402C7530AD00B030AE00AF3159278031CD
:1006D000AB302000B800B130B9004730BA00B430B8
:1006E000BB00A830BC00B230BD006530BE00B430E5
:1006F000BF00AF31E7278031402C4930AD00B13029
:10070000AE00AF3159278031AB302000B800B13096
:10071000B9004730BA00B430BB009A30BC00B230E8
:10072000BD006530BE00B430BF00AF31E727803177
:10073000402C4F30AD00A930AE00AF315927803189
:10074000AB302000B800B130B9004730BA00B43047
:10075000BB009630BC00B230BD006530BE00B43086
:10076000BF00AF31E7278031402C3408B200B3011D
:100770003308003A0319BD2B402C32082A3A0319DA
:10078000992B173A03197D2B7C3A03199A28033ABF
:100790000319BE28013A0319E228073A031906296A
:1007A000013A03192A29033A03194E29013A031978
:1007B00072290F3A03199629013A0319BA29033A03
:1007C0000319DE29013A0319022A073A0319262AD6
:1007D000013A0319512A033A03197B2A013A0319F2
:1007E0009F2A1F3A0319C32A013A0319E72A033A39
:1007F00003190B2B013A0319352B323A0319B6288A
:10080000033A0319DA28013A0319FE28073A0319B3
:100810002229013A03194629033A03196A29013AA0
:1008200003198E290F3A0319B229013A0319D6295F
:10083000033A0319FA29013A03191E2A073A031940
:10084000492A013A0319732A033A0319972A013AEC
:100850000319BB2A1F3A0319DF2A013A0319032B94
:10086000033A03192D2B073A0319512B033A0319A5
:10087000592B013A0319612B0D3A03199228402C88
:1008800008002100C400C301A92F20000F19492C22
:100890004A2C652CE9302100AD00A830AE00AF3104
:1008A000592784312100C301C30A4408860002305D
:1008B00087008101360886000230870081013508F3
:1008C0008600023087008101810A20006A0803192E
:1008D0006A2C6B2C832FA331C22384312100B900F1
:1008E0003908BB00522F0100AD302100AD00B430FB
:1008F000AE00AF3159278431210044088600023010
:1009000087008101810A3508860002308700810155
:10091000810A3608860002308700810102302100FA
:10092000BA000430B900BA30890B942CB90B942C5E
:10093000BA0B942C00002100C301C30A832FCF30CF
:10094000AD00A830AE00AF3159278431AB30200064
:10095000AE00B130AF006E30B000A830B100E13071
:10096000B200B030B3006E30B400A830B500A6318C
:10097000532684312100440886000230870081011B
:10098000810A02302100BA000430B900BA30890B64
:10099000C72CB90BC72CBA0BC72C00002100C30110
:1009A000C30A3508860002308700810122008C13BB
:1009B000832FB330AD00A830AE00AF31592784315A
:1009C000AB302000AE00B130AF006E30B000A830C8
:1009D000B1009A30B200B230B3006E30B400A8302B
:1009E000B500A63153268431210044088600023028
:1009F00087008101810A3508860002308700810165
:100A00003608860002308700810102302100BA00DA
:100A10000430B900BA30890B0B2DB90B0B2DBA0B72
:100A20000B2D00002100C301C30A22008C17832F65
:100A30004A30AD00A830AE00AF3159278431AB3019
:100A40002000AE00B130AF006E30B000A830B10071
:100A50009630B200B230B3006E30B400A830B500AA
:100A6000A6315326843121004408860002308700D5
:100A70008101810A02302100BA000430B900BA3085
:100A8000890B402DB90B402DBA0B402D00002100E1
:100A9000C301C30A350886000230870081012200A5
:100AA0008C13832F3630AD00A930AE00AF315927FB
:100AB0008431AB302000AE00B130AF006E30B000FA
:100AC000A830B1000F30B200B430B3006E30B400C3
:100AD000A830B500A6315326843121004408860091
:100AE000023087008101810A3508860002308700C4
:100AF000810136088600023087008101810A0230B8
:100B00002100BA000430B900BA30890B852DB90B29
:100B1000852DBA0B852D00002100C301C30A2200D8
:100B20008C17832F0030AD00B030AE00AF315927A5
:100B30008431AB302000AE00B130AF006E30B00079
:100B4000A830B1000B30B200B430B3006E30B40046
:100B5000A830B500A6315326843121004408860010
:100B6000023087008101810A350886000230870043
:100B7000810136088600023087008101810A023037
:100B80002100BA000430B900BA30890BC52DB90B69
:100B9000C52DBA0BC52D00002100C301C30A2200D8
:100BA0008C13832FAD31632584312100B9003908BE
:100BB000BC0061303C06031DDE2DDF2D222E983057
:100BC000AD00B130AE00AF31592784312100440867
:100BD0008600023087008101810A350886000230D4
:100BE0008700810137088600023087008101810A71
:100BF0003608860002308700810102302100BA00E9
:100C00000430B900BA30890B032EB90B032EBA0B8E
:100C1000032E00002100C301C30A1A302000B800CF
:100C2000B630B900BA30BA00B330BB006E30BC0089
:100C3000A830BD006E30BE00A830BF00AF31E7273E
:100C40008431832F1D30AD00A930AE00AF3159275C
:100C500084319B2CAD31592584312100B9003908EC
:100C6000BD0075303D06031D362E372E512E303017
:100C7000AD00B030AE00AF315927843121004408B7
:100C80008600023087008101810A35088600023023
:100C90008700810137088600023087008101810AC0
:100CA000892C1D30AD00A930AE00AF3159278431F9
:100CB0009B2CAD31542584312100B9003908BE0088
:100CC00076303E06031D652E662E6E2E4730AD0033
:100CD000B030AE00AF31592784313E2E1D30AD000B
:100CE000A930AE00AF31592784319B2CAD314F254F
:100CF00084312100B9003908BF0077303F06031D59
:100D0000822E832E9C2E1830AD00B030AE00AF3155
:100D10005927843121004408860002308700810170
:100D2000810A350886000230870081013708860075
:100D3000023087008101892C1D30AD00A930AE0042
:100D4000AF31592784319B2CAD315E258431210090
:100D5000B9003908C0003D304006031DB02EB12E49
:100D6000F32E8C30AD00B030AE00AF315927843156
:100D7000210044088600023087008101810A35087D
:100D80008600023087008101370886000230870024
:100D9000810136088600023087008101023021007F
:100DA000BA000430B900BA30890BD42EB90BD42E56
:100DB000BA0BD42E00002100C301C30AAB302000BF
:100DC000B800B130B9009A30BA00B230BB006E3012
:100DD000BC00A830BD006E30BE00A830BF00AF31EF
:100DE000E7278431832F1D30AD00A930AE00AF312D
:100DF000592784319B2CAD314A2584312100B9001B
:100E00003908C1002A304106031D072F082F4A2F39
:100E10006F30AD00A830AE00AF31592784312100CA
:100E200044088600023087008101810A3508860067
:100E30000230870081013708860002308700810177
:100E40003608860002308700810102302100BA0096
:100E50000430B900BA30890B2B2FB90B2B2FBA0BEA
:100E60002B2F00002100C301C30AAB302000B800C3
:100E7000B130B9009630BA00B230BB006E30BC0061
:100E8000A830BD006E30BE00A830BF00AF31E727EC
:100E90008431832F1D30AD00A930AE00AF3159270A
:100EA00084319B2C3B08B900BA013A08003A031977
:100EB0005A2F832F39082A3A0319FB2E1A3A03199D
:100EC000732C013A0319742C043A0319922D033A36
:100ED00003199F2C013A0319D92C0F3A0319522DEB
:100EE000013A0319182D043A0319A42E5C3A031988
:100EF000D22D143A03192A2E033A0319592E013A16
:100F00000319762E832F21003708860002308700D0
:100F1000010803198C2F8D2FA92F3F30A5317D2576
:100F200084312100B9003908C2003808B00002300D
:100F3000B100420880318F20843105302100BA0091
:100F40000F30B900F130890BA32FB90BA32FBA0BC7
:100F5000A32F210043080319AE2FAF2F452C080003
:100F6000210034088600350887000108031DB92FC9
:100F7000BA2FC12FA230AD00B030AE00AF3159272B
:100F8000873121003008860031088700810132084E
:100F90008600330887008101340886003508870001
:100FA0008101360886003708870001308100003053
:100FB000AE31292687310030AE31362687310030F8
:100FC000AE31432687310030AE311C2687310030E8
:100FD000AE31502687310030AE315D26873100308A
:100FE000AE316A2687310030AE3177268731220054
:100FF0008C138D1208003F30A5317D258731080004
:101000002000A5002508A3310923883108006A3093
:101010002000B800B630B900CB30BA00B330BB0006
:101020009830BC00B330BD006E30BE00A830BF00A9
:10103000A031062088310130AE315026883106308B
:101040002200C2001330C100AD30890B2528C10B2E
:101050002528C20B252800320030AE3150268831B9
:101060000B302200C2002630C1005D30890B3628CB
:10107000C10B3628C20B362800320C30A1311E219C
:101080008831200024082500C20020002308250004
:10109000C10072302100AD00B630AE00250042081C
:1010A0002100B000250041082100AF00BA30A43172
:1010B000BF24883121002E082500B60021002D080C
:1010C0002500B5004208803A2200C1008330410269
:1010D000031D6D2820302500410203187028712857
:1010E0007C2822008C179B302100AD00B530AE006B
:1010F000AF3159278831B6286A302100B000B630A8
:10110000B100CA30B2000230B300C730B4000230C0
:10111000B50098316B2088316A302000AE00B630BF
:10112000AF00CB30B000B330B100BA30B200023003
:10113000B3006E30B400A830B500A6315326883114
:1011400022008C13C9302100B8000230B900CA3027
:10115000BA000230BB00C730BC000230BD00C8304E
:10116000BE000230BF00A7314D2788312930220050
:10117000C2009630C1007F30890BBC28C10BBC284F
:10118000C20BBC288731FB2788312200C1004108EF
:101190002500C40043082200C100C201410821000B
:1011A000B000220042082100B1002500440880312F
:1011B0008F208831AE31AE2688312200C10041082F
:1011C0002500C500CA302200C10041082100B0003E
:1011D000C8302200C20042082100B100C6302200FF
:1011E000C30043082100B200250045082200C400C6
:1011F00044082100B300C9309A316D22883125009E
:101200004A08031904290529C029C9302000B8005B
:10121000B530B900CB30BA00B330BB00DC30BC0015
:10122000B330BD006E30BE00A830BF00A031062034
:1012300088310130AE315026883106302200C2009C
:101240001330C100AD30890B2329C10B2329C20BF8
:10125000232900320030AE31502688310B30220075
:10126000C2002630C1005D30890B3429C10B3429FE
:10127000C20B342900320C30A1311E2188312000EC
:1012800024082500C200200023082500C100723078
:101290002100AD00B630AE00250042082100B000AC
:1012A000250041082100AF00BA30A431BF248831A5
:1012B00021002E082500B80021002D082500B700C8
:1012C0004208803A2200C10082304102031D6B298E
:1012D000BC302500410203186E296F297A292200AB
:1012E0008C13BA302100AD00B430AE00AF315927B5
:1012F0008831B429C9302100B000B530B100CA30FE
:10130000B2000230B300C730B4000230B5009831EB
:101310006B208831C9302000B800B530B900CB301F
:10132000BA00B330BB00BA30BC000230BD006E3032
:10133000BE00A830BF00A0310620883122008C17E3
:10134000C9302100B8000230B900CA30BA000230FA
:10135000BB00C730BC000230BD00C830BE00023048
:10136000BF00A7314D27883129302200C2009630B6
:10137000C1007F30890BBA29C10BBA29C20BBA2927
:101380008731FB2788312200C10041082500C400B5
:1013900043082200C100C20141082100B000220020
:1013A00042082100B1002500440880318F20883197
:1013B000AE31AE2688312200C10041082500C500AB
:1013C000CA302200C10041082100B000C83022000C
:1013D000C20042082100B100C6302200C300430809
:1013E0002100B200250045082200C4004408210065
:1013F000B300C9309A316D22883125004A0803199B
:10140000022A032ACF2AD2302000B800B530B90012
:10141000A730BA00B530BB006E30BC00A830BD00AC
:101420006E30BE00A830BF00A031062088310B30DE
:101430002200C2002630C1005D30890B1D2AC10B7D
:101440001D2AC20B1D2A00320130AE3150268831D0
:1014500006302200C2001330C100AD30890B2E2AA5
:10146000C10B2E2AC20B2E2A00320030AE3150267C
:1014700088313D302200C200E130C1003F30890B8D
:101480003F2AC10B3F2AC20B3F2A00320130AE3146
:101490005026883106302200C2001330C100AD3022
:1014A000890B502AC10B502AC20B502A003200303F
:1014B000AE315026883110302200C2003930C100D0
:1014C0000D30890B612AC10B612AC20B612A0032DF
:1014D0000130A13182218831003A0319702A712A22
:1014E0008C2A0130A131A5218831003A0319792ACB
:1014F0007A2A8C2A0030A131C8218831003A031998
:10150000822A832A8C2AC7302100AD00B430AE0075
:10151000AF3159278831BA2A2500CA010030AE31CF
:10152000502688310030AE315D268831D23021001E
:10153000B000B530B100CA30B2000230B300C730DD
:10154000B4000230B50098316B208831C9302100D9
:10155000B8000230B900CA30BA000230BB00C73050
:10156000BC000230BD00C830BE000230BF00A73151
:101570004D27883115302200C2004B30C100BE30EB
:10158000890BC02AC10BC02AC20BC02A0000003040
:10159000AE31502688310030AE315D26883187313A
:1015A000FB2788312200C10041082500C400430800
:1015B0002200C100C20141082100B00022004208FF
:1015C0002100B1002500440880318F208831AE31E0
:1015D000AE2688312200C10041082500C500CA306E
:1015E0002200C10041082100B000C8302200C20022
:1015F00042082100B100C6302200C3004308210088
:10160000B200250045082200C40044082100B300B0
:10161000C9309A316D22883125004A080319112BEF
:10162000122B802BE4302000B800B530B900EC302C
:10163000BA00B330BB009F30BC00B430BD00A9304D
:10164000BE00B330BF00A031062088310130AE317A
:101650005026883106302200C2001330C100AD3060
:10166000890B302BC10B302BC20B302B00320030DA
:10167000AE315026883103302100AD00A930AE00D4
:10168000AF315927883125004908903145208831EC
:101690002200C10041082500C7004708031D512B47
:1016A000522B782BCA01E4302100B000B530B100D4
:1016B000CA30B2000230B300C730B4000230B50007
:1016C00098316B208831C9302100B8000230B90050
:1016D000CA30BA000230BB00C730BC000230BD00C7
:1016E000C830BE000230BF00A7314D278831802BA3
:1016F000D4302100AD00B430AE00AF31592788316D
:101700008731FB2788312200C10041082500C40031
:1017100043082200C100C20141082100B00022009C
:1017200042082100B1002500440880318F20883113
:10173000AE31AE2688312200C10041082500C50027
:10174000CA302200C10041082100B000C830220088
:10175000C20042082100B100C6302200C300430885
:101760002100B200250045082200C40044082100E1
:10177000B300C9309A316D22883125004A08031917
:10178000C22BC32B432CED302000B800B530B9007C
:10179000DB30BA00B530BB006E30BC00A830BD00F5
:1017A0006E30BE00A830BF00A03106208831013065
:1017B000AE315D26883106302200C2001330C100F0
:1017C000AD30890BE12BC10BE12BC20BE12B0032B9
:1017D0000030AE315D2688310B302200C200263049
:1017E000C1005D30890BF22BC10BF22BC20BF22B27
:1017F00000320130A13182218831003A0319012CD5
:10180000022C1D2C0130A131A5218831003A031989
:101810000A2C0B2C1D2C0130A131C8218831003A33
:101820000319132C142C1D2CE1302100AD00B43011
:10183000AE00AF3159278831432C2500CA01ED3065
:101840002100B000B530B100CA30B2000230B300A0
:10185000C730B4000230B50098316B208831C930F0
:101860002100B8000230B900CA30BA000230BB0013
:10187000C730BC000230BD00C830BE000230BF001F
:10188000A7314D2788318731FB2788312200C100DD
:1018900041082500C40043082200C100C2014108DC
:1018A0002100B000220042082100B10025004408B8
:1018B00080318F208831AE31AE2688312200C100C0
:1018C00041082500C500CA302200C100410821009E
:1018D000B000C8302200C20042082100B100C6306A
:1018E0002200C30043082100B20025004508220061
:1018F000C40044082100B300C9309A316D228831F8
:1019000025004A080319852C862C062DF630200068
:10191000B800B530B9002230BA00B530BB006E3027
:10192000BC00A830BD006E30BE00A830BF00A031A2
:10193000062088310130AE318426883106302200FD
:10194000C2001330C100AD30890BA42CC10BA42CF4
:10195000C20BA42C00320030AE31842688310B300B
:101960002200C2002630C1005D30890BB52CC10BAE
:10197000B52CC20BB52C00320030A1318221883148
:10198000003A0319C42CC52CE02C0030A131A5214C
:101990008831003A0319CD2CCE2CE02C0030A13137
:1019A000C8218831003A0319D62CD72CE02CEE3010
:1019B0002100AD00B430AE00AF3159278831062D7B
:1019C0002500CA01F6302100B000B530B100CA30A0
:1019D000B2000230B300C730B4000230B500983115
:1019E0006B208831C9302100B8000230B900CA30FC
:1019F000BA000230BB00C730BC000230BD00C830A6
:101A0000BE000230BF00A7314D2788318731FB2748
:101A100088312200C10041082500C400430822008B
:101A2000C100C20141082100B0002200420821008B
:101A3000B1002500440880318F208831AE31AE26B8
:101A400088312200C10041082500C500CA302200AB
:101A5000C10041082100B000C8302200C200420885
:101A60002100B100C6302200C30043082100B200AB
:101A7000250045082200C40044082100B300C930F5
:101A80009A316D22883125004A080319482D492DC5
:101A9000C32DFF302000B800B530B9002230BA00A5
:101AA000B630BB006E30BC00A830BD006E30BE004A
:101AB000A830BF00A031062088310130AE316A263F
:101AC000883119302200C2005A30C100B130890B70
:101AD000672DC10B672DC20B672D00320030AE3170
:101AE0006A2688310B302200C2002630C1005D30EA
:101AF000890B782DC10B782DC20B782D0032013067
:101B0000A13182218831003A0319872D882DA32D18
:101B10000130A131A5218831003A0319902D912D72
:101B2000A32D0130A131C8218831003A0319992D24
:101B30009A2DA32DFB302100AD00B430AE00AF31A3
:101B400059278831C32DFF302100D700B530D80088
:101B5000CA302200C10041082100D900C73022004C
:101B6000C20042082100DA00C9302200C300430845
:101B70002100DB00C8302200C40044082100DC0042
:101B80009E31AE2688318731FB2788312200C10083
:101B900041082500C40043082200C100C2014108D9
:101BA0002100B000220042082100B10025004408B5
:101BB00080318F208831AE31AE2688312200C100BD
:101BC00041082500C500CA302200C100410821009B
:101BD000B000C8302200C20042082100B100C63067
:101BE0002200C30043082100B2002500450822005E
:101BF000C40044082100B300C9309A316D228831F5
:101C000025004A080319052E062E862E08302000CE
:101C1000B800B630B9003230BA00B630BB006E3012
:101C2000BC00A830BD006E30BE00A830BF00A0319F
:101C3000062088310130AE317726883119302200F4
:101C4000C2005A30C100B130890B242EC10B242EA2
:101C5000C20B242E00320030AE31772688310B3093
:101C60002200C2002630C1005D30890B352EC10B29
:101C7000352EC20B352E00320030A1318221883141
:101C8000003A0319442E452E602E0030A131A521C3
:101C90008831003A03194D2E4E2E602E0030A131AE
:101CA000C8218831003A0319562E572E602E08306D
:101CB0002100AD00B530AE00AF3159278831862EF6
:101CC0002500CA0108302100B000B630B100CA308A
:101CD000B2000230B300C730B4000230B500983112
:101CE0006B208831C9302100B8000230B900CA30F9
:101CF000BA000230BB00C730BC000230BD00C830A3
:101D0000BE000230BF00A7314D2788318731FB2745
:101D100088312200C10041082500C4004308220088
:101D2000C100C20141082100B00022004208210088
:101D3000B1002500440880318F208831AE31AE26B5
:101D400088312200C10041082500C500CA302200A8
:101D5000C10041082100B000C8302200C200420882
:101D60002100B100C6302200C30043082100B200A8
:101D7000250045082200C40044082100B300C930F2
:101D80009A316D22883125004A080319C82EC92EC0
:101D90006E2F11302000B800B630B9005630BA00AE
:101DA000B430BB000B30BC00B130BD006E30BE00A3
:101DB000A830BF00A03106208831A031E020883152
:101DC00003302200C2000830C1007730890BE62EB4
:101DD000C10BE62EC20BE62E02302000A30000301D
:101DE000A400A331F1238831AF313127883103308A
:101DF0002000A3000030A400A331F1238831AF31CB
:101E000031278831A030A431F724883103302200F3
:101E1000C2000830C1007730890B0C2FC10B0C2F8A
:101E2000C20B0C2F11302000B800B630B90056306C
:101E3000BA00B430BB00A030BC000230BD006E3030
:101E4000BE00A830BF00A03106208831A030A031EC
:101E50008A2088312200C10041082500C7004708B8
:101E6000031D332F342F662FCA0111302100B0001B
:101E7000B630B100CA30B2000230B300C730B4008F
:101E80000230B50098316B208831C9302100B8008C
:101E90000230B900CA30BA000230BB00C730BC0003
:101EA0000230BD00C830BE000230BF00A7314D2750
:101EB000883129302200C2009630C1007F30890B62
:101EC0005F2FC10B5F2FC20B5F2F6E2F15302100CC
:101ED000AD00B530AE00AF31592788318731FB27CF
:101EE00088312200C10041082500C40043082200B7
:101EF000C100C20141082100B000220042082100B7
:101F0000B1002500440880318F208831AE31AE26E3
:101F100088312200C10041082500C500CA302200D6
:101F2000C10041082100B000C8302200C2004208B0
:101F30002100B100C6302200C30043082100B200D6
:101F4000250045082200C40044082100B300C93020
:101F50009A316D22883125004A080319B02FB22F1B
:101F600092318B2A67302000B800B030B900A03021
:101F7000BA000230BB009130BC00B430BD0020304C
:101F8000BE00B130BF00A031062088310130AE3133
:101F9000292688310030AE311C268831A1313F21FD
:101FA0008831C9302100B0000230B100CA30B2001F
:101FB0000230B300983104208831CA302100B000CB
:101FC0000230B100C730B2000230B300C930B400F3
:101FD0000230B500C830B6000230B7008731B027F4
:101FE000883129302200C2009630C1007F30890B31
:101FF000F72FC10BF72FC20BF72FB02F80314A28D4
:10200000163021009700080020006C08BD3E8600B5
:1020100001308700810123001D1D0F2810281D2875
:1020200020006C08BD3E860001308700811422002C
:1020300046088A0045080A00903123009D1C21288B
:1020400022282F2820006C08BD3E86000130870022
:10205000011523005A088A0059080A00903120000F
:102060006C08BD3E8600013087000108031939283D
:102070003A284128230058088A0057080A0090315E
:102080004428A0313920903108002000A800A9017F
:10209000AA01280803194D284E28B128AB286A0840
:1020A000031953285428AB28A331C22390312000B0
:1020B000A5002508A7009528010002302000A600F1
:1020C0000430A500BA30890B6328A50B6328A60B42
:1020D000632800002000A901A90AAA01AA0AAB28C6
:1020E00002302000A6000430A500BA30890B762803
:1020F000A50B7628A60B762800002000A9016D28E4
:1021000002302000A6000430A500BA30890B8628D2
:10211000A50B8628A60B862800002000A901A90A85
:10212000AA01AA0A22008C13AB282708A500A60141
:102130002608003A03199D28AB282508303A0319D0
:102140005C28023A03195D28013A031970280A3AFB
:1021500003198028AB2820002A080319B028B128C9
:102160004F282808031DB528B628D828D2280130C2
:10217000A03154209031003A0319BF28C028C42848
:102180002000A901AA01AA0A0130A0316F209031D4
:10219000003A0319CC28CD28D2282000A901A90A89
:1021A000AA01AA0A20002A080319D728D828B72884
:1021B000290808002000CA003F08D3004008D400C6
:1021C0004108D5004208D6004308D7004408D8008B
:1021D0004508D9004608DA005330860000308700F1
:1021E000473FC700C71BF528F7280130F828003003
:1021F0002000C800C9014808D1004908D200510890
:1022000052040319042905292329D309D409D5091E
:10221000D609D709D809D909DA09D30A031D232910
:10222000D40A031D2329D50A031D2329D60A031D19
:102230002329D70A031D2329D80A031D2329D90AD4
:10224000031D2329DA0A2100E21B272928292C292A
:10225000FD30E305FF30E4056208803A2000C70046
:1022600080304702031D3729013021006102031825
:102270003A293B29412901302000CD000030CE0011
:102280004929210062082000CE00210061082000B9
:10229000CD00230056082000D00023005508200060
:1022A000CF0051085204031D562957295C292100EB
:1022B000631D5B295C296129FF302000CF07FF30B7
:1022C000D03D1F302000DB000030DC002500EA019B
:1022D000D229FF302000DB07FF30DC3D0A30A300AD
:1022E000A401A501A601A701A801A901AA015308FB
:1022F000AB005408AC005508AD005608AE005708B6
:10230000AF005808B0005908B1005A08B20099311E
:102310008021903120002408B7002308B600A031A6
:10232000A520903120003608303EC7005B08CB3E28
:1023300086000230870047088100FF30CD07FF305C
:10234000CE3DFF30CF07FF30D03D0A30A300A401BF
:10235000A501A601A701A801A901AA015308AB0084
:102360005408AC005508AD005608AE005708AF0041
:102370005808B0005908B1005A08B2009B316B23CD
:10238000903120002308D3002408D4002508D5006C
:102390002608D6002708D7002808D8002908D90021
:1023A0002A08DA0020005C08803AC7008030470223
:1023B000031DDC2901305B02031CDF29E0290D2A03
:1023C0002000530854045504560457045804590473
:1023D0005A04031DEC29ED2969294E08803AC700EB
:1023E00080304702031DF62901304D020318F929F8
:1023F000FA29692920005008803AC7008030470236
:10240000031D042A01304F02031C072A082A0D2A43
:102410002100E3180C2A0D2A6929200051085204D2
:10242000031D132A142A192A2100631D182A192AA8
:10243000362AFF302000DB07FF30DC3D5108520414
:10244000031D232A242A292A2B30CB000030CC005C
:102450002D2A2D30CB000030CC004B08C7005B0884
:10246000CB3E8600023087004708810020005B08D1
:10247000CB3EC7004708B6005008B8004F08B70069
:102480004A08A731A427903120003708C000360839
:10249000BF000800AE31CD2692318B170B172500F7
:1024A000CA01C701C901BF01C801C80AB901B90AF7
:1024B000C601C30115302200C2004B30C100BE303E
:1024C000890B602AC10B602AC20B602A0000200021
:1024D0008E1A6B2A6C2A722A2500B901AE319F260A
:1024E0009231752AAD31E025923120000E1C792AF7
:1024F0007A2A7E2A2500C001C00A802A2500C00150
:1025000020008E18842A852A892A2500BF01BF0A47
:102510008B2A2500BF01AB302000B800B130B900D4
:102520008330BA00B430BB00A830BC00B230BD006C
:102530006530BE00B430BF00A031062092310330B8
:102540002200C2000830C1007730890BA52AC10BD8
:10255000A52AC20BA52AAB302000B800B130B900C3
:102560004730BA00B430BB00A830BC00B230BD0068
:102570006530BE00B430BF00AF31E7279231033081
:102580002200C2000830C1007730890BC52AC10B78
:10259000C52AC20BC52A22008C138D12EB2ACA3021
:1025A0002200C10041082100B500C8302200C2004D
:1025B00042082100B600C6302200C30043082100B3
:1025C000B700C3302200C40044082100B800C9305D
:1025D00084314124923125004A080319F02AF12A56
:1025E000CF2A01302000A3000030A400A331F12342
:1025F000923103302200C2000830C1007730890BCD
:10260000FF2AC10BFF2AC20BFF2A2500C801A231F5
:10261000102292312500CA01CA0A0030AE312926A3
:1026200092310030AE31362692310130AE31432640
:10263000923103302200C2000830C1007730890B8C
:102640001F2BC10B1F2BC20B1F2BAB302000B80060
:10265000B130B9007430BA00B430BB00A830BC004F
:10266000B230BD006530BE00B430BF00AF31E727E7
:10267000923103302200C2000830C1007730890B4C
:102680003F2BC10B3F2BC20B3F2B1A302000B80051
:10269000B630B900BA30BA00B330BB006E30BC00FF
:1026A000A830BD006E30BE00A830BF00A0310620AB
:1026B00092310130AE31502692310130AE315D267B
:1026C000923115302200C2004B30C100BE30890B60
:1026D000672BC10B672BC20B672B00000130AE319B
:1026E0001C26923129302200C2009630C1007F3072
:1026F000890B782BC10B782BC20B782B0130A131C1
:1027000082219231003A0319862B872BA22B0130AC
:10271000A131A5219231003A03198F2B902BA22BC6
:102720000130A131C8219231003A0319982B992B1D
:10273000A22B3B302100AD00B530AE00AF315927A0
:102740009231D02B2500CA010030AE315026923193
:102750000030AE315D2692311A302100B000B63023
:10276000B100CA30B2000230B300C730B40002304A
:10277000B50098316B209231C9302100B800023089
:10278000B900CA30BA000230BB00C730BC0002300A
:10279000BD00C830BE000230BF00A7314D279231C6
:1027A0008731FB2792312200C10041082500C40077
:1027B00043082200C100C20141082100B0002200EC
:1027C00042082100B1002500440880318F20923159
:1027D000AE31AE2692312200C10041082500C5006D
:1027E000CA302200C10041082100B000C8302200D8
:1027F000C20042082100B100C6302200C3004308D5
:102800002100B200250045082200C4004408210030
:10281000B300C9309A316D22923115302200C200C6
:102820004B30C100BE30890B132CC10B132CC20BD3
:10283000132C00000030AE31502692310030AE3102
:102840005D26923125004A080319272C282C9B2C41
:102850002A302000B800B630B900BA30BA00B23021
:10286000BB006E30BC00A830BD006E30BE00A8308A
:10287000BF00A031062092310030AE315026923197
:102880000030AE315D2692310B302200C20026307E
:10289000C1005D30890B4A2CC10B4A2CC20B4A2C5B
:1028A00000320130A13182219231003A031D592CAE
:1028B0005A2C752C0130A131A5219231003A031D0B
:1028C000622C632C752C0130A131C8219231003A61
:1028D000031D6B2C6C2C752C47302100AD00B530DE
:1028E000AE00AF31592792319B2C2500CA012A3006
:1028F0002100B000B630B100CA30B2000230B300DF
:10290000C730B4000230B50098316B209231C93025
:102910002100B8000230B900CA30BA000230BB0052
:10292000C730BC000230BD00C830BE000230BF005E
:10293000A7314D2792318731FB2792312200C10008
:1029400041082500C40043082200C100C20141081B
:102950002100B000220042082100B10025004408F7
:1029600080318F209231AE31AE2692312200C100EB
:1029700041082500C500CA302200C10041082100DD
:10298000B000C8302200C20042082100B100C630A9
:102990002200C30043082100B200250045082200A0
:1029A000C40044082100B300C9309A316D2292312D
:1029B00025004A080319DE2C9C31702C9C31E42C34
:1029C0005F302100AD00B530AE00AF3159279431F2
:1029D0008731FB2794312200C10041082500C40043
:1029E00043082200C100C20141082100B0002200BA
:1029F00042082100B1002500440880318F20943125
:102A0000AE31AE2694312200C10041082500C50038
:102A1000CA302200C10041082100B000C8302200A5
:102A2000C20042082100B100C6302200C3004308A2
:102A30002100B200250045082200C40044082100FE
:102A4000B300C9309A316D22943125004A08031928
:102A50002A2D2B2D962D4A302000B800B630B90013
:102A60002930BA00B430BB006E30BC00A830BD00C5
:102A70006E30BE00A830BF00A03106209431013076
:102A8000AE315026943106302200C2001330C1000E
:102A9000AD30890B492DC10B492DC20B492D003298
:102AA0000030AE3150269431250040080319592DCD
:102AB0005A2D962D49089031452094312200C100AD
:102AC00041082500C7004708031D672D682D8E2D7E
:102AD000CA014A302100B000B630B100CA30B2009D
:102AE0000230B300C730B4000230B50098316B201B
:102AF0009431C9302100B8000230B900CA30BA00A0
:102B00000230BB00C730BC000230BD00C830BE0080
:102B10000230BF00A7314D279431962D6B30210034
:102B2000AD00B530AE00AF31592794318731FB2766
:102B300094312200C10041082500C400430822004E
:102B4000C100C20141082100B0002200420821005A
:102B5000B1002500440880318F209431AE31AE267B
:102B600094312200C10041082500C500CA3022006E
:102B7000C10041082100B000C8302200C200420854
:102B80002100B100C6302200C30043082100B2007A
:102B9000250045082200C40044082100B300C930C4
:102BA0009A316D22943125004A080319D82DD92D68
:102BB000472E52302000B800B630B900BE30BA00FF
:102BC000B530BB006E30BC00A830BD006E30BE001A
:102BD000A830BF00A031062094310130AE3150261C
:102BE000943115302200C2004B30C100BE30890B39
:102BF000F72DC10BF72DC20BF72D00000030AE31C1
:102C00005026943115302200C2004B30C100BE3036
:102C1000890B082EC10B082EC20B082E00000130B4
:102C2000A13182219431003A0319172E182E212E3A
:102C300077302100AD00B530AE00AF315927943167
:102C4000472E2500CA0152302100B000B630B10035
:102C5000CA30B2000230B300C730B4000230B50051
:102C600098316B209431C9302100B8000230B9008E
:102C7000CA30BA000230BB00C730BC000230BD0011
:102C8000C830BE000230BF00A7314D2794318731D4
:102C9000FB2794312200C10041082500C4004308ED
:102CA0002200C100C20141082100B00022004208F8
:102CB0002100B1002500440880318F209431AE31CD
:102CC000AE2694312200C10041082500C500CA305B
:102CD0002200C10041082100B000C8302200C2001B
:102CE00042082100B100C6302200C3004308210081
:102CF000B200250045082200C40044082100B300AA
:102D0000C9309A316D22943125004A080319892E61
:102D10008A2E012F5A302000B800B630B9005D303D
:102D2000BA00B130BB006E30BC00A830BD006E30C0
:102D3000BE00A830BF00A031062094310130AE3172
:102D40005026943115302200C2004B30C100BE30F5
:102D5000890BA82EC10BA82EC20BA82E0000003094
:102D6000AE315026943115302200C2004B30C100E4
:102D7000BE30890BB92EC10BB92EC20BB92E000083
:102D80000030A13182219431003A0319C82EC92E96
:102D9000DB2E0130A131A5219431003A0319D12E47
:102DA000D22EDB2E83302100AD00B530AE00AF3126
:102DB00059279431012F2500CA015A302100B00053
:102DC000B630B100CA30B2000230B300C730B40030
:102DD0000230B50098316B209431C9302100B80021
:102DE0000230B900CA30BA000230BB00C730BC00A4
:102DF0000230BD00C830BE000230BF00A7314D27F1
:102E000094318731FB2794312200C100410825000D
:102E1000C40043082200C100C20141082100B000E3
:102E2000220042082100B1002500440880318F2093
:102E30009431AE31AE2694312200C1004108250004
:102E4000C500CA302200C10041082100B000C830CE
:102E50002200C20042082100B100C6302200C30097
:102E600043082100B200250045082200C4004408A0
:102E70002100B300C9309A316D22943125004A08EF
:102E80000319432F442FBB2F62302000B800B63007
:102E9000B9007130BA00B130BB006E30BC00A83050
:102EA000BD006E30BE00A830BF00A03106209431B6
:102EB0000130AE315026943115302200C2004B3023
:102EC000C100BE30890B622FC10B622FC20B622F73
:102ED00000000030AE315026943115302200C2007F
:102EE0004B30C100BE30890B732FC10B732FC20B47
:102EF000732F00000030A131A5219431003A03194D
:102F0000822F832F952F0130A131C8219431003AAF
:102F100003198B2F8C2F952F8F302100AD00B530EA
:102F2000AE00AF3159279431BB2F2500CA01623062
:102F30002100B000B630B100CA30B2000230B30098
:102F4000C730B4000230B50098316B209431C930DD
:102F50002100B8000230B900CA30BA000230BB000C
:102F6000C730BC000230BD00C830BE000230BF0018
:102F7000A7314D2794318731FB2794312200C100BE
:102F800041082500C40043082200C100C2014108D5
:102F90002100B000220042082100B10025004408B1
:102FA00080318F209431AE31AE2694312200C100A1
:102FB00041082500C500CA302200C1004108210097
:102FC000B000C8302200C20042082100B100C63063
:102FD0002200C30043082100B2002500450822005A
:102FE000C40044082100B300C9309A316D229431E5
:102FF00025004A080319FE2F883107288831C22886
:10300000A3313623983108002100B701642820003D
:103010000F190B280C282128A2302100AD00B03058
:10302000AE00AF31592798312100B701B70A3008F7
:103030008600310887008101320886003308870046
:10304000810120006A080319262827286428A33153
:10305000C22398312100B4003408B600542801007E
:1030600064288530AD00B130AE00AF3159279831BA
:10307000210030088600310887008101320886006F
:1030800033088700810102302100B5000430B4000C
:10309000BA30890B4928B40B4928B50B49280000E0
:1030A0002100B701B70A64283608B400B501350815
:1030B000003A03195C2864283408303A03192F2891
:1030C000043A0319312864282100370803196928B4
:1030D0006A28072808003430860002308700C13093
:1030E00084000030850014302100B60016001A005C
:1030F000B60B7628DD30860001308700B7308400BB
:10310000003085000A30B60016001A00B60B84287D
:103110000130AE31362698310130AE314326983138
:103120000030AE31292698310030AE311C2698315E
:10313000210031082000AF00210030082000AE003F
:103140008430B000B230B1002030B200B130B300F2
:103150006E30B400A830B500A63153269831C13086
:103160002000B3000030B400210031082000B60078
:10317000210030082000B500AF316F2798312000C2
:1031800034082100D600200033082100D50056085D
:103190002000B400210055082000B300B730B5006E
:1031A0000030B600AF316F2798312000340821007D
:1031B000AE00200033082100AD00AF31592798310F
:1031C000A6310B26983120000F1DE728E828E328B8
:1031D0002100320886003308870081013408860008
:1031E00035088700810108002000AB002B08A900EA
:1031F00029082100E9000030AF31442798319C3084
:103200002000A900D730890B0329A90B032903301B
:10321000AF31B62798311A302000A900F830890B59
:103220000F29A90B0F2900000330AF31B6279831C1
:103230001A302000A900F830890B1C29A90B1C2981
:1032400000000330AF31B62798311A302000A900B2
:10325000F830890B2929A90B292900000230AF3148
:10326000B62798311A302000A900F830890B36298A
:10327000A90B362900002830AF31B627983102302B
:103280002000AA000430A900BA30890B4529A90BF7
:103290004529AA0B452900000C30AF31B6279831DB
:1032A00002302000AA000430A900BA30890B562948
:1032B000A90B5629AA0B562900000130AF31B627B9
:1032C000983102302000AA000430A900BA30890BDE
:1032D0006729A90B6729AA0B672900000630AF31BF
:1032E000B627983102302000AA000430A900BA3075
:1032F000890B7829A90B7829AA0B782900000800E6
:103300002000B5012B30860000308700473FB30016
:10331000B31F8B298C29AE292000AB09AC09AD095C
:10332000AE09AF09B009B109B209AB0A031DAB2957
:10333000AC0A031DAB29AD0A031DAB29AE0A031D60
:10334000AB29AF0A031DAB29B00A031DAB29B10A93
:10335000031DAB29B20A2000B501B50A233086004F
:1033600000308700473F2000B300B31FB829B929B8
:10337000D8292000A309A409A509A609A709A80915
:10338000A909AA09A30A031DD829A40A031DD8293B
:10339000A50A031DD829A60A031DD829A70A031DBB
:1033A000D829A80A031DD829A90A031DD829AA0AC1
:1033B00020002308240425042604270428042904C3
:1033C0002A040319E429E529382AB401B40AF429A6
:1033D000A335A40DA50DA60DA70DA80DA90DAA0D29
:1033E0000130B3003308B407AA1FF729F829E829E8
:1033F0002A083202031D162A29083102031D162A43
:1034000028083002031D162A27082F02031D162A3A
:1034100026082E02031D162A25082D02031D162A32
:1034200024082C02031D162A23082B02031C192A28
:103430001A2A2A2A2308AB022408AC3B2508AD3BF4
:103440002608AE3B2708AF3B2808B03B2908B13B14
:103450002A08B23BAA36A90CA80CA70CA60CA50CEE
:10346000A40CA30C0130B402031D372A382AF82912
:10347000350803193C2A3D2A5B2AAB09AC09AD0982
:10348000AE09AF09B009B109B209AB0A031D5B2A45
:10349000AC0A031D5B2AAD0A031D5B2AAE0A031D9D
:1034A0005B2AAF0A031D5B2AB00A031D5B2AB10A1F
:1034B000031D5B2AB20A20002B08A3002C08A400DD
:1034C0002D08A5002E08A6002F08A7003008A80088
:1034D0003108A9003208AA0008002100BA004E2BCA
:1034E000AD3163259A312100B4003408B600613053
:1034F0003606031D7C2A7D2AAA2A9830AD00B130F9
:10350000AE00AF3159279A3121003A0886000230C7
:1035100087008101810A300886000230870081011E
:10352000810A32088600023087008101810A310851
:10353000860002308700810102302100B50004308E
:10354000B400BA30890BA22AB40BA22AB50BA22A66
:1035500000006A2B1D30AD00A930AE00AF315927F5
:103560009A316A2B7530A5317D259A316A2B7630D8
:10357000A5317D259A316A2B7730A5317D259A3189
:103580002100B4003408B70077303706031DC92A7C
:10359000CA2A6A2BCC30AD00B030AE00AF3159270B
:1035A0009A316A2BAD315E259A312100B40034087E
:1035B000B8003D303806031DDE2ADF2A082B8C3088
:1035C000AD00B030AE00AF3159279A310230210042
:1035D000B5000430B400BA30890BEC2AB40BEC2AE5
:1035E000B50BEC2A0000AB302000B800B130B900B8
:1035F0009A30BA00B230BB006E30BC00A830BD00BB
:103600006E30BE00A830BF00AF31E7279A316A2B79
:103610001D30AD00A930AE00AF3159279A316A2B69
:10362000AD314A259A312100B4003408B9002A305E
:103630003906031D1C2B1D2B462B6F30AD00A83007
:10364000AE00AF3159279A3102302100B500043065
:10365000B400BA30890B2A2BB40B2A2BB50B2A2BBA
:103660000000AB302000B800B130B9009630BA008D
:10367000B230BB006E30BC00A830BD006E30BE0062
:10368000A830BF00AF31E7279A316A2B1D30AD005B
:10369000A930AE00AF3159279A316A2B3308B400F4
:1036A000B5013508003A0319562B6A2B34082A3A1B
:1036B0000319102B173A0319D22A5C3A0319702AFE
:1036C000143A0319B22A033A0319B72A013A031923
:1036D000BC2A6A2B08002000B50123308600003088
:1036E0008700473FB300B31F762B772B992B200021
:1036F000A309A409A509A609A709A809A909AA094E
:10370000A30A031D962BA40A031D962BA50A031DCD
:10371000962BA60A031D962BA70A031D962BA80A13
:10372000031D962BA90A031D962BAA0A2000B5019A
:10373000B50A2B30860000308700473F2000B300D9
:10374000B31FA32BA42BC82B2000AB09AC09AD09D8
:10375000AE09AF09B009B109B209AB0A031DC32B09
:10376000AC0A031DC32BAD0A031DC32BAE0A031DF8
:10377000C32BAF0A031DC32BB00A031DC32BB10A11
:10378000031DC32BB20A01302000B3003308B50675
:10379000363086000030870008302000B30000304B
:1037A0001E00B30BD02B2308240425042604270471
:1037B000280429042A040319DE2BDF2B3B2CB40137
:1037C000B40AEE2BA335A40DA50DA60DA70DA80DCB
:1037D000A90DAA0D0130B3003308B407AA1FF12BBD
:1037E000F22BE22BB635B70DB80DB90DBA0DBB0DE6
:1037F000BC0DBD0D2A083202031D182C2908310208
:10380000031D182C28083002031D182C27082F022E
:10381000031D182C26082E02031D182C25082D0226
:10382000031D182C24082C02031D182C23082B021E
:10383000031C1B2C1C2C2D2C2308AB022408AC3B96
:103840002508AD3B2608AE3B2708AF3B2808B03B18
:103850002908B13B2A08B23B3614AA36A90CA80C99
:10386000A70CA60CA50CA40CA30C0130B402031DDC
:103870003A2C3B2CF22B350803193F2C402C5E2CA4
:10388000B609B709B809B909BA09BB09BC09BD0924
:10389000B60A031D5E2CB70A031D5E2CB80A031D71
:1038A0005E2CB90A031D5E2CBA0A031D5E2CBB0AEE
:1038B000031D5E2CBC0A031D5E2CBD0A20003608C9
:1038C000A3003708A4003808A5003908A6003A0864
:1038D000A7003B08A8003C08A9003D08AA00080072
:1038E0003A302000B800B630B9001A30BA00B4300F
:1038F000BB006E30BC00A830BD006E30BE00A830EA
:10390000BF00A03106209C310130AE3150269C31E1
:1039100006302200C2001330C100AD30890B8E2C5E
:10392000C10B8E2CC20B8E2C00320030AE315026D3
:103930009C312500400803199E2C9F2CE42C9430C8
:103940002100AD00A830AE00AF3159279C312500D1
:103950004908903145209C312200C10041082500D2
:10396000C7004708031DB52CB62CDC2CCA013A3021
:103970002100B000B630B100CA30B2000230B3004E
:10398000C730B4000230B50098316B209C31C9308B
:103990002100B8000230B900CA30BA000230BB00C2
:1039A000C730BC000230BD00C830BE000230BF00CE
:1039B000A7314D279C31E42C53302100AD00B530A8
:1039C000AE00AF3159279C318731FB279C31220053
:1039D000C10041082500C40043082200C100C20103
:1039E00041082100B000220042082100B10025005A
:1039F000440880318F209C31AE31AE269C312200AC
:103A0000C10041082500C500CA302200C10041089C
:103A10002100B000C8302200C20042082100B100DD
:103A2000C6302200C30043082100B200250045082B
:103A30002200C40044082100B300C9309A316D222D
:103A40009C3125004A080319262D282D9431E82C95
:103A500042302000B800B630B9003830BA00B43077
:103A6000BB006E30BC00A830BD006E30BE00A83078
:103A7000BF00A03106209C310130AE3150269C3170
:103A800006302200C2001330C100AD30890B462D34
:103A9000C10B462DC20B462D00320030AE315026F0
:103AA0009C31250040080319562D572D262D490815
:103AB000903145209C312200C10041082500C700FB
:103AC0004708031D642D662D9431E02CCA01423055
:103AD0002100B000B630B100CA30B2000230B300ED
:103AE000C730B4000230B50098316B209C31C9302A
:103AF0002100B8000230B900CA30BA000230BB0061
:103B0000C730BC000230BD00C830BE000230BF006C
:103B1000A7314D279C31262D2100A90020005D08EA
:103B200086008701403FDF00413FE0005F088400DE
:103B3000600885001200253A031D9F2DA02D882EB8
:103B40005D08860087010130810741310318810A31
:103B50002300D501D6012100E301E401FF30E1009B
:103B6000FF30E20020005D0886008701403FDF0053
:103B7000413FE0005F088400600885001200643A5D
:103B80000319C32DC42DD52D5D0886008701403F44
:103B9000DF00413FE0005F088400600885001200FC
:103BA000693A031DD42DD52D232E5D08860087018B
:103BB0000130810741310318810A5E0886008701C0
:103BC00001088400850102308107003FDF00013FCA
:103BD000E0005F082100A000200060082100A10093
:103BE000890D893B8909A200A300A400A500A600B5
:103BF000A70020082000BF00210021082000C000ED
:103C0000210022082000C100210023082000C2005A
:103C1000210024082000C300210025082000C40042
:103C2000210026082000C500210027082000C6002A
:103C3000210029089031DA209D3120004008DE0063
:103C40003F08DD00AD2E5D0886008701403FDF00A4
:103C5000413FE0005F0884006008850012006E3A72
:103C6000031D332E342E532E5D088600870101304C
:103C7000810741310318810A5E0886008701403FB1
:103C800084008501810A0008DF005F082100A80088
:103C90002808860087015F08C03F6008C13F2000F8
:103CA000DD01DE01AD2E5D0886008701403FDF00AB
:103CB000413FE0005F088400600885001200253A5B
:103CC000031D632E642E7F2E5D0886008701013060
:103CD000810741310318810A2530A6000030A70072
:103CE000210029082000DF005F08A800A631A426D3
:103CF0009D3101302000DD000030DE00AD2E5D087A
:103D0000860087010130810741310318810A4F2E57
:103D10005D0886008701403FDF00413FE0005F080B
:103D20008400600885000008E100E2016108A60047
:103D30006208A700210029082000E3006308A8000A
:103D4000A631A4269D3120005D0886008701013040
:103D5000810741310318810A792E0800203086003E
:103D6000023087002A3084000130850014302100A1
:103D7000DD0016001A00DD0BB92E48308600023037
:103D8000870020308400013085000A30DD001600F5
:103D90001A00DD0BC72E0130AE3136269E310130C0
:103DA000AE3143269E310030AE3129269E312100AE
:103DB00058082000AF00210057082000AE008430D2
:103DC000B000B230B1006030B200B230B300F630B3
:103DD000B400B030B500A63153269E312A30200001
:103DE000B3000130B400210058082000B6002100C3
:103DF00057082000B500AF316F279E3120003408EE
:103E00002200BF00200033082200BE003F0820002F
:103E1000B40022003E082000B3002030B50001307D
:103E2000B600AF316F279E31200034082100AE006C
:103E3000200033082100AD00AF3159279E31A63153
:103E40000B269E3121005B088600023087000108A6
:103E5000903145209E312100DD005D082200C00028
:103E60000B302100DE002630DD005D30890B362F5F
:103E7000DD0B362FDE0B362F0032220040080319EF
:103E8000422F432F772F21005908860002308700E8
:103E900081015A088600023087008101FF3020002E
:103EA000AE00B530AF008930B000B230B100723032
:103EB000B200B230B3002030B400B130B500A6314A
:103EC00053269E31DB302100B8000030B900D930D4
:103ED000BA000030BB00DA30BC000030BD00DC307E
:103EE000BE000030BF00A7314D279E31FF2FFF30AD
:103EF0002000AE00B530AF002230B000B630B100C7
:103F00006E30B200A830B3006E30B400A830B500F7
:103F1000A63153269E310030AE3136269E31013017
:103F2000AE3143269E310030AE3129269E3101301C
:103F3000AE316A269E3119302100DE005A30DD0094
:103F4000B130890BA12FDD0BA12FDE0BA12F003289
:103F50000030AE316A269E3115302100DE004B3034
:103F6000DD00BE30890BB22FDD0BB22FDE0BB22F7E
:103F700000000130A13182219E31003A0319C12F86
:103F8000C22FE92F0130A131A5219E31003A03193A
:103F9000CA2FCB2FE92F0130A131C8219E31003A21
:103FA0000319D32FD42FE92FFF302000AE00B530F6
:103FB000AF002230B000B630B100FC30B200B330F8
:103FC000B3007F30B400B330B500A63153269E3124
:103FD000FF2F210059088600023087008101FF3041
:103FE000B000B530B100D930B2000030B300DA30E3
:103FF000B4000030B50098316B209E31622F08006C
:10400000FE0012001E00FE0B012800344E309831D5
:10401000F420A03120003908AF003808AE003B087A
:10402000B1003A08B0003D08B3003C08B2003F08B8
:10403000B5003E08B400A6315326A0310800200088
:104040002408A6002308A50029280130A307003072
:10405000A43D23088600240887000108031D312899
:104060003228252825082302A3002608243BA40083
:10407000080023001908F00020006C08C53E8600E7
:1040800001308700700881000130F0007008EC07F3
:1040900008306C02031C4D284E284F28EC010130DB
:1040A000F0007008EA0708002000A400A30124081B
:1040B00003195B285C2862288F1B5F286028622810
:1040C000A301A30A2408031D662867286D288F1FF3
:1040D0006A286B286D28A301A30A23080800200082
:1040E000A400A30124080319762877287D280F1936
:1040F0007A287B287D28A301A30A2408031D812890
:10410000822888280F1D852886288828A301A30ACD
:10411000230808002000A300230A8600023087003D
:1041200042300106031D95289628A3282308023E45
:1041300086000230870058300106031DA028A12800
:10414000A3280130A4280030080020003708803A56
:10415000B80080303802031DAF2801303602031842
:10416000B228B328C02820003609B8003709B900A2
:10417000B80A0319B90A3808B6003908B700C028C8
:104180000800220090018F018C018D018E01083002
:10419000210090008C01CF308D00BF308E00FF30A9
:1041A0008F0023008F0137308D0090013C308C0050
:1041B000240090018D012100951722009D01080027
:1041C00022000C1706302000A4001330A300AD30ED
:1041D000890BE828A30BE828A40BE828003222006A
:1041E0000C1306302000A4001330A300AD30890B5F
:1041F000F728A30BF728A40BF728003208002000AB
:10420000AC01AD01122929082C0784002A082D3D94
:1042100085000008AF31CE27A03101302000AC0767
:104220000030AD3D29082C0784002A082D3D85006B
:104230001200031D1C291D29032908002000A600C7
:104240002608A500A50DA50D21001D0820002506A6
:104250008339250621009D001D140D30890B2E2960
:10426000000021009D149D183629372933291C0888
:104270002000A40021001B082000A300080020301B
:104280002100AD00A830AE00AF315927A131210087
:10429000B101B201A2311022A13101302100B107D8
:1042A0000030B23D3208803AB00080303002031D49
:1042B0005B2902303102031C5E295F294A2908006C
:1042C000083021006C0203186629672980296D08CF
:1042D000CD3E860001308700010823009A0001309E
:1042E000F00070082100ED0708306D02031C7929E9
:1042F0007A297B29ED010130F0007008EC07812953
:10430000111208002000A400A30124080319892920
:104310008A2994290F1C8D298E2994298F18912977
:1043200092299429A301A30A2408031D98299929F5
:10433000A3290F189C299D29A3298F1CA029A129F5
:10434000A329A301A30A230808002000A400A301B5
:1043500024080319AC29AD29B7298F1DB029B1292B
:10436000B7290F1AB429B529B729A301A30A24082C
:10437000031DBB29BC29C6298F19BF29C029C629FD
:104380000F1EC329C429C629A301A30A23080800B4
:104390002000A400A30124080319CF29D029DA2979
:1043A0008F1ED329D429DA290F1BD729D829DA2936
:1043B000A301A30A2408031DDE29DF29E9298F1A96
:1043C000E229E329E9290F1FE629E729E929A301C1
:1043D000A30A230808002000A80023032404031DC7
:1043E000F229F329FE290130A700250AF829A7356B
:1043F000890BF72927082804A8000F2A230824047A
:10440000031D032A042A0F2A0130A700250A092ABE
:10441000A735890B082A2708FF3A2805A8000800B5
:104420002000A801A901A231B022A2310B30200046
:10443000A7002630A6005D30890B1C2AA60B1C2A7B
:10444000A70B1C2A003201302000A8070030A93D2C
:104450002908803AA60080302602031D312A023046
:104460002802031C342A352A132A080020002A08AF
:10447000B0002908AF002808B2002708B1003208B0
:10448000AC003108AB00B10A0319B20A2B08860050
:104490002C0887003008AE002F08AD00AF0A0319C2
:1044A000B00A2D0884002E0885000008C03F890846
:1044B000031D5B2A5C2A3F2A08002000B500B301D7
:1044C000B401752A3208AF00B0012F08A6003008E9
:1044D000A7002E08B1003108A800A631A426A231F9
:1044E00001302000B3070030B43D33083507AF007A
:1044F0002F088600023087000108B0003008B200A3
:104500003208031D842A852A622A0800F4007008F4
:10451000710403198C2A8D2AA02A7435A03E8600C6
:10452000013087007008C03F7108C13F7208F30076
:104530007408AC3E86000130870073088100AF2A02
:104540007435A03E860001308700F430C03F2C3027
:10455000C13F7408AC3E860001308700810108002D
:104560002000A401A50122000D1606302000A300A2
:104570003030890BB92AA30BB92A000022000D1292
:1045800006302000A3003030890BC42AA30BC42AB4
:10459000000001302000A4070030A53D2508803A26
:1045A000A30080302302031DD72A32302402031CCB
:1045B000DA2ADB2AB32A080023003C100230FA0072
:1045C0007A08BB00EB2AAD312C25A231082BAD3186
:1045D0003125A231082B2E08FA007A08F9000430A0
:1045E000A03E860001308700413F8A00403F0A001C
:1045F000A231FB00FC017C08003A0319002BE72ADA
:104600007B08023A0319E32A013A0319E32AE72A4D
:1046100008002000A40021006C080319102B112BA6
:104620000B2B111A142B152B1A2B200024082300F6
:104630009A00332B111220002408A3007D08CD3EE0
:10464000860001308700230881000130A300230881
:10465000FD0708307D02031C2E2B2F2B302BFD0174
:1046600001302100EC02210011160800AD310525B2
:10467000A33123003C1C3D2B3E2B4C2BAD31682538
:10468000A331003A0319452B462B4C2B0F30200049
:10469000A00020082300BA0023003A082000A00050
:1046A000A101A035A10D003020078400A830213DD4
:1046B0008500013F8A00003F0A00A3312000A200CC
:1046C00022082300BA0008002300BC15742BAD316A
:1046D0002C25A331922BAD310225A3310330922B2F
:1046E000AD313125A331922B2C08FA007A08F9005C
:1046F00021088A0020080A00A331FB00FC017C0885
:10470000003A0319842B702B7B08013A0319702B94
:10471000033A0319672B013A0319672B073A031968
:104720006B2B702B08002000AC00AE2B2908BF3E7D
:10473000AF31B627A331C12B2908933EAF31B6273D
:10474000A331C12B2908D33EAF31B627A331C12BEA
:1047500029087F3EAF31B627A331C12B2C08AA0010
:10476000AB012B08003A0319B62BA82B2A08023AF2
:104770000319962B013A03199C2B073A0319A22B14
:10478000A82B080020006A080319C72BC82BC22BCE
:104790006B08BD3E8600013087000108A300230896
:1047A0002100EB0020006B08C53E86000130870029
:1047B0000108A3002308A4000130A3002308EB078D
:1047C00008306B02031CE52BE62BE72BEB012100E5
:1047D000911201302000EA022100911620002408E5
:1047E00008002000A601A701102C22008D166830B9
:1047F0002000A500E430890BFB2BA50BFB2B000050
:1048000022008D1268302000A500E430890B062CB0
:10481000A50B062C000001302000A6070030A73DA4
:104820002708803AA5002408803A2502031D1A2C87
:1048300023082602031C1D2C1E2CF52B22008D1292
:1048400008002D343E34203445345234523445343B
:10485000553452343A3420340034003400340034B7
:10486000003400340034003400342D343E3420341D
:104870004534523452344534553452343A34203469
:104880000034003400340034003400340034003488
:1048900000340D340A340034003400340034003461
:1048A0000034003400342100AA00200065082100F3
:1048B000AC00200064082100AB00DF01E001762C91
:1048C000AB302000E7006708DD006608E8006808F4
:1048D000DE0021002A089D318C25A43120005D08CE
:1048E0002100DF0720005E082100E03D2B08840046
:1048F0002C0885001200031D7E2C7F2C602C600884
:104900002000E50021005F082000E40008002000EE
:10491000AE010730AF000030B000AE319126A431B7
:1049200034302000A900F130890B942CA90B942C71
:10493000003220000D0CA900A90C290C0139AA0095
:10494000AB012A08AC002B08AD002D08A4002C08F0
:10495000A3003008A6002F08A5002E08A131EB21E6
:10496000A4312000A9002908AE00FF30AF07FF30B6
:10497000B03DB01FBC2CBD2C8D2C2E080800210092
:10498000B400AF302000E90069082100B30034080A
:104990002000E90069082100B500B601B701B8019F
:1049A000B9012E082000E50021002D082000E400B8
:1049B000B330E9006908E600B530A4315324A431CE
:1049C000200065082100B200200064082100B10029
:1049D000360834072000E9006908860002308700A5
:1049E000810121003208AE003108AD00080020002E
:1049F000B500B301B401A4318724A4312000B10073
:104A000033083507B20032088600023087003108CB
:104A100081000130B3070030B43D3408803AB10062
:104A200080303102031D162D14303302031C192D62
:104A30001A2DFB2C20003508860002308700233019
:104A40000106031D242D252D2D2D2030B100350804
:104A5000860002308700310881003508133E860049
:104A6000023087008101AE310326A4310800AC3149
:104A7000FF24A531FA0023003708860087017A0851
:104A800081000130FA007A08B7070130B80200301F
:104A9000B93B3808390403194E2D4F2D542DAD3133
:104AA0001425A53105307C2DBC155E2DAD3140257A
:104AB000A5317C2DAD313B25A5317C2D2C08FA008C
:104AC0007A08F90021088A0020080A00A531FB00B5
:104AD000FC017C08003A03196E2D5A2D7B08013A1F
:104AE00003195A2D033A0319562D013A0319562D6D
:104AF000073A03195A2D5A2D08002000A40024005B
:104B000016141618842D852D812D3230910014181D
:104B10008A2D8B2D872D14198E2D8F2D8B2D2000F6
:104B20002408240091001418962D972D932D141904
:104B30009A2D9B2D972D961496189F2DA02D9C2D68
:104B4000333091001418A52DA62DA22D1419A92DCE
:104B5000AA2DA62D9615141CAE2DAF2DAB2D110828
:104B60002000A3002308A500240096161616161A86
:104B7000BA2DBB2DB72D16151619BF2DC02DBC2D66
:104B80002000250808002100911204302000A30015
:104B90001030A400AD31BB25A531210011126030C9
:104BA0002000A3002130A400AD31C425A531083078
:104BB00023009F0090309D0024309E0040309B00D9
:104BC00003309C00F2302000A3002C30A400AD3153
:104BD000A925A5310C302000A3002D30A400AD3153
:104BE000B225A53108302000A3002D30A400AD313E
:104BF000A025A5312100EB01FD01ED0108302000C9
:104C0000A50025082100EC002000EC01EB01EA01E1
:104C10002100911608002000A801A9012000AA0186
:104C2000AB01A231B022A6310B302000A700263004
:104C3000A6005D30890B1A2EA60B1A2EA70B1A2E72
:104C4000003201302000AA070030AB3D2B08803A2B
:104C5000A60080302602031D2F2E04302A02031CDA
:104C6000322E332E112E0B302000A7002630A60046
:104C70005D30890B392EA60B392EA70B392E003249
:104C800001302000A8070030A93D2908803AA6007D
:104C900080302602031D4E2E04302802031C512EA4
:104CA000522E0E2E0800AD31CD25A6310630AF3183
:104CB000B627A63102302000B7000430B600BA3063
:104CC000890B602EB60B602EB70B602E0000200003
:104CD000A901A90A0130A3319323A63120002F088E
:104CE000AA002E08A900A031FF20A6312000A901AA
:104CF000A90A0230A3319323A63120003108AA006B
:104D00003008A900A031FF20A6312000A901A90A7E
:104D10000330A3319323A63120003308AA003208C0
:104D2000A900A031FF20A6312000A901A90A043062
:104D3000A3319323A63120003508AA003408A90026
:104D4000A031FF20A6310800200028080319A92E51
:104D5000AA2EAF2E2808031DAE2EAF2EB42E260885
:104D600088310020A631F52E2808033E86008701F1
:104D7000160001040319BD2EBE2EDB2E2808033EAB
:104D800086008701403FA900413FAA00280A86000B
:104D90008701403FAB00413FAC002C08803AAD009A
:104DA0002A08803A2D02031DD72E29082B0203184A
:104DB000DA2EDB2EF52E20002608A9002808860012
:104DC0008701280A8400850100080107AA002A0833
:104DD00086000230870029088100280A86008701A2
:104DE0000130810741310318810A0800AD3168257F
:104DF000A631003A0319FD2EFE2E2F2F0B2FAD31B9
:104E00002225A6314C2FAD312725A6314C2FAD31AF
:104E10003125A6314C2F23002F08FA007A08F9001B
:104E20000630A03E860001308700413F8A00403FA7
:104E30000A00A731FB00FC017C08003A0319212F6E
:104E4000072F7B08013A0319072F033A0319FF2E96
:104E5000013A0319032F073A0319072F072F2300DD
:104E60003C101730A03E860001308700403F840090
:104E70008501810A0008AD311825A63101302300D3
:104E8000B8020030B93B38083904031D482F492FB8
:104E90004B2F06304C2F03300800210038088600C5
:104EA000390887000108C000C1014008B00041086E
:104EB000B1003A0886003B0887000108C200C30120
:104EC0004208B2004308B30098310420A731210002
:104ED0003A0886003B0887000108C000C10140086D
:104EE000B0004108B1003C0886003D088700010879
:104EF000C200C3014208B2004308B300380886006C
:104F0000390887000108C400C5014408B4004508F9
:104F1000B5003E0886003F0887000108C600C701AB
:104F20004608B6004708B7008731B027A7312930B7
:104F30002100C1009630C0007F30890B9D2FC00B2F
:104F40009D2FC10B9D2F08002000BE002100631C77
:104F5000AA2FAB2FB42F20003E08B9003908AE00AD
:104F60003608A2315D22A7312000B81BB82FB92F17
:104F7000BE2F3808BD003708BC00C02FBC01BD01E2
:104F8000BA01BB01D42F20302000A6000030A700BA
:104F90003E08B9003908A800A631A426A73101307F
:104FA0002000BA070030BB3D3B08803AB9003D08FD
:104FB000803A3902031DDE2F3C083A02031CE12F20
:104FC000E22FC32F21006318E62FE72FF02F2000D8
:104FD0003E08B9003908AE003608A2315D22A7317B
:104FE00020003608A3000230A400A0311F20A73102
:104FF00020003C082307B6003D08243DB700080008
:105000001D342D3497342D3487342D34F634263422
:105010003734253480342D346434233422342D3411
:1050200027342D342C342D3431342D3436342D3472
:105030003B342D3440342D3445342D34DC3422348B
:105040002D343E34203454344534533454342034D5
:1050500043344F344E3446344F3452344D34453457
:1050600020342D34203441345434543445344E34B7
:105070005434453420344134433451345534493464
:105080005434543445344D3445344E3454340D3452
:105090000A3400342D343E342034503452344F34EA
:1050A0004734523441344D344D344134543449340E
:1050B0004F344E3420344D344F34443455344C3412
:1050C00045342034313420345434453452344D3452
:1050D00049344E34453445340D340A3400342D34CB
:1050E0003E342034503452344F34473452344134F7
:1050F0004D344D344134543449344F344E342034DB
:105100004D344F34443455344C34453420343234E7
:1051100020345434453452344D3449344E344534BB
:1051200045340D340A3400344134743474346534F5
:105130006E34743465342034763461346C346934BC
:1051400064346134743469346F346E3420346C34B4
:1051500065346434203472346F34753467346534A4
:105160000D340A3400342D343E342034503452345B
:105170004F344734523441344D344D344134543437
:1051800049344F344E34203445344E342034433483
:105190004F345534523453340D340A3400342D34E2
:1051A0003E3420344534523452344534553452342C
:1051B0002034503452344F344734523441344D3417
:1051C0004D344134543449344F344E340D340A3460
:1051D00000342D343E342034543445345334543464
:1051E00020344D3441344E34553445344C3420341D
:1051F00045344E34203443344F34553452345334D0
:105200000D340A34003441345434543445344E346B
:10521000543445342034563441344C3449344434C5
:105220004134543449344F344E3420344C344534B2
:10523000443453340D340A3400342D343E34203495
:1052400053344C344134563445342034523445348C
:10525000533450344F344E345334453420344E3468
:1052600055344C344C340D340A3400342D343E342F
:1052700020344534463446344134433445344D3487
:1052800045344E345434203445344E342034433481
:105290004F345534523453340D340A3400342D34E1
:1052A0003E34203453344C34413456344534203465
:1052B00045344E3444342034503452344F3447341F
:1052C00020344B34383420344F34463446340034A0
:1059E400080008340130080024009614080024003C
:1059F4001615080024009615080024001108080054
:105A0400200091150800200091110800A0313920D0
:105A1400AD31080023001D121D160800240096163F
:105A2400161608002400961216160800F0007008D6
:105A34002400910008002300BC10BB010E300800B4
:105A4400AC31F624AD3101300800AC31F624AD316F
:105A540002300800AC31F624AD3101300800AC311D
:105A6400F924AD3100300800AD311425AD310530D5
:105A74000800AD311025AD310A300800AD311025D4
:105A8400AD31093008002300BC10BB010E30080002
:105A94002A30A5317D25AD3108007730A5317D252B
:105AA400AD3108007630A5317D25AD310800753063
:105AB400A5317D25AD3108003D30A5317D25AD31C1
:105AC40008006130A5317D25AD3108002400160E93
:105AD400890C890C01390800AD31F725AD3124005A
:105AE40016140800AD31F725AD3124001615080051
:105AF400640080010131890B7B2D003423003C10AC
:105B0400AC31FC24AD310430080023003C1436359C
:105B1400AD311825AD3103300800F03021009E006E
:105B24009B019C0101309D00080023003C140314D8
:105B3400360DAD311825AD3105300800200024089C
:105B44002300D800200023082300D70008002000E9
:105B540024082200C600200023082200C5000800F3
:105B6400200024082300DA00200023082300D900A1
:105B74000800200024082200C80020002308220076
:105B8400C7000800200024082100E60020002308A4
:105B94002100E50008000130AF31B627AD313530C2
:105BA400890BD22D000008000D340A34003400346F
:105BB400003400340034003400340034283024002D
:105BC4009500960194012730920021008E150E163F
:105BD40008007030210099009801220096012100EC
:105BE4001A1FF52DF62DF12D080024001419FB2D94
:105BF400FC2DF72D16081F39031D012E022EF72D3B
:105C0400080022008D1268302000A300E430890BC4
:105C1400092EA30B092E000008007608F100750870
:105C2400F0007708F8007808F2000030A2318622EC
:105C3400AE3108002000A30023080319222E232ECE
:105C4400262E22000C14282E22000C1008002000FE
:105C5400A300230803192F2E302E332E22001014F4
:105C6400352E2200101008002000A3002308031979
:105C74003C2E3D2E402E22009014422E22009010E5
:105C840008002000A30023080319492E4A2E4D2E94
:105C9400220010154F2E2200101108002000A3002E
:105CA40023080319562E572E5A2E22008C145C2ECC
:105CB40022008C1008002000A30023080319632E7F
:105CC400642E672E22000C15692E22000C11080088
:105CD4002000A30023080319702E712E742E2200B5
:105CE4000C16762E22000C1208002000A3002308B4
:105CF40003197D2E7E2E812E22008C16832E2200E7
:105D04008C1208002000A300230803198A2E8B2E6E
:105D14008E2E22008C15902E22008C110800220059
:105D24008D1268302000A300E430890B972EA30B5A
:105D3400972E000022008D160800323024009200B5
:105D44003630950096018030940021008E150E1691
:105D54008B170B179115080020006A080319B32E3E
:105D6400B42EBB2EA331C223AE312000A5002508DA
:105D7400A60026080800F3002300BC1DC22EC32E73
:105D8400CC2E7308F2007208B7007108B9007008CD
:105D9400B800BC110800A031C120AE31AD31EB25F3
:105DA400AE3190310020AE31AD318F25AE31A53109
:105DB400C325AE3108002000A300AD31F725AE3174
:105DC40020002308240091002000911DEA2EEB2ED0
:105DD400E62E911108000230F0000030F10079083D
:105DE400AE31BD26AE310030F500F600F701AE311C
:105DF4000F26AE31043008000130F0000030F1000D
:105E04007908AE31BD26AE310030F500F600F70159
:105E1400AE310F26AE31023008000230F0000030FF
:105E2400F1007908AE31BD26AF310030F500F6003F
:105E3400F701AE310F26AF31023008000130F00017
:105E44000030F1007908AE31BD26AF310030F500E5
:105E5400F600F701AE310F26AF3104300800200000
:105E64008D19352F362F312F8D1D392F3A2F362F7F
:105E7400D0302000A300C930890B3E2FA30B3E2F46
:105E8400003208002000A400AD316E25AF3121009E
:105E94006908AE31DD26AF312000240821006E04EC
:105EA400AE31DD26AF31AD317425AF310800AF30EE
:105EB4002000E90069082100AF002E082000E50059
:105EC40021002D082000E400AF30E9006908E60055
:105ED4000030A4315324AF31080020003408A4005A
:105EE4003308A300A0311F20AF312000230833075B
:105EF400A7002408343DA8003608AA003508A900E4
:105F0400A2313622AF310800790886008701403F6C
:105F1400F000413FF1007908023E86008701010844
:105F2400AE31BD26AF310030F500F600F701AE31D9
:105F34000F26AF31023008002000A60021006A08B5
:105F44002000A5002508A60426080438AF314427FC
:105F5400AF3120002608FB39AF314427AF3142303E
:105F6400890BB22F003208002000A8002100EA01AA
:105F740020002808F039AF319E27AF3120002808CF
:105F8400A7000330A735FF3E031DC42F2735F03982
:105F9400AF319E27AF3108002000A8002100EA019C
:105FA400EA0A20002808F039AF319E27AF312000DB
:105FB4002808A7000330A735FF3E031DDD2F273532
:105FC400F039AF319E27AF31080046309831F420C4
:105FD400AF3120003908AF003808AE003B08B100EB
:105FE4003A08B0003D08B3003C08B2003F08B500D1
:105FF4003E08B400A6315326AF3108002D343E3498
:1060040020344534463446344134433445344D34E5
:1060140045344E34543420345434453452344D349D
:1060240049344E3445340D340A3400342D343E346E
:10603400203453344C344134563445345F3454346E
:1060440045345334543420344734453454342034A0
:106054004134433451340D340A3400342D343E3445
:10606400203453344C344134563445345F3454343E
:106074004534533454342034473445345434203470
:106084004F344B340D340A3400342D343E34203430
:1060940053344C344134563445345F3454344534E9
:1060A40053345434203447344534543420344B343A
:1060B4004F340D340A3400342D343E3420345334F8
:1060C4004C344134563445342034543445345334F8
:1060D4005434203443344F344E3446344F345234E1
:1060E4004D34453400342D343E34203453344C3450
:1060F40041345634453420345434453453345434C0
:1061040020344134433451345534493454345434B0
:10611400453400342D343E34203453344C3441342B
:10612400563445345F34503452344F344734203479
:10613400533454344134523454340D340A34003416
:106144002D343E342034463449344E3420345434CF
:1061540045345334543420344D3441344E3455345E
:1061640045344C340D340A3400342D343E34203458
:1061740053344C34413456344534203445344E344D
:10618400203441345434543445344E345434453436
:106194003A3400342D343E34203453344C344134B6
:1061A400563445345F3454344534533454342034F1
:1061B40047344534543420344F344B34003445345C
:1061C40052345234453455345234203450345234D9
:1061D4004F344734523441344D344D3441345434C3
:1061E40049344F344E3400345034523445345334EB
