:1000000080314A28053008007E1480310B1F0928F2
:100010000A2848282100111E0E280F281B2820001E
:10002000111E132814281B28210066088A00650861
:100030000A00803148282100911E1F2820282C28E2
:100040002000911E242825282C2822004A088A00F6
:1000500049080A00803148282100921D30283128A3
:100060003D282000921D352836283D2821006808AB
:100070008A0067080A00803148282100911D412824
:10008000422848282000911D46284728482836281D
:100090007E10090080314C282100A631EF268031E6
:1000A000EE003830840099308500DB308600013066
:1000B00087001430A73160278031783084009C306D
:1000C000850020308600023087002830A731602765
:1000D0008031FD012000EA01EB01EC01DF308400FA
:1000E000003085000F30A7315A2780312200C5012A
:1000F000C601C701C801C901CA01A030840001308E
:1001000085003B30A7315A278031483084000230C7
:1001100085002030A7315A2780317E1020008B3196
:10012000A12B2B302000B800A930B900AB30BA00A9
:10013000A230BB002430BC00A030BD002430BE0083
:10014000A030BF009A3104228031013098317520EF
:10015000803115302200C2004B30C100BE30890B07
:10016000AF28C10BAF28C20BAF2800000030983178
:100170007520803115302200C2004B30C100BE30E6
:10018000890BC028C10BC028C20BC028000000305A
:100190009B31C0238031003A0319CF28D028E228B0
:1001A00001309B31E3238031003A0319D828D92844
:1001B000E22860302100AD00A830AE0099317621F0
:1001C000803108292500C9012B302100B000A93059
:1001D000B100C930B2000230B300C830B400023000
:1001E000B5009231DD228031C7302100B8000230E5
:1001F000B900C930BA000230BB00C830BC000230C0
:10020000BD00C630BE000230BF009131D121803127
:100210002500490803190D290E29CA293330200069
:10022000B800A930B9004C30BA00A530BB00083086
:10023000BC00A530BD002430BE00A030BF009A3104
:10024000042280310130983175208031063022003F
:10025000C2001330C100AD30890B2C29C10B2C29F1
:10026000C20B2C29003200309831752080310B30C0
:100270002200C2002630C1005D30890B3D29C10B30
:100280003D29C20B3D2900320C309B31392380318E
:10029000200024082500C500200023082500C400F4
:1002A0003B302100AD00A930AE00250045082100FB
:1002B000B000250044082100AF00BC309E31FA2672
:1002C000803121002E082500B60021002D082500D0
:1002D000B5004508803A2200C10083304102031D69
:1002E00074292030250044020318772978298329AE
:1002F00022008C176C302100AD00A830AE0099317F
:1003000076218031BD2933302100B000A930B10001
:10031000C930B2000230B300C830B4000230B500BA
:100320009231DD22803133302000AE00A930AF00A1
:100330004C30B000A530B100BC30B2000230B30088
:100340002430B400A030B5009031D7208031220095
:100350008C13C7302100B8000230B900C930BA0090
:100360000230BB00C830BC000230BD00C630BE0049
:100370000230BF009131D121803115302200C200FE
:100380004B30C100BE30890BC329C10BC329C20B3E
:10039000C3290000250049080319CF29D0298C2A38
:1003A0009A302000B800A830B9004C30BA00A5300F
:1003B000BB005D30BC00A530BD002430BE00A030C5
:1003C000BF009A310422803101309831752080318C
:1003D00006302200C2001330C100AD30890BEE2977
:1003E000C10BEE29C20BEE29003200309831752086
:1003F00080310B302200C2002630C1005D30890BF5
:10040000FF29C10BFF29C20BFF2900320C309B31A1
:1004100039238031200024082500C500200023084E
:100420002500C4003B302100AD00A930AE002500FE
:1004300045082100B000250044082100AF00BC3071
:100440009E31FA26803121002E082500B8002100B7
:100450002D082500B7004508803A2200C1008230EF
:100460004102031D362ABC30250044020318392AF4
:100470003A2A452A22008C1358302100AD00A630BC
:10048000AE009931762180317F2A9A302100B00068
:10049000A830B100C930B2000230B300C830B40097
:1004A0000230B5009231DD2280319A302000B80050
:1004B000A830B9004C30BA00A530BB00BC30BC003D
:1004C0000230BD002430BE00A030BF009A310422AB
:1004D000803122008C17C7302100B8000230B900EB
:1004E000C930BA000230BB00C830BC000230BD00C9
:1004F000C630BE000230BF009131D12180311530AD
:100500002200C2004B30C100BE30890B852AC10BCE
:10051000852AC20B852A0000250049080319912A63
:10052000922A5E2BA3302000B800A830B9007830A2
:10053000BA00A830BB002430BC00A030BD0024307D
:10054000BE00A030BF009A31042280310B3022005F
:10055000C2002630C1005D30890BAC2AC10BAC2A29
:10056000C20BAC2A00320130983175208031063040
:100570002200C2001330C100AD30890BBD2AC10B6F
:10058000BD2AC20BBD2A003200309831752080315F
:100590003D302200C200E130C1003F30890BCE2A3D
:1005A000C10BCE2AC20BCE2A003201309831752001
:1005B000803106302200C2001330C100AD30890BFB
:1005C000DF2AC10BDF2AC20BDF2A0032003098314C
:1005D0007520803110302200C2003930C1000D304A
:1005E000890BF02AC10BF02AC20BF02A003201302D
:1005F0009B319D238031003A0319FF2A002B1B2BCE
:1006000001309B31C0238031003A0319082B092B9C
:100610001B2B00309B31E3238031003A0319112B4F
:10062000122B1B2B65302100AD00A630AE00993196
:1006300076218031492B2500C90100309831752081
:1006400080310030983182208031A3302100B00009
:10065000A830B100C930B2000230B300C830B400D5
:100660000230B5009231DD228031C7302100B80060
:100670000230B900C930BA000230BB00C830BC003B
:100680000230BD00C630BE000230BF009131D12122
:1006900080310B302200C2002630C1005D30890B52
:1006A0004F2BC10B4F2BC20B4F2B00320030983118
:1006B0007520803100309831822080312500490832
:1006C0000319632B642BD22BB5302000B800A8305F
:1006D000B9006D30BA00A530BB003D30BC00A6307B
:1006E000BD002A30BE00A530BF009A3104228031FF
:1006F000013098317520803106302200C20013305D
:10070000C100AD30890B822BC10B822BC20B822B17
:1007100000320030983175208031D5302100AD0095
:10072000A030AE0099317621803125004708933101
:10073000F22380312200C10041082500C80048088A
:10074000031DA32BA42BCA2BC901B5302100B00077
:10075000A830B100C930B2000230B300C830B400D4
:100760000230B5009231DD228031C7302100B8005F
:100770000230B900C930BA000230BB00C830BC003A
:100780000230BD00C630BE000230BF009131D12121
:100790008031D22B72302100AD00A630AE009931ED
:1007A00076218031250049080319D72BD82B582CE6
:1007B000BE302000B800A830B900AC30BA00A83074
:1007C000BB002430BC00A030BD002430BE00A030EF
:1007D000BF009A310422803101309831822080316B
:1007E00006302200C2001330C100AD30890BF62B59
:1007F000C10BF62BC20BF62B003200309831822051
:1008000080310B302200C2002630C1005D30890BE0
:10081000072CC10B072CC20B072C003201309B3177
:100820009D238031003A0319162C172C322C0130ED
:100830009B31C0238031003A03191F2C202C322C0D
:1008400001309B31E3238031003A0319282C292CF5
:10085000322C7F302100AD00A630AE0099317621D8
:100860008031582C2500C901BE302100B000A830CD
:10087000B100C930B2000230B300C830B400023059
:10088000B5009231DD228031C7302100B80002303E
:10089000B900C930BA000230BB00C830BC00023019
:1008A000BD00C630BE000230BF009131D121803181
:1008B0002500490803195D2C5E2CDE2CC730200072
:1008C000B800A830B900C030BA00A630BB00243050
:1008D000BC00A030BD002430BE00A030BF009A3163
:1008E0000422803101309831A92080310630220065
:1008F000C2001330C100AD30890B7C2CC10B7C2CA5
:10090000C20B7C2C003200309831A92080310B3092
:100910002200C2002630C1005D30890B8D2CC10B36
:100920008D2CC20B8D2C003200309B319D238031E9
:10093000003A03199C2C9D2CB82C00309B31C0230D
:100940008031003A0319A52CA62CB82C00309B311D
:10095000E3238031003A0319AE2CAF2CB82C8C3035
:100960002100AD00A630AE00993176218031DE2C19
:100970002500C901C7302100B000A830B100C9303E
:10098000B2000230B300C830B4000230B50092317A
:10099000DD228031C7302100B8000230B900C930F3
:1009A000BA000230BB00C830BC000230BD00C63007
:1009B000BE000230BF009131D121803125004908AD
:1009C0000319E32CE42C5E2DD0302000B800A830B1
:1009D000B900EB30BA00A830BB002430BC00A03016
:1009E000BD002430BE00A030BF009A310422803107
:1009F000013098318F20803119302200C2005A30E6
:100A0000C100B130890B022DC10B022DC20B022D8A
:100A10000032003098318F2080310B302200C2002C
:100A20002630C1005D30890B132DC10B132DC20B75
:100A3000132D003201309B319D238031003A031980
:100A4000222D232D3E2D01309B31C0238031003AD1
:100A500003192B2D2C2D3E2D01309B31E3238031AA
:100A6000003A0319342D352D3E2D99302100AD006B
:100A7000A630AE009931762180315E2DD030210034
:100A8000D700A830D800C9302200C1004108210099
:100A9000D900C8302200C20042082100DA00C73065
:100AA0002200C30043082100DB00C6302200C4003E
:100AB00044082100DC009631AE268031250049082B
:100AC0000319632D642DE42DD9302000B800A8301F
:100AD000B900FB30BA00A830BB002430BC00A03005
:100AE000BD002430BE00A030BF009A310422803106
:100AF000013098319C20803119302200C2005A30D8
:100B0000C100B130890B822DC10B822DC20B822D09
:100B10000032003098319C2080310B302200C2001E
:100B20002630C1005D30890B932DC10B932DC20B74
:100B3000932D003200309B319D238031003A031900
:100B4000A22DA32DBE2D00309B31C0238031003A51
:100B50000319AB2DAC2DBE2D00309B31E32380312A
:100B6000003A0319B42DB52DBE2DA6302100AD00DD
:100B7000A630AE00993176218031E42D2500C901DF
:100B8000D9302100B000A830B100C930B200023025
:100B9000B300C830B4000230B5009231DD2280319C
:100BA000C7302100B8000230B900C930BA000230A5
:100BB000BB00C830BC000230BD00C630BE000230F1
:100BC000BF009131D1218031250049080319E92D59
:100BD000EA2DB12EE2302000B800A830B900E6308E
:100BE000BA00A530BB004530BC00A230BD002430A7
:100BF000BE00A030BF009A31042280319A31FB221E
:100C0000803103302200C2000830C1007730890BE8
:100C1000072EC10B072EC20B072E02302000A300A7
:100C20000030A4009E315E2680319231282280312E
:100C30002200C10041082500C1004108031D212EEA
:100C4000222E392E19302000B800A530B9001330FB
:100C5000BA00A630BB002A30BC00A430BD00AA30C8
:100C6000BE00A530BF009A31042280319931612144
:100C7000803103302000A3000030A4009E315E26A6
:100C80008031883100208031A0309F31322780317F
:100C900003302200C2000830C1007730890B4E2E8D
:100CA000C10B4E2EC20B4E2EE2302000B800A830F1
:100CB000B900E630BA00A530BB00A030BC0002305D
:100CC000BD002430BE00A030BF009A310422803124
:100CD000A0309A31882280312200C10041082500CD
:100CE000C8004808031D752E762EA92EC901E230D2
:100CF0002100B000A830B100C930B2000230B3000A
:100D0000C830B4000230B5009231DD228031C730E6
:100D10002100B8000230B900C930BA000230BB006F
:100D2000C830BC000230BD00C630BE000230BF007B
:100D30009131D121803115302200C2004B30C100E9
:100D4000BE30890BA12EC10BA12EC20BA12E00001B
:100D5000B12EB3302100AD00A630AE00993176211E
:100D60008031250049080319B62EB82E8B31E62BA9
:100D7000A1302000B800A130B900A030BA00023084
:100D8000BB002F30BC00A630BD005A30BE00A230E0
:100D9000BF009A3104228031013098314E208031D9
:100DA0000030A731F32780319B315A238031C7307F
:100DB0002100B0000230B100C930B2000230B300EF
:100DC000883113208031C9302100B0000230B100D9
:100DD000C830B2000230B300C730B4000230B500F2
:100DE000C630B6000230B70090318B20803115300C
:100DF0002200C2004B30C100BE30890BFD2EC10B5A
:100E0000FD2EC20BFD2E0000B62E80314A28200098
:100E1000B5012B30860000308700473FB300B31F79
:100E2000122F132F352F2000AB09AC09AD09AE09E5
:100E3000AF09B009B109B209AB0A031D322FAC0AE0
:100E4000031D322FAD0A031D322FAE0A031D322FB0
:100E5000AF0A031D322FB00A031D322FB10A031D42
:100E6000322FB20A2000B501B50A233086000030C7
:100E70008700473F2000B300B31F3F2F402F5F2F55
:100E80002000A309A409A509A609A709A809A90979
:100E9000AA09A30A031D5F2FA40A031D5F2FA50A39
:100EA000031D5F2FA60A031D5F2FA70A031D5F2FD7
:100EB000A80A031D5F2FA90A031D5F2FAA0A20009D
:100EC00023082404250426042704280429042A04CA
:100ED00003196B2F6C2FBF2FB401B40A7B2FA335DE
:100EE000A40DA50DA60DA70DA80DA90DAA0D0130E5
:100EF000B3003308B407AA1F7E2F7F2F6F2F2A0855
:100F00003202031D9D2F29083102031D9D2F280841
:100F10003002031D9D2F27082F02031D9D2F260839
:100F20002E02031D9D2F25082D02031D9D2F240831
:100F30002C02031D9D2F23082B02031CA02FA12F81
:100F4000B12F2308AB022408AC3B2508AD3B260893
:100F5000AE3B2708AF3B2808B03B2908B13B2A0825
:100F6000B23BAA36A90CA80CA70CA60CA50CA40C85
:100F7000A30C0130B402031DBE2FBF2F7F2F3508F5
:100F80000319C32FC42FE22FAB09AC09AD09AE0979
:100F9000AF09B009B109B209AB0A031DE22FAC0ACF
:100FA000031DE22FAD0A031DE22FAE0A031DE22F3F
:100FB000AF0A031DE22FB00A031DE22FB10A031D81
:100FC000E22FB20A20002B08A3002C08A4002D0851
:100FD000A5002E08A6002F08A7003008A800310899
:100FE000A9003208AA00080022008D1268302000F3
:100FF000A300E430890BFA2FA30BFA2F000008009E
:1010000020008D190428052800288D1D082809288E
:101010000528D0302000A300C930890B0D28A30B70
:101020000D28003208002100B701732820000F1995
:101030001A281B283028DC302100AD00A130AE007A
:101040009931762188312100B701B70A300886002E
:10105000310887008101320886003308870081014A
:1010600020006A0803193528362873289E312F2658
:1010700088312100B4003408B600632801007328C9
:10108000BF30AD00A230AE00993176218831210009
:101090003008860031088700810132088600330855
:1010A0008700810102302100B5000430B400BA305D
:1010B000890B5828B40B5828B50B5828000021007C
:1010C000B701B70A73283608B400B5013508003AED
:1010D00003196B2873283408303A03193E28043A60
:1010E0000319402873282100370803197828792824
:1010F000162808002000CA003F08D3004008D4008A
:101100004108D5004208D6004308D7004408D8005B
:101110004508D9004608DA005330860000308700C1
:10112000473FC700C71B95289728013098280030F3
:101130002000C800C9014808D1004908D200510860
:1011400052040319A428A528C328D309D409D50912
:10115000D609D709D809D909DA09D30A031DC32842
:10116000D40A031DC328D50A031DC328D60A031DAC
:10117000C328D70A031DC328D80A031DC328D90AC8
:10118000031DC328DA0A2100E21BC728C828CC287F
:10119000FD30E305FF30E4056208803A2000C70017
:1011A00080304702031DD728013021006102031857
:1011B000DA28DB28E12801302000CD000030CE0005
:1011C000E928210062082000CE00210061082000EB
:1011D000CD00230056082000D00023005508200031
:1011E000CF0051085204031DF628F728FC282100DF
:1011F000631DFB28FC280129FF302000CF07FF30AA
:10120000D03D1F302000DB000030DC002400E7016F
:101210007229FF302000DB07FF30DC3D0A30A300DD
:10122000A401A501A601A701A801A901AA015308CB
:10123000AB005408AC005508AD005608AE00570886
:10124000AF005808B0005908B1005A08B200873101
:101250000727883120002408B7002308B6009A31F8
:10126000A322883120003608303EC7005B08483E84
:1012700086000230870047088100FF30CD07FF302D
:10128000CE3DFF30CF07FF30D03D0A30A300A40190
:10129000A501A601A701A801A901AA015308AB0055
:1012A0005408AC005508AD005608AE005708AF0012
:1012B0005808B0005908B1005A08B2009431872488
:1012C000883120002308D3002408D4002508D50045
:1012D0002608D6002708D7002808D8002908D900F2
:1012E0002A08DA0020005C08803AC70080304702F4
:1012F000031D7C2901305B02031C7F298029AD2955
:101300002000530854045504560457045804590443
:101310005A04031D8C298D2909294E08803AC700DB
:1013200080304702031D962901304D020318992988
:101330009A29092920005008803AC70080304702C6
:10134000031DA42901304F02031CA729A829AD2998
:101350002100E318AC29AD290929200051085204C5
:10136000031DB329B429B9292100631DB829B9295E
:10137000D629FF302000DB07FF30DC3D5108520446
:10138000031DC329C429C9292B30CB000030CC0050
:10139000CD292D30CB000030CC004B08C7005B08B6
:1013A000483E8600023087004708810020005B0825
:1013B000483EC7004708B6005008B8004F08B700BD
:1013C0004A0892318122883120003708C00036084F
:1013D000BF0008002100B600B5019A2B20000F19AC
:1013E000F229F3290E2ABB302100AD00A030AE0057
:1013F0009931762189312100B501B50A3608860078
:1014000002308700810131088600023087008101A7
:1014100030088600023087008101810A20006A08B6
:101420000319132A142A9A2B9E312F268931210061
:10143000B2003208B4007B2B01004B302100AD001C
:10144000A630AE0099317621893121003608860018
:10145000023087008101810A30088600023087004F
:101460008101810A31088600023087008101023043
:101470002100B3000430B200BA30890B3D2AB20B10
:101480003D2AB30B3D2A00002100B501B50A9A2B75
:10149000A130AD00A030AE00993176218931E53020
:1014A0002000AE00A230AF002430B000A030B10068
:1014B0001B30B200A230B3002430B400A030B5001D
:1014C0009031D7208931210036088600023087000C
:1014D0008101810A02302100B3000430B200BA3029
:1014E000890B702AB20B702AB30B702A00002100FE
:1014F000B501B50A3008860002308700810122005C
:101500008C139A2B8530AD00A030AE009931762136
:101510008931E5302000AE00A230AF002430B000A9
:10152000A030B100D430B200A330B3002430B400F6
:10153000A030B5009031D7208931210036088600CF
:10154000023087008101810A30088600023087005E
:1015500081013108860002308700810102302100BC
:10156000B3000430B200BA30890BB42AB20BB42AEB
:10157000B30BB42A00002100B501B50A22008C1774
:101580009A2B6930AD00A030AE00993176218931B7
:10159000E5302000AE00A230AF002430B000A03013
:1015A000B100D030B200A330B3002430B400A0307A
:1015B000B5009031D72089312100360886000230ED
:1015C00087008101810A02302100B3000430B2009B
:1015D000BA30890BE92AB20BE92AB30BE92A0000D9
:1015E0002100B501B50A300886000230870081016C
:1015F00022008C139A2B0830AD00A130AE00993137
:1016000076218931E5302000AE00A230AF002430D1
:10161000B000A030B1009F30B200A530B30024303C
:10162000B400A030B5009031D720893121003608B0
:101630008600023087008101810A3008860002306E
:101640008700810131088600023087008101810A0C
:1016500002302100B3000430B200BA30890B2E2BC7
:10166000B20B2E2BB30B2E2B00002100B501B50AB7
:1016700022008C179A2B3A30AD00A130AE00993180
:1016800076218931E5302000AE00A230AF00243051
:10169000B000A030B1009B30B200A530B3002430C0
:1016A000B400A030B5009031D72089312100360830
:1016B0008600023087008101810A300886000230EE
:1016C0008700810131088600023087008101810A8C
:1016D00002302100B3000430B200BA30890B6E2B07
:1016E000B20B6E2BB30B6E2B00002100B501B50AB7
:1016F00022008C139A2B3408B200B3013308003A4D
:101700000319832B9A2B3208303A03191C2A013A09
:1017100003191D2A043A03193B2B033A0319482ADB
:10172000013A0319822A0F3A0319FB2A013A0319D5
:10173000C12A9A2B2100350803199F2BA02BEE29D3
:1017400008009831D4208B318B170B172500C90165
:10175000C801C701C601C60AB901B90ABA01BB016D
:10176000C101C201A731C3278B3120000E1CB92B48
:10177000BA2BBE2B2500C301C30AC02B2500C30111
:1017800020008E18C42BC52BC62BC62BE530B80005
:10179000A230B9002130BA00A630BB00E230BC0054
:1017A000A330BD002430BE00A030BF009A31042217
:1017B0008B313D302200C200E130C1003F30890B47
:1017C000DF2BC10BDF2BC20BDF2B0032E5302000FB
:1017D000B800A230B9002130BA00A630BB000630F4
:1017E000BC00A430BD00F530BE00A530BF009A316A
:1017F00004228B3103302200C2000830C100773050
:10180000890B002CC10B002CC20B002C22008C1366
:101810008D129C31F3248B312200C1004108250038
:10182000C2004208031D152C162C572CE530200051
:10183000B800A230B9002130BA00A630BB00F430A5
:10184000BC00A330BD000430BE00A630BF009A31FA
:1018500004228B31013098314E208B310130983188
:101860005B208B310130983168208B319A31BF2257
:101870008B3129302200C2009630C1007F30890BA5
:101880003F2CC10B3F2CC20B3F2C0100572CC93001
:101890002200C10041082100B000C6302200C20071
:1018A00042082100B100C7308931EA218B3125007F
:1018B000490803195C2C5D2C472C9C312B248B315F
:1018C00001302000A3000030A4009E315E268B3141
:1018D00003302200C2000830C1007730890B6E2C23
:1018E000C10B6E2CC20B6E2C2500C601C901C90AA2
:1018F000003098314E208B31003098315B208B3195
:101900000130983168208B3103302200C20008304A
:10191000C1007730890B8A2CC10B8A2CC20B8A2C10
:10192000B1302000B800A530B9003B30BA00A53076
:10193000BB002430BC00A030BD002430BE00A0306D
:10194000BF009A3104228B310130983175208B31E0
:101950000130983182208B310B302200C2002630BA
:10196000C1005D30890BB22CC10BB22CC20BB22C62
:1019700000320130A731F3278B3129302200C20019
:101980009630C1007F30890BC32CC10BC32CC20B16
:10199000C32C01309B319D238B31003A0319D12C8C
:1019A000D22CED2C01309B31C0238B31003A03192E
:1019B000DA2CDB2CED2C01309B31E3238B31003A08
:1019C0000319E32CE42CED2C0C302100AD00A830E1
:1019D000AE00993176218B311B2D2500C9010030D5
:1019E000983175208B310030983182208B31B130A5
:1019F0002100B000A530B100C930B2000230B30000
:101A0000C830B4000230B5009231DD228B31C730CE
:101A10002100B8000230B900C930BA000230BB0062
:101A2000C830BC000230BD00C630BE000230BF006E
:101A30009131D1218B310B302200C2002630C10000
:101A40005D30890B212DC10B212DC20B212D0032C0
:101A50000030983175208B310030983182208B31E5
:101A6000250049080319352D362DA92DF330200006
:101A7000B800A830B9001830BA00A430BB00243038
:101A8000BC00A030BD002430BE00A030BF009A31A1
:101A900004228B310030983175208B310030983121
:101AA00082208B310B302200C2002630C1005D3015
:101AB000890B582DC10B582DC20B582D0032013007
:101AC0009B319D238B31003A031D672D682D832D9B
:101AD00001309B31C0238B31003A031D702D712DD5
:101AE000832D01309B31E3238B31003A031D792D87
:101AF0007A2D832D18302100AD00A830AE00993129
:101B000076218B31A92D2500C901F3302100B000C9
:101B1000A830B100C930B2000230B300C830B40000
:101B20000230B5009231DD228B31C7302100B80080
:101B30000230B900C930BA000230BB00C830BC0066
:101B40000230BD00C630BE000230BF009131D1214D
:101B50008B31250049080319AF2D8D31B12D8E3100
:101B6000252E03302000B800A930B900B930BA00E2
:101B7000A530BB002430BC00A030BD002430BE0026
:101B8000A030BF009A3104228D3101309831752088
:101B90008D3106302200C2001330C100AD30890BF8
:101BA000CF2DC10BCF2DC20BCF2D0032003098317D
:101BB00075208D31250043080319DF2DE02D252EDA
:101BC0004A302100AD00A030AE00993176218D3130
:101BD000250047089331F2238D312200C1004108CE
:101BE0002500C8004808031DF62DF72D1D2EC9013C
:101BF00003302100B000A930B100C930B20002307A
:101C0000B300C830B4000230B5009231DD228D310E
:101C1000C7302100B8000230B900C930BA00023024
:101C2000BB00C830BC000230BD00C630BE00023070
:101C3000BF009131D1218D31252E24302100AD00FE
:101C4000A830AE00993176218D312500490803195D
:101C50002A2E2B2E962E0B302000B800A930B9006A
:101C6000D730BA00A530BB002430BC00A030BD0086
:101C70002430BE00A030BF009A3104228D310130E3
:101C8000983175208D3106302200C2001330C1001A
:101C9000AD30890B492EC10B492EC20B492E0032A3
:101CA0000030983175208D31250043080319592ED5
:101CB0005A2E962E47089331F2238D312200C1000F
:101CC00041082500C8004808031D672E682E8E2E87
:101CD000C9010B302100B000A930B100C930B200F9
:101CE0000230B300C830B4000230B5009231DD22BA
:101CF0008D31C7302100B8000230B900C930BA00B8
:101D00000230BB00C830BC000230BD00C630BE008F
:101D10000230BF009131D1218D31962E303021001B
:101D2000AD00A830AE00993176218D3125004908EB
:101D300003199B2E9C2E072F13302000B800A930CA
:101D4000B900C830BA00A530BB002430BC00A030B8
:101D5000BD002430BE00A030BF009A3104228D3176
:101D60000130983175208D3106302200C2001330C9
:101D7000C100AD30890BBA2EC10BBA2EC20BBA2EE0
:101D800000320030983175208D3125004308031949
:101D9000CA2ECB2E072F47089331F2238D31220014
:101DA000C10041082500C8004808031DD82ED92EBF
:101DB000FF2EC90113302100B000A930B100C93095
:101DC000B2000230B300C830B4000230B500923126
:101DD000DD228D31C7302100B8000230B900C93092
:101DE000BA000230BB00C830BC000230BD00C630B3
:101DF000BE000230BF009131D1218D31072F3C3020
:101E00002100AD00A830AE00993176218D3125003A
:101E1000490803190C2F0D2F7B2F1B302000B80011
:101E2000A930B9008F30BA00A830BB002430BC0004
:101E3000A030BD002430BE00A030BF009A31042283
:101E40008D310130983175208D310B302200C20068
:101E50002630C1005D30890B2B2FC10B2B2FC20BFD
:101E60002B2F00320030983175208D310B3022003D
:101E7000C2002630C1005D30890B3C2FC10B3C2FC6
:101E8000C20B3C2F003201309B319D238D31003A33
:101E900003194B2F4C2F552F48302100AD00A8308F
:101EA000AE00993176218D317B2F2500C9011B3081
:101EB0002100B000A930B100C930B2000230B30037
:101EC000C830B4000230B5009231DD228D31C73008
:101ED0002100B8000230B900C930BA000230BB009E
:101EE000C830BC000230BD00C630BE000230BF00AA
:101EF0009131D1218D31250049080319802F812F7F
:101F0000F82F23302000B800A930B9009730BA006C
:101F1000A230BB002430BC00A030BD002430BE0085
:101F2000A030BF009A3104228D31013098317520E4
:101F30008D310B302200C2002630C1005D30890B8C
:101F40009F2FC10B9F2FC20B9F2F00320030983163
:101F500075208D310B302200C2002630C1005D306B
:101F6000890BB02FC10BB02FC20BB02F0032003045
:101F70009B319D238D31003A0319BF2FC02FD22FE3
:101F800001309B31C0238D31003A0319C82FC92F6E
:101F9000D22F54302100AD00A830AE009931762107
:101FA0008D31F82F2500C90123302100B000A93060
:101FB000B100C930B2000230B300C830B400023002
:101FC000B5009231DD228D31C7302100B8000230DA
:101FD000B900C930BA000230BB00C830BC000230C2
:101FE000BD00C630BE000230BF009131D1218D311D
:101FF000250049080319FE2F8031912881310829D5
:102000000130080020006C08BD3E860001308700CA
:10201000810123001D1D0D280E281B2820006C089F
:10202000BD3E8600013087008114220048088A00E6
:1020300047080A00903123009D1C1F2820282D28C6
:1020400020006C08BD3E860001308700011522008B
:1020500046088A0045080A00903120006C08BD3E01
:1020600086000130870001080319372838283F28E7
:10207000230058088A0057080A00903142289A31F4
:102080003722903108002000A801A9012000AA01F0
:10209000AB019D311D2590310B302000A70026306B
:1020A000A6005D30890B5228A60B5228A70B522898
:1020B000003201302000AA070030AB3D2B08803AE7
:1020C000A60080302602031D672804302A02031C64
:1020D0006A286B2849280B302000A7002630A6006C
:1020E0005D30890B7128A60B7128A70B712800326F
:1020F00001302000A8070030A93D2908803AA60039
:1021000080302602031D862804302802031C8928FB
:102110008A284628080021003408860035088700F0
:102120000108031D942895289C28DC30AD00A130BF
:10213000AE009931762190312100300886003108B7
:102140008700810132088600330887008101340846
:102150008600350887008101360886003708870029
:1021600001308100003098314E209031003098319C
:102170005B20903100309831682090310030A731D9
:10218000F32790310030983175209031003098312C
:1021900082209031003098318F209031003098317A
:1021A0009C20903122008C138D120D110800A73154
:1021B000BA27903106309931D32190310230200076
:1021C000B7000430B600BA30890BE428B60BE42817
:1021D000B70BE42800002000A901A90A01309E31B4
:1021E0000026903120002F08AA002E08A9009B315C
:1021F0001A2390312000A901A90A02309E3100263D
:10220000903120003108AA003008A9009B311A2320
:1022100090312000A901A90A03309E310026903197
:1022200020003308AA003208A9009B311A239031FC
:102230002000A901A90A04309E3100269031200017
:102240003508AA003408A9009B311A2390310800F0
:102250002000280803192D292E2933292808031DB9
:102260003229332938292608A7316D279131792958
:102270002808033E8600870116000104031941293E
:1022800042295F292808033E86008701403FA900B4
:10229000413FAA00280A86008701403FAB00413F2A
:1022A000AC002C08803AAD002A08803A2D02031DAC
:1022B0005B2929082B0203185E295F297929200050
:1022C0002608A900280886008701280A84008501BD
:1022D00000080107AA002A088600023087002908A2
:1022E0008100280A860087010130810741310318E7
:1022F000810A0800A73148279131003A0319812942
:102300008229B3298F29A73120279131D029A731DC
:1023100025279131D029A7312F279131D0292300AA
:102320002F08FA007A08F9000630A03E8600013036
:102330008700413F8A00403F0A009131FB00FC01C9
:102340007C08003A0319A5298B297B08013A031957
:102350008B29033A03198329013A03198729073A7C
:1023600003198B298B2923003C101730A03E8600CF
:1023700001308700403F84008501810A0008A731B1
:102380001627913101302300B8020030B93B3808DC
:102390003904031DCC29CD29CF290630D02903309B
:1023A0000800210038088600390887000108C000AD
:1023B000C1014008B0004108B1003A0886003B085E
:1023C00087000108C200C3014208B2004308B300FD
:1023D00088311320913121003A0886003B0887009C
:1023E0000108C000C1014008B0004108B1003C082C
:1023F00086003D0887000108C200C3014208B20000
:102400004308B30038088600390887000108C40073
:10241000C5014408B4004508B5003E0886003F08E1
:1024200087000108C600C7014608B6004708B70084
:1024300090318B20913129302100C1009630C000AD
:102440007F30890B212AC00B212AC10B212A0800C9
:1024500000302000A7000030A6000030A5000030AA
:10246000A4004B2A0130A4070030A53D0030A63D52
:102470000030A73DA71B482A2708031D492A013021
:1024800024020930253B3D30263B031C482A492ABB
:102490004B2A0030802A20008D194F2A502A322AD8
:1024A0000030A7000030A6000030A5000030A400D6
:1024B000712A0130A4070030A53D0030A63D003050
:1024C000A73DA71B6F2A2708031D702A013024028D
:1024D0000930253B3D30263B031C6F2A702A712AA8
:1024E000492A20008D1D752A762A592AD0302000CD
:1024F000A300C930890B7A2AA30B7A2A0032013053
:1025000008002000BE002100631C872A882A912A27
:1025100020003E08B9003908AE0036089C31A024DE
:1025200092312000B81B952A962A9B2A3808BD00B4
:102530003708BC009D2ABC01BD01BA01BB01B12A0C
:1025400020302000A6000030A7003E08B90039085E
:10255000A80091312821923101302000BA070030C3
:10256000BB3D3B08803AB9003D08803A3902031D63
:10257000BB2A3C083A02031CBE2ABF2AA02A21001B
:102580006318C32AC42ACD2A20003E08B90039089E
:10259000AE0036089C31A024923120003608A300FA
:1025A0000230A4009A311D22923120003C082307FA
:1025B000B6003D08243DB7000800343086000230E4
:1025C0008700C13084000030850014302100B6003F
:1025D00016001A00B60BE82AE530860001308700A5
:1025E000B7308400003085000A30B60016001A00AB
:1025F000B60BF62A013098315B20923101309831C8
:1026000068209231003098314E2092310030A7314D
:10261000F3279231210031082000AF00210030085B
:102620002000AE00BE30B000A330B1005A30B2007E
:10263000A230B3002430B400A030B5009031D720D0
:102640009231C1302000B3000030B40021003108C5
:102650002000B600210030082000B50099318C21FF
:102660009231200034082100D600200033082100D8
:10267000D50056082000B400210055082000B30002
:10268000B730B5000030B60099318C21923120006E
:1026900034082100AE00200033082100AD0099313C
:1026A0007621923190314320923120000F1D592B19
:1026B0005A2B552B210032088600330887008101F0
:1026C0003408860035088700810108002000AB002F
:1026D0002B08A90029082100E900003099314C217C
:1026E00093319C302000A900D730890B752BA90BA2
:1026F000752B03309931D32193311A302000A90072
:10270000F830890B812BA90B812B00000330993104
:10271000D32193311A302000A900F830890B8E2B79
:10272000A90B8E2B000003309931D32193311A303D
:102730002000A900F830890B9B2BA90B9B2B0000D4
:1027400002309931D32193311A302000A900F8309A
:10275000890BA82BA90BA82B000028309931D32175
:10276000933102302000AA000430A900BA30890B4E
:10277000B72BA90BB72BAA0BB72B00000C30993144
:10278000D321933102302000AA000430A900BA30CE
:10279000890BC82BA90BC82BAA0BC82B0000013032
:1027A0009931D321933102302000AA000430A900CE
:1027B000BA30890BD92BA90BD92BAA0BD92B000026
:1027C00006309931D321933102302000AA00043021
:1027D000A900BA30890BEA2BA90BEA2BAA0BEA2B2A
:1027E000000008002000A800A901AA012808031978
:1027F000FA2BFB2B5E2C582C6A080319002C012C99
:10280000582C9E312F2693312000A5002508A700C3
:10281000422C010002302000A6000430A500BA308E
:10282000890B102CA50B102CA60B102C00002000DF
:10283000A901A90AAA01AA0A582C02302000A60060
:102840000430A500BA30890B232CA50B232CA60B32
:10285000232C00002000A9011A2C02302000A60021
:102860000430A500BA30890B332CA50B332CA60BF2
:10287000332C00002000A901A90AAA01AA0A2200FB
:102880008C13582C2708A500A6012608003A031926
:102890004A2C582C2508303A0319092C023A0319FE
:1028A0000A2C013A03191D2C0A3A03192D2C582C15
:1028B00020002A0803195D2C5E2CFC2B2808031D20
:1028C000622C632C852C7F2C01309A31522293315B
:1028D000003A03196C2C6D2C712C2000A901AA015F
:1028E000AA0A01309A316D229331003A0319792CEA
:1028F0007A2C7F2C2000A901A90AAA01AA0A20008B
:102900002A080319842C852C642C2908080020002F
:10291000B5012330860000308700473FB300B31F66
:10292000922C932CB52C2000A309A409A509A60973
:10293000A709A809A909AA09A30A031DB22CA40A78
:10294000031DB22CA50A031DB22CA60A031DB22C2E
:10295000A70A031DB22CA80A031DB22CA90A031D45
:10296000B22CAA0A2000B501B50A2B30860000302F
:102970008700473F2000B300B31FBF2CC02CE42CBE
:102980002000AB09AC09AD09AE09AF09B009B10926
:10299000B209AB0A031DDF2CAC0A031DDF2CAD0A04
:1029A000031DDF2CAE0A031DDF2CAF0A031DDF2C35
:1029B000B00A031DDF2CB10A031DDF2CB20A01305F
:1029C0002000B3003308B50636308600003087009B
:1029D00008302000B30000301E00B30BEC2C23089D
:1029E0002404250426042704280429042A0403199E
:1029F000FA2CFB2C572DB401B40A0A2DA335A40DD3
:102A0000A50DA60DA70DA80DA90DAA0D0130B300A7
:102A10003308B407AA1F0D2D0E2DFE2CB635B70DA9
:102A2000B80DB90DBA0DBB0DBC0DBD0D2A08320293
:102A3000031D342D29083102031D342D28083002CE
:102A4000031D342D27082F02031D342D26082E02C6
:102A5000031D342D25082D02031D342D24082C02BE
:102A6000031D342D23082B02031C372D382D492D2F
:102A70002308AB022408AC3B2508AD3B2608AE3B3F
:102A80002708AF3B2808B03B2908B13B2A08B23BD6
:102A90003614AA36A90CA80CA70CA60CA50CA40CDD
:102AA000A30C0130B402031D562D572D0E2D3508F1
:102AB00003195B2D5C2D7A2DB609B709B809B90940
:102AC000BA09BB09BC09BD09B60A031D7A2DB70AAC
:102AD000031D7A2DB80A031D7A2DB90A031D7A2D1C
:102AE000BA0A031D7A2DBB0A031D7A2DBC0A031DE9
:102AF0007A2DBD0A20003608A3003708A400380844
:102B0000A5003908A6003A08A7003B08A8003C0821
:102B1000A9003D08AA0008002100A90020005D08C6
:102B200086008701403FDF00413FE0005F088400EE
:102B3000600885001200253A031D9F2DA02D882EC8
:102B40005D08860087010130810741310318810A41
:102B50002300D501D6012100E301E401FF30E100AB
:102B6000FF30E20020005D0886008701403FDF0063
:102B7000413FE0005F088400600885001200643A6D
:102B80000319C32DC42DD52D5D0886008701403F54
:102B9000DF00413FE0005F0884006008850012000C
:102BA000693A031DD42DD52D232E5D08860087019B
:102BB0000130810741310318810A5E0886008701D0
:102BC00001088400850102308107003FDF00013FDA
:102BD000E0005F082100A000200060082100A100A3
:102BE000890D893B8909A200A300A400A500A600C5
:102BF000A70020082000BF00210021082000C000FD
:102C0000210022082000C100210023082000C2006A
:102C1000210024082000C300210025082000C40052
:102C2000210026082000C500210027082000C6003A
:102C30002100290888317A20953120004008DE00E3
:102C40003F08DD00AD2E5D0886008701403FDF00B4
:102C5000413FE0005F0884006008850012006E3A82
:102C6000031D332E342E532E5D088600870101305C
:102C7000810741310318810A5E0886008701403FC1
:102C800084008501810A0008DF005F082100A80098
:102C90002808860087015F08C03F6008C13F200008
:102CA000DD01DE01AD2E5D0886008701403FDF00BB
:102CB000413FE0005F088400600885001200253A6B
:102CC000031D632E642E7F2E5D0886008701013070
:102CD000810741310318810A2530A6000030A70082
:102CE000210029082000DF005F08A8009131282179
:102CF000953101302000DD000030DE00AD2E5D0892
:102D0000860087010130810741310318810A4F2E67
:102D10005D0886008701403FDF00413FE0005F081B
:102D20008400600885000008E100E2016108A60057
:102D30006208A700210029082000E3006308A8001A
:102D400091312821953120005D08860087010130EE
:102D5000810741310318810A792E0800203086004E
:102D6000023087002A3084000130850014302100B1
:102D7000DD0016001A00DD0BB92EDB3086000130B5
:102D8000870020308400013085000A30DD00160005
:102D90001A00DD0BC72E013098315B2096310130CF
:102DA000983168209631003098314E2096312100BC
:102DB00058082000AF00210057082000AE00BE30A8
:102DC000B000A330B1009A30B200A330B30030306D
:102DD000B400A230B5009031D72096312A302000BF
:102DE000B3000130B400210058082000B6002100D3
:102DF00057082000B50099318C2196312000340805
:102E00002200BF00200033082200BE003F0820003F
:102E1000B40022003E082000B3002030B50001308D
:102E2000B60099318C219631200034082100AE0083
:102E3000200033082100AD00993176219631903180
:102E40004320963121005B0886000230870001088C
:102E50009331F22396312100DD005D082200C0008D
:102E60000B302100DE002630DD005D30890B362F6F
:102E7000DD0B362FDE0B362F0032220040080319FF
:102E8000422F432F772F21005908860002308700F8
:102E900081015A088600023087008101D03020006D
:102EA000AE00A830AF00C330B000A330B100AC30EA
:102EB000B200A330B3005A30B400A230B500903154
:102EC000D7209631DB302100B8000030B900D9306E
:102ED000BA000030BB00DA30BC000030BD00DC308E
:102EE000BE000030BF009131D1219631FF2FD0308C
:102EF0002000AE00A830AF00EB30B000A830B10029
:102F00002430B200A030B3002430B400A030B500AB
:102F10009031D7209631003098315B2096310130C6
:102F2000983168209631003098314E20963101302A
:102F300098318F20963119302100DE005A30DD00A3
:102F4000B130890BA12FDD0BA12FDE0BA12F003299
:102F5000003098318F20963115302100DE004B3043
:102F6000DD00BE30890BB22FDD0BB22FDE0BB22F8E
:102F7000000001309B319D239631003A0319C12F87
:102F8000C22FE92F01309B31C0239631003A03193B
:102F9000CA2FCB2FE92F01309B31E3239631003A22
:102FA0000319D32FD42FE92FD0302000AE00A83042
:102FB000AF00EB30B000A830B1007D30B200A530DA
:102FC000B300EF30B400A430B5009031D720963173
:102FD000FF2F210059088600023087008101D03080
:102FE000B000A830B100D930B2000030B300DA3000
:102FF000B4000030B5009231DD229631622F080016
:103000001B34273484342734743427347A3411340D
:1030100072341F3466342734D1341D3420342734BD
:10302000253427342A3427342F34273434342734B2
:10303000393427343E3427344334273449341D345B
:103040002D343E34203454344534533454342034F5
:1030500043344F344E3446344F3452344D34453477
:1030600020342D34203441345434543445344E34D7
:103070005434453420344134433451345534493484
:103080005434543445344D3445344E3454340D3472
:103090000A34003416302100970008002000A300F5
:1030A00023080319542855285828220010145A2898
:1030B0002200101008002000A30023080319612833
:1030C00062286528220090146728220090100800CA
:1030D0002000A300230803196E286F2872282200FD
:1030E000101574282200101108002000A3002308E6
:1030F00003197B287C287F2822008C148128220039
:103100008C1008002000A3002308031988288928B0
:103110008C2822000C158E2822000C11080020009B
:10312000A3002308031995289628992822000C1635
:103130009B2822000C1208002000A300230803197A
:10314000A228A328A62822008C16A82822008C12C8
:1031500008002000A30023080319AF28B028B328D3
:1031600022008C15B52822008C11080022008D1237
:1031700068302000A300E430890BBC28A30BBC28D6
:10318000000022008D160800F3002300BC1DC92892
:10319000CA28D3287308F2007208B7007108B90072
:1031A0007008B800BC1108009A31DC229831A731B0
:1031B000CE27983198314A209831A7317C27983111
:1031C0009F31B827983108002000A300A731DA27E3
:1031D000983120002308240091002000911DF1283F
:1031E000F228ED28911108000230F0000030F100C3
:1031F00079089831C42098310030F500F600F701C5
:10320000A731E6279831043008000130F000003083
:10321000F10079089831C42099310030F500F600AA
:10322000F701A731E6279931023008000230F0009B
:103230000030F10079089831C42099310030F50050
:10324000F600F701A731E627993102300800013076
:10325000F0000030F10079089831C4209931003035
:10326000F500F600F701A731E62799310430080090
:103270000D340A3400340034003400340034003497
:10328000003400340D340A34003400340034003487
:1032900000340034003400342000A400A7314E274D
:1032A0009931210069089831E420993120002408DF
:1032B00021006E049831E4209931A73154279931C7
:1032C00008009A31BF2299313D302000AB00E13037
:1032D000AA003F30890B6A29AA0B6A29AB0B6A291D
:1032E00000329C312B24993101000800AF302000BE
:1032F000E90069082100AF002E082000E500210048
:103300002D082000E400AF30E9006908E600003035
:103310009E318E269931080020003408A40033081D
:10332000A3009A311D229931200023083307A700FA
:103330002408343DA8003608AA003508A9009C31AD
:10334000512499310800790886008701403FF00038
:10335000413FF1007908023E86008701010898315B
:10336000C42099310030F500F600F701A731E627B7
:103370009931023008002000A60021006A082000D0
:10338000A5002508A6042608043899314C21993156
:1033900020002608FB3999314C2199314230890BA4
:1033A000CF29003208002000A8002100EA012000F7
:1033B0002808F0399931BB21993120002808A7004D
:1033C0000330A735FF3E031DE1292735F039993138
:1033D000BB21993108002000A8002100EA01EA0A77
:1033E00020002808F0399931BB21993120002808A4
:1033F000A7000330A735FF3E031DFA292735F03912
:103400009931BB21993108004E30933166239A31AE
:1034100020003908AF003808AE003B08B1003A0878
:10342000B0003D08B3003C08B2003F08B5003E08BC
:10343000B4009031D7209A31080020002408A6005B
:103440002308A500272A0130A3070030A43D230844
:103450008600240887000108031D2F2A302A232A0A
:1034600025082302A3002608243BA400080023000B
:103470001908F00020006C08C53E86000130870066
:10348000700881000130F0007008EC0708306C0211
:10349000031C4B2A4C2A4D2AEC010130F000700825
:1034A000EA0708002000A400A30124080319592AF0
:1034B0005A2A602A8F1B5D2A5E2A602AA301A30A6A
:1034C0002408031D642A652A6B2A8F1F682A692A2B
:1034D0006B2AA301A30A230808002000A400A3016B
:1034E00024080319742A752A7B2A0F19782A792A45
:1034F0007B2AA301A30A2408031D7F2A802A862A87
:103500000F1D832A842A862AA301A30A2308080000
:103510002000A300230A8600023087004230010603
:10352000031D932A942AA12A2308023E8600023012
:10353000870058300106031D9E2A9F2AA12A0130C8
:10354000A22A0030080020003708803AB8008030F6
:103550003802031DAD2A013036020318B02AB12A01
:10356000BE2A20003609B8003709B900B80A031985
:10357000B90A3808B6003908B700BE2A0800013079
:1035800098314E209A31013098315B209A310130C8
:10359000983168209A3122000D1566302000A50070
:1035A0007630A400C130890BD32AA40BD32AA50BF3
:1035B000D32A22000D110800220090018F018C01F6
:1035C0008D018E010830210090008C01CB308D00E0
:1035D000BF308E00FF308F0023008F0133308D000D
:1035E00090013C308C00240090018D012100951742
:1035F00022009D01080022000C1706302000A400C4
:103600001330A300AD30890B032BA30B032BA40BAA
:10361000032B003222000C1306302000A4001330CC
:10362000A300AD30890B122BA30B122BA40B122B72
:10363000003208002000AC01AD012D2B29082C0719
:1036400084002A082D3D850000089931EB219B312B
:1036500001302000AC070030AD3D29082C07840064
:103660002A082D3D85001200031D372B382B1E2BF9
:1036700008002000A6002608A500A50DA50D210024
:103680001D08200025068339250621009D001D14F4
:103690000D30890B492B000021009D149D18512BE2
:1036A000522B4E2B1C082000A40021001B082000D8
:1036B000A300080020302100AD009830AE00993101
:1036C00076219B312100B101B2019C312B249B3129
:1036D00001302100B1070030B23D3208803AB0001D
:1036E00080303002031D762B02303102031C792B0F
:1036F0007A2B652B0800083021006C020318812BFF
:10370000822B9B2B6D08CD3E86000130870001087F
:1037100023009A000130F00070082100ED07083006
:103720006D02031C942B952B962BED010130F000BC
:103730007008EC079C2B111208002000A400A301C4
:1037400024080319A42BA52BAF2B0F1CA82BA92BE6
:10375000AF2B8F18AC2BAD2BAF2BA301A30A2408E2
:10376000031DB32BB42BBE2B0F18B72BB82BBE2BBE
:103770008F1CBB2BBC2BBE2BA301A30A2308080064
:103780002000A400A30124080319C72BC82BD22BA7
:103790008F1DCB2BCC2BD22B0F1ACF2BD02BD22B78
:1037A000A301A30A2408031DD62BD72BE12B8F19C5
:1037B000DA2BDB2BE12B0F1EDE2BDF2BE12BA30102
:1037C000A30A230808002000A400A3012408031969
:1037D000EA2BEB2BF52B8F1EEE2BEF2BF52B0F1B74
:1037E000F22BF32BF52BA301A30A2408031DF92BBD
:1037F000FA2B042C8F1AFD2BFE2B042C0F1F012CEF
:10380000022C042CA301A30A230808002000A8000E
:1038100023032404031D0D2C0E2C192C0130A700AA
:10382000250A132CA735890B122C27082804A80079
:103830002A2C23082404031D1E2C1F2C2A2C0130A3
:10384000A700250A242CA735890B232C2708FF3A2B
:103850002805A80008002000A801A9019D311D2508
:103860009C310B302000A7002630A6005D30890B6C
:10387000372CA60B372CA70B372C00320130200039
:10388000A8070030A93D2908803AA600803026020A
:10389000031D4C2C02302802031C4F2C502C2E2CC4
:1038A000080020002A08B0002908AF002808B2004C
:1038B0002708B1003208AC003108AB00B10A031987
:1038C000B20A2B0886002C0887003008AE002F08AB
:1038D000AD00AF0A0319B00A2D0884002E08850038
:1038E0000008C03F8908031D762C772C5A2C08004D
:1038F0002D343E342034453452345234453455341A
:1039000052343A342034003400340034003400346B
:1039100000340034003400342D343E342034453437
:10392000523452344534553452343A34203400340D
:1039300000340034003400340034003400340034E7
:103940002000B500B301B401B82C3208AF00B001BB
:103950002F08A6003008A7002E08B1003108A800E3
:10396000913128219C3101302000B3070030B43D53
:1039700033083507AF002F088600023087000108A2
:10398000B0003008B2003208031DC72CC82CA52C8B
:103990000800F400700871040319CF2CD02CE32C1C
:1039A0007435A03E8600013087007008C03F710862
:1039B000C13F7208F3007408AC3E860001308700F6
:1039C00073088100F22C7435A03E86000130870018
:1039D0000030C03F1030C13F7408AC3E860001305B
:1039E00087008101080000302000A6000030A500FB
:1039F0000030A4000030A300162D0130A3070030D2
:103A0000A43D0030A53D0030A63DA61B132D260881
:103A1000031D142D013023020930243B3D30253B8A
:103A2000031C132D142D162D00301C2D20008D1D70
:103A30001A2D1B2DFD2C013008002000A401A5012A
:103A400022000D1606302000A3003030890B262DF1
:103A5000A30B262D000022000D1206302000A3002B
:103A60003030890B312DA30B312D000001302000A7
:103A7000A4070030A53D2508803AA300803023022A
:103A8000031D442D32302402031C472D482D202DC8
:103A9000080023003C100230FA007A08BB00582DC1
:103AA000A7312A279D31752DA7312F279D31752DDF
:103AB0002E08FA007A08F9000430A03E8600013092
:103AC0008700413F8A00403F0A009D31FB00FC0116
:103AD0007C08003A03196D2D542D7B08023A031916
:103AE000502D013A0319502D542D08002000A40038
:103AF00021006C0803197D2D7E2D782D111A812D42
:103B0000822D872D2000240823009A00A02D111259
:103B100020002408A3007D08CD3E860001308700E8
:103B2000230881000130A3002308FD0708307D022F
:103B3000031C9B2D9C2D9D2DFD0101302100EC02CD
:103B4000210011160800A631FF269D3123003C1CE0
:103B5000AA2DAB2DB92DA73148279D31003A031965
:103B6000B22DB32DB92D0F302000A0002008230066
:103B7000BA0023003A082000A000A101A035A10D41
:103B80000030200784009830213D8500013F8A00E5
:103B9000003F0A009D312000A20022082300BA0045
:103BA00008002300BC15E12DA7312A279D31FF2DE8
:103BB000A631FC269D310330FF2DA7312F279D31E3
:103BC000FF2D2C08FA007A08F90021088A00200845
:103BD0000A009D31FB00FC017C08003A0319F12D1D
:103BE000DD2D7B08013A0319DD2D033A0319D42D8D
:103BF000013A0319D42D073A0319D82DDD2D0800F9
:103C00002000AC001B2E2908BF3E9931D3219E31E4
:103C10002E2E2908933E9931D3219E312E2E29082C
:103C2000D33E9931D3219E312E2E29087F3E9931E2
:103C3000D3219E312E2E2C08AA00AB012B08003A6E
:103C40000319232E152E2A08023A0319032E013ACE
:103C50000319092E073A03190F2E152E080020000C
:103C60006A080319342E352E2F2E6B08BD3E8600B0
:103C7000013087000108A30023082100EB00200089
:103C80006B08C53E8600013087000108A3002308A9
:103C9000A4000130A3002308EB0708306B02031CCB
:103CA000522E532E542EEB01210091120130200090
:103CB000EA02210091162000240808002000A60135
:103CC000A7017D2E22008D1668302000A500E4306B
:103CD000890B682EA50B682E000022008D1268301B
:103CE0002000A500E430890B732EA50B732E000075
:103CF00001302000A6070030A73D2708803AA50024
:103D00002408803A2502031D872E23082602031C5F
:103D10008A2E8B2E622E22008D1208002100AA000E
:103D2000200065082100AC00200064082100AB00E1
:103D3000DF01E001B12EAB302000E7006708DD00B5
:103D40006608E8006808DE0021002A0895318C2505
:103D50009E3120005D082100DF0720005E08210061
:103D6000E03D2B0884002C0885001200031DB92EAD
:103D7000BA2E9B2E60082000E50021005F0820007D
:103D8000E40008002000AE010730AF000030B000B2
:103D90009831B6209E3134302000A900F130890BD3
:103DA000CF2EA90BCF2E003220000D0CA900A90C9C
:103DB000290C0139AA00AB012A08AC002B08AD0080
:103DC0002D08A4002C08A3003008A6002F08A50089
:103DD0002E089C3106249E312000A9002908AE003F
:103DE000FF30AF07FF30B03DB01FF72EF82EC82EC2
:103DF0002E0808002100B400AF302000E900690857
:103E00002100B30034082000E90069082100B50052
:103E1000B601B701B801B9012E082000E500210064
:103E20002D082000E400B330E9006908E600B53051
:103E30009E318E269E31200065082100B2002000B0
:103E400064082100B100360834072000E900690841
:103E5000860002308700810121003208AE0031085F
:103E6000AD0008002000B500B301B4019E31C226A8
:103E70009F312000B10033083507B20032088600B8
:103E800002308700310881000130B3070030B43DB3
:103E90003408803AB10080303102031D512F1430B4
:103EA0003302031C542F552F362F2000350886006F
:103EB0000230870023300106031D5F2F602F682F1B
:103EC0002030B100350886000230870031088100BB
:103ED0003508133E86000230870081018731F427C0
:103EE0009F310800A631F9269F31FA0023003708D8
:103EF000860087017A0881000130FA007A08B70746
:103F00000130B8020030B93B380839040319892F51
:103F10008A2F8F2FA7310E279F310530B72FBC1561
:103F2000992FA7313E279F31B72FA73139279F31CE
:103F3000B72F2C08FA007A08F90021088A00200817
:103F40000A009F31FB00FC017C08003A0319A92FED
:103F5000952F7B08013A0319952F033A0319912FE6
:103F6000013A0319912F073A0319952F952F08004D
:103F70002100911202302000A3001030A400A731CC
:103F8000A8279F31210011127B302000A3001B3095
:103F9000A400A731B1279F31083023009F00903043
:103FA0009D0024309E0040309B0003309C00EE308A
:103FB0002000A3002630A400A73196279F310630A9
:103FC0002000A3002730A400A7319F279F31023093
:103FD0002000A3002730A400A7318D279F312100A6
:103FE000EB01FD01ED0108302000A50025082100AE
:103FF000EC002000EC01EB01EA0121009116080021
:104000002D343E342034503452344F3447345234FB
:1040100041344D344D344134543449344F344E34AA
:1040200020344D344F34443455344C3445342034EA
:10403000313420345434453452344D3449344E34C0
:10404000453445340D340A3400342D343E342034A4
:10405000503452344F344734523441344D344D345B
:104060004134543449344F344E3420344D344F3479
:10407000443455344C3445342034323420345434B0
:10408000453452344D3449344E34453445340D347E
:104090000A34003441347434743465346E34743406
:1040A00065342034763461346C346934643461347A
:1040B000743469346F346E3420346C346534643451
:1040C000203472346F347534673465340D340A34F7
:1040D00000342D343E342034503452344F3447347D
:1040E000523441344D344D344134543449344F34D6
:1040F0004E3420345434453452344D3449344E34E3
:10410000453445340D340A3400342D343E342034E3
:10411000503452344F344734523441344D344D349A
:104120004134543449344F344E34203445344E34C1
:10413000203443344F345534523453340D340A341C
:1041400000342D343E342034453452345234453416
:10415000553452342034503452344F34473452346E
:1041600041344D344D344134543449344F344E3459
:104170000D340A3400342D343E3420345434453464
:104180005334543420344D3441344E345534453452
:104190004C34203445344E34203443344F34553479
:1041A000523453340D340A340034413454345434CA
:1041B00045344E34543445342034563441344C3430
:1041C000493444344134543449344F344E34203427
:1041D0004C344534443453340D340A3400342D34D3
:1041E0003E34203453344C34413456344534203436
:1041F00052344534533450344F344E3453344534B0
:1042000020344E3455344C344C340D340A3400349C
:104210002D343E342034453446344634413443341E
:1042200045344D3445344E345434203445344E34C2
:10423000203443344F345534523453340D340A341B
:1042400000342D343E34203453344C34413456340D
:104250004534203445344E344434203450345234C0
:104260004F34473420344B34383420344F344634C0
:10427000463400342D343E342034453446344634FC
:104280004134433445344D3445344E345434203471
:104290005434453452344D3449344E3445340D345D
:1042A0000A3400342D343E34203453344C344134F9
:1042B000563445345F345434453453345434203404
:1042C00047344534543420344134433451340D346C
:1042D0000A3400342D343E34203453344C344134C9
:1042E000563445345F3454344534533454342034D4
:1042F00047344534543420344F344B340D340A346D
:1043000000342D343E34203453344C34413456344C
:1043100045345F34543445345334543420344734B2
:104320004534543420344B344F340D340A34003483
:104330002D343E34203453344C34413456344534D7
:1043400020345434453453345434203443344F34BB
:104350004E3446344F3452344D34453400342D34C9
:104360003E34203453344C344134563445342034B4
:104370005434453453345434203441344334513468
:104380005534493454345434453400342D343E3497
:10439000203453344C344134563445345F34503433
:1043A00052344F344734203453345434413452342B
:1043B00054340D340A3400342D343E342034463421
:1043C00049344E3420345434453453345434203436
:1043D0004D3441344E34553445344C340D340A3464
:1043E00000342D343E34203453344C34413456346C
:1043F0004534203445344E3420344134543454341C
:1044000045344E34543445343A3400342D343E343B
:10441000203453344C344134563445345F345434AE
:1044200045345334543420344734453454342034E0
:104430004F344B34003445345234523445345534BF
:1044400052342034503452344F344734523441348F
:104450004D344D344134543449344F344E340034A7
:104460005034523445345334533445345234203468
:104470004F344B3420344F34553420344534523487
:104480005234453455345234003441344334513479
:104490005534493453344934543449344F344E3408
:1044A000203445344E34203443344F345534523460
:1044B0005334003441345434543445344E34543439
:1044C0004534203441344334513455344934543420
:1044D000543445344D3445344E34543400342D3442
:1044E0003E3420344134703470347534793465345A
:1044F0007234203473347534723420344F344B3476
:104500000D340A3400342D343E34203453344C34CA
:104510004134563445342034503452344F344734C7
:1045200020344B34383420344F344E340034543437
:1045300045345334543420345234313420344F34DD
:104540004634463420342D3420345234323420342E
:104550004F344E34003454344534533454342034BE
:104560005234323420344F344634463420342D34DF
:1045700020345234333420344F344E3400342D340C
:104580003E3420345434453453345434203441348C
:1045900043345134553449345434543445340D344F
:1045A0000A3400342D343E34203453344C344134F6
:1045B000563445345F345434453453345434203401
:1045C0004F344E340D340A340034543445345334AB
:1045D0005434203443344134523454344534203438
:1045E000443439343234353445344434343400348A
:1045F0002D343E34203453344C3441345634453415
:1046000054344534533454343A34313430343A34F5
:10461000313400342D343E34203453344C3441345E
:104620005634453454344534533454343A343134A4
:1046300031343A34313400342D343E342034533460
:104640004C34413456344534543445345334543462
:104650003A34313432343A34313400342D343E3447
:10466000203453344C344134563445345434453476
:10467000533454343A34313433343A3431340034EA
:104680002D343E34203453344C3441345634453484
:1046900054344534533454343A34313434343A3461
:1046A000313400342D343E34203453344C344134CE
:1046B0005634453454344534533454343A34313414
:1046C00035343A34313400342D343E3420345334CC
:1046D0004C344134563445345434453453345434D2
:1046E0003A34313436343A34313400342D343E34B3
:1046F000203453344C3441345634453454344534E6
:10470000533454343A34313437343A343134003455
:104710002D343E34203453344C34413456344534F3
:1047200054344534533454343A34313438343A34CC
:1047300031340034563445345234493446344934E3
:1047400045345234203450343134203445345434D8
:1047500020345034323400345234453453345534D8
:104760004C34543441345434203443344F344E3474
:104770004634493452344D3445340034543445348D
:104780005334543420344E344F344E342034433474
:104790004F344E3446344F3452344D344534003463
:1047A000463449344E342034503452344F34473434
:1047B000523441344D344D344134543449344F34FF
:1047C0004E34003449344E3449345434493441343D
:1047D0004C34493453344134543449344F344E34D6
:1047E0002E342E342E34003444344534463441348F
:1047F0005534543420344D344F34443455344C34CF
:104800004534203442344C344534003450344F3431
:1048100053344934543449344F344E344E3445348F
:104820005234203443344134523454344534003407
:1048300054344534533454342034333420345234D3
:1048400045344C3441344934533420344F344634A5
:1048500046340034523445345034523445344E34A6
:1048600044345234453420344C34453420345434A8
:1048700045345334543400342D343E3420345334CE
:104880004C34413456344534543445345334543420
:104890003A3431343A34313400342D343E34203417
:1048A00053344C3441345634453454344534533401
:1048B00054343A3432343A34313400342D343E34C2
:1048C000203453344C344134563445345434453414
:1048D000533454343A3433343A34313400342D348C
:1048E0003E34203453344C344134563445345434FB
:1048F0004534533454343A3434343A343134003453
:104900002D343E34203453344C3441345634453401
:1049100054344534533454343A3435343A343134DD
:1049200000342D343E34203453344C344134563426
:10493000453454344534533454343A3436343A34A8
:10494000313400342D343E34203453344C3441342B
:104950005634453454344534533454343A3437346B
:104960003A34313400342D343E34203453344C3412
:1049700041345634453454344534533454343A3441
:1049800038343A34313400342D343E342034533406
:104990004C3441345634453454344534533454340F
:1049A0003A3439343A34313400342D343E342034FE
:1049B00053344C3441345634453420344534523425
:1049C00052344534553452343A3400342D343E3464
:1049D000203453344C344134563445342034543428
:1049E00045345334543420344F344B3400342D3454
:1049F0003E34203453344C3441345634453420341E
:104A0000543445345334543420344B344F3400340C
:104A100043344C34413456344934453452342034D0
:104A2000453443344C3441344934523445343F34B2
:104A300000345234453453344534543420344D34E6
:104A40004F34443455344C344534203442344C349F
:104A5000453400345034523445345334533445349F
:104A6000523420344F344B3420342F3420344E34DD
:104A70004F344B340034543445345334543420349C
:104A800033342034523445344C3441344934533473
:104A900020344F344E340034543445345334543479
:104AA00020344C3445344434203443344C34413481
:104AB0005634493445345234003443344C34413450
:104AC0005634493445345234203445345434453412
:104AD00049344E3454343F34003454344534533420
:104AE000543420344C344534443453342034433427
:104AF0004134523454344534003445345234523401
:104B00004534553452342034563441344C344934CD
:104B100044344534453400344D344F3444345534F2
:104B20004C34453420344534533443344C344134CC
:104B3000563445340034463449344E3420344534F8
:104B4000463446344134433445344D3445344E3490
:104B5000543400345234453454344F345534523480
:104B600020344534543441345034453420343134C5
:104B70000034543445345334543420344C344534A4
:104B80004434203452344F3455344734453400349F
:104B9000543445345334543420344C344534443440
:104BA000203456344534523454344534003454346B
:104BB00045345334543420344C3445344434203454
:104BC00042344C344534553445340034543445343F
:104BD00053345434203442344C34553445345434F2
:104BE0004F344F345434483400344134503450340A
:104BF00055345934453452342034533455345234B6
:104C000020344F344B34003452344534533445341B
:104C10005434203445344E34203443344F345534E6
:104C200052345334003452344534533445345434BC
:104C30002034533459345334543445344D3445348A
:104C400000344D344F34443455344C3445342034DE
:104C50004D344134493454345234453400345234A0
:104C60004534543449345234453452342034433476
:104C7000413452345434453400344C344534443493
:104C80005334203441344C344C3455344D34453451
:104C90004534533400342D343E34203454344534B8
:104CA0005334543420344F344E340D340A340034E9
:104CB0002D343E34203454344534533454343A344F
:104CC000313430343A34313400342D343E342034ED
:104CD00054344534533454343A34313432343A341D
:104CE000313400342D343E3420345434453453347C
:104CF00054343A34313433343A34313400342D348A
:104D00003E34203454344534533454343A343134FA
:104D100034343A34313400342D343E342034543475
:104D20004534533454343A34313435343A343134EC
:104D300000342D343E342034543445345334543408
:104D40003A34313436343A34313400342D343E344C
:104D5000203454344534533454343A3431343734B1
:104D60003A34313400342D343E3420345434453414
:104D7000533454343A34313438343A3431340034DE
:104D80005434453453345434203448344F3452343A
:0A4D90004C344F34473445340034EE
:104DDC000800083424009614080024001615080056
:104DEC0024009615080024001108080020009115D5
:104DFC0008002000911108009A313722A7310800D1
:104E0C0023001D121D160800240096161616080005
:104E1C0024009612161608009D31A325A731080010
:104E2C00F00070082400910008002300BC10BB01A6
:104E3C000E300800A631F026A73101300800A6314B
:104E4C00F026A73102300800A631F026A731013038
:104E5C000800A631F326A73100300800A7310E2731
:104E6C00A73105300800A7310A27A7310A300800FE
:104E7C00A7310A27A731093008002300BC10BB0159
:104E8C000E3008002400160E890C890C013908001C
:104E9C00A731DA27A731240016140800A731DA2726
:104EAC00A731240016150800640080010131890B1C
:104EBC005B2F0034FE0012001E00FE0B612F00342D
:104ECC0023003C10A631F626A73104300800200040
:104EDC00A50025089D317625A731080023003C1438
:104EEC003635A7311627A73103300800F0302100E2
:104EFC009E009B019C0101309D00080023003C1486
:104F0C000314360DA7311627A731053008002000F1
:104F1C0024082300D800200023082300D700080011
:104F2C00200024082200C800200023082200C7000B
:104F3C000800200024082200C600200023082200BC
:104F4C00C5000800200024082200CA002000230805
:104F5C002200C9000800200024082100E6002000DF
:104F6C0023082100E500080001309931D321A73135
:104F7C003530890BBF2F0000080028302400950025
:104F8C00960194012730920021008E150E16080010
:104F9C0070302100990098012200960121001A1FFF
:104FAC00D82FD92FD42F080024001419DE2FDF2F6F
:104FBC00DA2F16081F39031DE42FE52FDA2F08000E
:104FCC007608F1007508F0007708F8007808F20010
:104FDC0000309C31C924A73108002000A30023080D
:104FEC000319F92FFA2FFD2F22000C14FF2F22008A
:104FFC000C100800463449344E34203444344534C3
:10500C002034543445345334543400342D343E3429
:10501C00203454344534533454343A3431343A34DF
:10502C00313400342D343E3420345434453453342C
:10503C0054343A3432343A34313400342D343E342E
:10504C00203454344534533454343A3433343A34AD
:10505C00313400342D343E342034543445345334FC
:10506C0054343A3434343A34313400342D343E34FC
:10507C00203454344534533454343A3435343A347B
:10508C00313400342D343E342034543445345334CC
:10509C0054343A3436343A34313400342D343E34CA
:1050AC00203454344534533454343A3437343A3449
:1050BC00313400342D343E3420345434453453349C
:1050CC0054343A3438343A34313400342D343E3498
:1050DC00203454344534533454343A3439343A3417
:1050EC003134003454344534533454342034533430
:1050FC0046344C34413453344834003456344F34F1
:10510C004934523420344134503450344C344934C2
:10511C000034543445345334543420345234313400
:10512C0020344F344E3400344534543441345034EC
:10513C004534203431343034003445345434413423
:10514C005034453420343134323400345434453402
:10515C0053345434203442345034323400344534D3
:10516C0054344134503445342034313433340034E5
:10517C00453454344134503445342034313434348F
:10518C0000344534543441345034453420343134B3
:10519C00353400344534543441345034453420349F
:1051AC00313436340034453454344134503445347D
:1051BC002034313437340034453454344134503491
:1051CC004534203431343834003454344534533479
:1051DC005434203450343134003445345434413454
:1051EC005034453420343234003454344534533440
:1051FC005434203450343234003445345434413433
:10520C005034453420343334003445345434413430
:10521C00503445342034343400344534543441341F
:10522C00503445342034353400344534543441340E
:10523C0050344534203436340034453454344134FD
:10524C0050344534203437340034453454344134EC
:10525C0050344534203438340034453454344134DB
:10526C00503445342034393400342534643400341B
:020000040001F9
:08000000FF3FFF3FFF3FFF3F00
:04000E00E43FFF3F8D
:00000001FF
