:1000000080314A28053008007E1480310B1F0928F2
:100010000A2848282100111E0E280F281B2820001E
:10002000111E132814281B28210066088A00650861
:100030000A00803148282100911E1F2820282C28E2
:100040002000911E242825282C2822004C088A00F4
:100050004B080A00803148282100921D30283128A1
:100060003D282000921D352836283D2821006808AB
:100070008A0067080A00803148282100911D412824
:10008000422848282000911D46284728482836281D
:100090007E10090080314C28210098315D2080318C
:1000A000EE00783084009A308500D9308600013027
:1000B000870014309831CF208031603084009D302B
:1000C0008500203086000230870028309831CF200C
:1000D0008031FD012000EA01EB01EC01DF308400FA
:1000E000003085000F309831C920803145308400C0
:1000F0000130850008309831C9208031A03084005B
:100100000130850039309831C92080314830840071
:100110000230850020309831C92080317E102000C7
:100120008B31722B95302000B800A730B900053014
:10013000BA00A530BB00D230BC00A430BD002430D2
:10014000BE00A030BF009B312F2380310130993198
:10015000A221803106302200C2001330C100AD3030
:10016000890BB028C10BB028C20BB0280032003078
:100170009931A22180310B302200C2002630C1000B
:100180005D30890BC128C10BC128C20BC1280032C8
:100190000C309C3147248031200024082500C30006
:1001A000200023082500C2009D302100AD00A730AB
:1001B000AE00250043082100B000250042082100C0
:1001C000AF00BC309F318827803121002E082500E8
:1001D000B60021002D082500B5004308803A220012
:1001E000C10083304102031DF8282030250042025F
:1001F0000318FB28FC28072922008C17C630210091
:10020000AD00A630AE009A31A1228031412995304F
:100210002100B000A730B100C730B2000230B300F7
:10022000C630B4000230B50093314223803195309E
:100230002000AE00A730AF000530B000A530B100FF
:10024000BC30B2000230B3002430B400A030B5009E
:1002500091319521803122008C13C5302100B800E6
:100260000230B900C730BA000230BB00C630BC0053
:100270000230BD00C430BE000230BF0092318F2278
:10028000803115302200C2004B30C100BE30890BD6
:100290004729C10B4729C20B472900002500470801
:1002A000031953295429102AF4302000B800A6302D
:1002B000B9000530BA00A530BB001630BC00A5302F
:1002C000BD002430BE00A030BF009B312F23803101
:1002D00001309931A221803106302200C200133052
:1002E000C100AD30890B7229C10B7229C20B722972
:1002F000003200309931A22180310B302200C2003F
:100300002630C1005D30890B8329C10B8329C20BC4
:10031000832900320C309C3147248031200024088E
:100320002500C300200023082500C2009D302100C5
:10033000AD00A730AE00250043082100B000250025
:1003400042082100AF00BC309F3188278031210056
:100350002E082500B80021002D082500B70043080D
:10036000803A2200C10082304102031DBA29BC300C
:10037000250042020318BD29BE29C92922008C1379
:10038000E5302100AD00A530AE009A31A1228031C8
:10039000032AF4302100B000A630B100C730B2000B
:1003A0000230B300C630B4000230B50093314223AE
:1003B0008031F4302000B800A630B9000530BA0012
:1003C000A530BB00BC30BC000230BD002430BE00F4
:1003D000A030BF009B312F23803122008C17C53005
:1003E0002100B8000230B900C730BA000230BB00AB
:1003F000C630BC000230BD00C430BE000230BF00B9
:1004000092318F22803115302200C2004B30C10062
:10041000BE30890B092AC10B092AC20B092A000028
:10042000250047080319152A162AE22AFD30200064
:10043000B800A630B900D230BA00A630BB002430D4
:10044000BC00A030BD002430BE00A030BF009B31F6
:100450002F2380310B302200C2002630C1005D30D6
:10046000890B302AC10B302AC20B302A00320130EE
:100470009931A221803106302200C2001330C10020
:10048000AD30890B412AC10B412AC20B412A0032EF
:1004900000309931A22180313D302200C200E1308C
:1004A000C1003F30890B522AC10B522AC20B522A7B
:1004B000003201309931A221803106302200C20081
:1004C0001330C100AD30890B632AC10B632AC20B04
:1004D000632A003200309931A2218031103022008D
:1004E000C2003930C1000D30890B742AC10B742A47
:1004F000C20B742A003201309C31AB248031003AA7
:100500000319832A842A9F2A01309C31CE2480310A
:10051000003A03198C2A8D2A9F2A00309C31F1243D
:100520008031003A0319952A962A9F2AF230210039
:10053000AD00A530AE009A31A1228031CD2A250030
:10054000C70100309931A221803100309931AF21AB
:100550008031FD302100B000A630B100C730B200BC
:100560000230B300C630B4000230B50093314223EC
:100570008031C5302100B8000230B900C730BA0060
:100580000230BB00C630BC000230BD00C430BE002B
:100590000230BF0092318F2280310B302200C20026
:1005A0002630C1005D30890BD32AC10BD32AC20B80
:1005B000D32A003200309931A221803100309931A4
:1005C000AF218031250047080319E72AE82A562B76
:1005D0000F302000B800A730B9002630BA00A5308F
:1005E000BB00CA30BC00A530BD00E330BE00A43063
:1005F000BF009B312F23803101309931A2218031FE
:1006000006302200C2001330C100AD30890B062B2A
:10061000C10B062BC20B062B003200309931A221F0
:100620008031D5302100AD00A030AE009A31A1223A
:100630008031250045089431572480312200C100C3
:1006400041082500C6004608031D272B282B4E2BEA
:10065000C7010F302100B000A730B100C730B20091
:100660000230B300C630B4000230B50093314223EB
:100670008031C5302100B8000230B900C730BA005F
:100680000230BB00C630BC000230BD00C430BE002A
:100690000230BF0092318F228031562BFF30210073
:1006A000AD00A530AE009A31A12280312500470867
:1006B00003195B2B5C2BDC2B18302000B800A73013
:1006C000B9000630BA00A730BB002430BC00A0300F
:1006D000BD002430BE00A030BF009B312F238031ED
:1006E00001309931AF21803106302200C200133031
:1006F000C100AD30890B7A2BC10B7A2BC20B7A2B40
:10070000003200309931AF2180310B302200C2001D
:100710002630C1005D30890B8B2BC10B8B2BC20B9C
:100720008B2B003201309C31AB248031003A03190D
:100730009A2B9B2BB62B01309C31CE248031003A72
:100740000319A32BA42BB62B01309C31F12480314B
:10075000003A0319AC2BAD2BB62B0C302100AD00A9
:10076000A630AE009A31A1228031DC2B2500C701D2
:1007700018302100B000A730B100C730B2000230FD
:10078000B300C630B4000230B5009331422380314B
:10079000C5302100B8000230B900C730BA000230BD
:1007A000BB00C630BC000230BD00C430BE00023009
:1007B000BF0092318F228031250047080319E12BB9
:1007C000E22B622C21302000B800A730B9004D3058
:1007D000BA00A630BB002430BC00A030BD002430DD
:1007E000BE00A030BF009B312F23803101309931F2
:1007F000D621803106302200C2001330C100AD3056
:10080000890B002CC10B002CC20B002C00320030D5
:100810009931D62180310B302200C2002630C10030
:100820005D30890B112CC10B112CC20B112C003225
:1008300000309C31AB248031003A0319202C212C4C
:100840003C2C00309C31CE248031003A0319292CF5
:100850002A2C3C2C00309C31F1248031003A0319C1
:10086000322C332C3C2C19302100AD00A630AE00C8
:100870009A31A1228031622C2500C701213021004C
:10088000B000A730B100C730B2000230B300C630AC
:10089000B4000230B500933142238031C5302100CD
:1008A000B8000230B900C730BA000230BB00C63011
:1008B000BC000230BD00C430BE000230BF00923127
:1008C0008F228031250047080319672C682CE22C01
:1008D0002A302000B800A730B9004D30BA00A73048
:1008E000BB002430BC00A030BD002430BE00A030CE
:1008F000BF009B312F23803101309931BC218031E1
:1009000019302200C2005A30C100B130890B862C48
:10091000C10B862CC20B862C003200309931BC21D1
:1009200080310B302200C2002630C1005D30890BBF
:10093000972CC10B972CC20B972C003201309C31A5
:10094000AB248031003A0319A62CA72CC22C01300D
:100950009C31CE248031003A0319AF2CB02CC22C2C
:1009600001309C31F1248031003A0319B82CB92CA4
:10097000C22C26302100AD00A630AE009A31A12253
:100980008031E22C2A302100D700A730D800C730B0
:100990002200C10041082100D900C6302200C20057
:1009A00042082100DA00C5302200C30043082100BC
:1009B000DB00C4302200C40044082100DC00883180
:1009C00069208031250047080319E72CE82C682DA1
:1009D00033302000B800A730B9005D30BA00A7302E
:1009E000BB002430BC00A030BD002430BE00A030CD
:1009F000BF009B312F23803101309931C9218031D3
:100A000019302200C2005A30C100B130890B062DC6
:100A1000C10B062DC20B062D003200309931C921C1
:100A200080310B302200C2002630C1005D30890BBE
:100A3000172DC10B172DC20B172D003200309C3122
:100A4000AB248031003A0319262D272D422D00308A
:100A50009C31CE248031003A03192F2D302D422DA8
:100A600000309C31F1248031003A0319382D392DA2
:100A7000422D33302100AD00A630AE009A31A122C4
:100A80008031682D2500C70133302100B000A73028
:100A9000B100C730B2000230B300C630B40002303B
:100AA000B500933142238031C5302100B8000230B7
:100AB000B900C730BA000230BB00C630BC000230FB
:100AC000BD00C430BE000230BF0092318F228031A1
:100AD0002500470803196D2D6E2D142E3C30200083
:100AE000B800A730B9009030BA00A530BB0045303F
:100AF000BC00A230BD002430BE00A030BF009B313E
:100B00002F2380319C310924803103302200C20020
:100B10000830C1007730890B8B2DC10B8B2DC20B98
:100B20008B2D02302000A3000030A4009031032060
:100B300080319A316522803103302000A3000030DB
:100B4000A4009031032080319A3165228031A03099
:100B50009F31C027803103302200C2000830C1001D
:100B60007730890BB12DC10BB12DC20BB12D3C30AB
:100B70002000B800A730B9009030BA00A530BB0003
:100B8000A030BC000230BD002430BE00A030BF0049
:100B90009B312F238031A0309B31B3238031220041
:100BA000C10041082500C6004608031DD82DD92DD7
:100BB0000C2EC7013C302100B000A730B100C73077
:100BC000B2000230B300C630B4000230B500933139
:100BD00042238031C5302100B8000230B900C7304F
:100BE000BA000230BB00C630BC000230BD00C430C9
:100BF000BE000230BF0092318F22803115302200BA
:100C0000C2004B30C100BE30890B042EC10B042E34
:100C1000C20B042E0000142E40302100AD00A6307F
:100C2000AE009A31A1228031250047080319192E00
:100C30001B2E8B31A22BA1302000B800A130B900AF
:100C4000A030BA000230BB00BC30BC00A530BD00F3
:100C50005A30BE00A230BF009B312F2380310130BB
:100C600099317B218031003099316E2180319C3166
:100C700068248031C5302100B0000230B100C73097
:100C8000B2000230B300883102208031C730210029
:100C9000B0000230B100C630B2000230B300C5303F
:100CA000B4000230B500C430B6000230B700913154
:100CB0004A21803115302200C2004B30C100BE30C5
:100CC000890B602EC10B602EC20B602E0000192E06
:100CD00080314A282000CA003F08D3004008D400D1
:100CE0004108D5004208D6004308D7004408D80080
:100CF0004508D9004608DA005330860000308700E6
:100D0000473FC700C71B852E872E0130882E003035
:100D10002000C800C9014808D1004908D200510884
:100D200052040319942E952EB32ED309D409D50954
:100D3000D609D709D809D909DA09D30A031DB32E70
:100D4000D40A031DB32ED50A031DB32ED60A031DE4
:100D5000B32ED70A031DB32ED80A031DB32ED90A0A
:100D6000031DB32EDA0A2100E21BB72EB82EBC2ECB
:100D7000FD30E305FF30E4056208803A2000C7003B
:100D800080304702031DC72E013021006102031885
:100D9000CA2ECB2ED12E01302000CD000030CE0047
:100DA000D92E210062082000CE0021006108200019
:100DB000CD00230056082000D00023005508200055
:100DC000CF0051085204031DE62EE72EEC2E210021
:100DD000631DEB2EEC2EF12EFF302000CF07FF30ED
:100DE000D03D1F302000DB000030DC002400E70194
:100DF000622FFF302000DB07FF30DC3D0A30A3000C
:100E0000A401A501A601A701A801A901AA015308EF
:100E1000AB005408AC005508AD005608AE005708AA
:100E2000AF005808B0005908B1005A08B200943118
:100E3000EC24863120002408B7002308B6009B313B
:100E4000CE23863120003608303EC7005B08483E7E
:100E500086000230870047088100FF30CD07FF3051
:100E6000CE3DFF30CF07FF30D03D0A30A300A401B4
:100E7000A501A601A701A801A901AA015308AB0079
:100E80005408AC005508AD005608AE005708AF0036
:100E90005808B0005908B1005A08B2009531D92558
:100EA000863120002308D3002408D4002508D5006B
:100EB0002608D6002708D7002808D8002908D90016
:100EC0002A08DA0020005C08803AC7008030470218
:100ED000031D6C2F01305B02031C6F2F702F9D2FA1
:100EE0002000530854045504560457045804590468
:100EF0005A04031D7C2F7D2FF92E4E08803AC7001F
:100F000080304702031D862F01304D020318892FC0
:100F10008A2FF92E20005008803AC70080304702FF
:100F2000031D942F01304F02031C972F982F9D2FE4
:100F30002100E3189C2F9D2FF92E20005108520408
:100F4000031DA32FA42FA92F2100631DA82FA92FB4
:100F5000C62FFF302000DB07FF30DC3D5108520474
:100F6000031DB32FB42FB92F2B30CB000030CC0092
:100F7000BD2F2D30CB000030CC004B08C7005B08E4
:100F8000483E8600023087004708810020005B0849
:100F9000483EC7004708B6005008B8004F08B700E1
:100FA0004A089231E622863120003708C000360810
:100FB000BF0008002000A801A9019D31DB25873171
:100FC0000B302000A7002630A6005D30890BE62FED
:100FD000A60BE62FA70BE62F003201302000A80752
:100FE0000030A93D2908803AA60080302602031D62
:100FF000FB2F02302802031CFE2FFF2FDD2F0800DD
:10100000013008002100B701622820000F190928CB
:101010000A281F28DC302100AD00A130AE009A3133
:10102000A12288312100B701B70A300886003108B3
:101030008700810132088600330887008101200083
:101040006A0803192428252862289E31ED26883154
:101050002100B4003408B600522801006228BF30D5
:10106000AD00A230AE009A31A122883121003008B3
:101070008600310887008101320886003308870026
:10108000810102302100B5000430B400BA30890B70
:101090004728B40B4728B50B472800002100B701AB
:1010A000B70A62283608B400B5013508003A0319BA
:1010B0005A2862283408303A03192D28043A0319B3
:1010C0002F28622821003708031967286828052877
:1010D000080020308600023087002A30840001306A
:1010E000850014302100DD0016001A00DD0B742885
:1010F000D93086000130870020308400013085001F
:101100000A30DD0016001A00DD0B8228013099310B
:101110008821883101309931952188310030993109
:101120007B218831210058082000AF00210057089A
:101130002000AE00BE30B000A330B1009A30B20043
:10114000A330B3003030B400A230B5009131952106
:1011500088312A302000B3000130B4002100580843
:101160002000B600210057082000B5009A31B722B0
:101170008831200034082200BF00200033082200FC
:10118000BE003F082000B40022003E082000B3004B
:101190002030B5000130B6009A31B72288312000E6
:1011A00034082100AE00200033082100AD009A3140
:1011B000A122883191310221883121005B0886000B
:1011C0000230870001089431572488312100DD0066
:1011D0005D082200C0000B302100DE002630DD005B
:1011E0005D30890BF128DD0BF128DE0BF128003290
:1011F000220040080319FD28FE2832292100590841
:1012000086000230870081015A088600023087007C
:1012100081012A302000AE00A730AF00C330B000FB
:10122000A330B100AC30B200A330B3005A30B400E8
:10123000A230B500913195218831DB302100B80012
:101240000030B900D930BA000030BB00DA30BC0041
:101250000030BD00DC30BE000030BF0092318F2274
:101260008831BA292A302000AE00A730AF004D30B7
:10127000B000A730B1002430B200A030B300243059
:10128000B400A030B50091319521883100309931FA
:101290008821883101309931952188310030993188
:1012A0007B21883101309931BC21883119302100EE
:1012B000DE005A30DD00B130890B5C29DD0B5C2982
:1012C000DE0B5C29003200309931BC2188311530A9
:1012D0002100DE004B30DD00BE30890B6D29DD0BB7
:1012E0006D29DE0B6D29000001309C31AB24883163
:1012F000003A03197C297D29A42901309C31CE2490
:101300008831003A031985298629A42901309C31A6
:10131000F1248831003A03198E298F29A4292A3013
:101320002000AE00A730AF004D30B000A730B100B4
:101330003630B200A530B300B930B400A430B500E7
:10134000913195218831BA2921005908860002304F
:10135000870081012A30B000A730B100D930B20037
:101360000030B300DA30B4000030B50093314223CE
:1013700088311D2908002100B600B5016B2B200023
:101380000F19C329C429DF29BB302100AD00A030CB
:10139000AE009A31A12289312100B501B50A360883
:1013A0008600023087008101310886000230870004
:1013B000810130088600023087008101810A200007
:1013C0006A080319E429E5296B2B9E31ED26893142
:1013D0002100B2003208B4004C2B0100D8302100AB
:1013E000AD00A530AE009A31A12289312100360826
:1013F0008600023087008101810A300886000230B1
:1014000087008101810A310886000230870081014E
:1014100002302100B3000430B200BA30890B0E2A2A
:10142000B20B0E2AB30B0E2A00002100B501B50A3B
:101430006B2BA130AD00A030AE009A31A1228931D2
:10144000E5302000AE00A230AF002430B000A03064
:10145000B1001B30B200A230B3002430B400A03081
:10146000B50091319521893121003608860002307E
:1014700087008101810A02302100B3000430B200EC
:10148000BA30890B412AB20B412AB30B412A000022
:101490002100B501B50A30088600023087008101BD
:1014A00022008C136B2B8530AD00A030AE009A313A
:1014B000A1228931E5302000AE00A230AF002430F7
:1014C000B000A030B100D430B200A330B30024305B
:1014D000B400A030B5009131952189312100360842
:1014E0008600023087008101810A300886000230C0
:1014F00087008101310886000230870081010230B7
:101500002100B3000430B200BA30890B852AB20B37
:10151000852AB30B852A00002100B501B50A2200F7
:101520008C176B2B6930AD00A030AE009A31A12230
:101530008931E5302000AE00A230AF002430B00089
:10154000A030B100D030B200A330B3002430B400DA
:10155000A030B500913195218931210036088600EF
:10156000023087008101810A02302100B30004307B
:10157000B200BA30890BBA2AB20BBA2AB30BBA2A14
:1015800000002100B501B50A30088600023087004E
:10159000810122008C136B2B0830AD00A130AE000E
:1015A0009A31A1228931E5302000AE00A230AF008F
:1015B0002430B000A030B1005830B200A530B300E4
:1015C0002430B400A030B50091319521893121003B
:1015D00036088600023087008101810A30088600C3
:1015E00002308700810131088600023087008101C6
:1015F000810A02302100B3000430B200BA30890BF6
:10160000FF2AB20BFF2AB30BFF2A00002100B5010D
:10161000B50A22008C176B2B3A30AD00A130AE001A
:101620009A31A1228931E5302000AE00A230AF000E
:101630002430B000A030B1005430B200A530B30067
:101640002430B400A030B5009131952189312100BA
:1016500036088600023087008101810A3008860042
:101660000230870081013108860002308700810145
:10167000810A02302100B3000430B200BA30890B75
:101680003F2BB20B3F2BB30B3F2B00002100B501CA
:10169000B50A22008C136B2B3408B200B301330857
:1016A000003A0319542B6B2B3208303A0319ED29F9
:1016B000013A0319EE29043A03190C2B033A0319D2
:1016C000192A013A0319532A0F3A0319CC2A013A6D
:1016D0000319922A6B2B210035080319702B712BEB
:1016E000BF2908009A3101228B318B170B17250077
:1016F000C701C601C501C401C40AB901B90ABA01CA
:10170000BB01993132218B3120000E1C882B892B93
:101710008D2B2500C101C10A8F2B2500C10120009E
:101720008E18932B942B952B952B3D302200C200C5
:10173000E130C1003F30890B9B2BC10B9B2BC20BAF
:101740009B2B0032E5302000B800A230B900AE304B
:10175000BA00A530BB00E230BC00A330BD009F3012
:10176000BE00A530BF009B312F238B3103302200F8
:10177000C2000830C1007730890BBC2BC10BBC2BD9
:10178000C20BBC2B22008C138D12D62BC73022002B
:10179000C10041082100B000C4302200C20042084C
:1017A0002100B100C5308931BB218B3125004708AC
:1017B0000319DB2BDC2BC62B01302000A3000030EB
:1017C000A400903103208B319A3165228B31033094
:1017D0002200C2000830C1007730890BED2BC10B0D
:1017E000ED2BC20BED2B2500C4018731DA278B319D
:1017F0002500C701C70A003099317B218B310030A9
:10180000993188218B310130993195218B31033009
:101810002200C2000830C1007730890B0D2CC10BAB
:101820000D2CC20B0D2C45302000B800A730B9009C
:10183000F430BA00A430BB002430BC00A030BD009E
:101840002430BE00A030BF009B312F238B310130EC
:101850009931A2218B3101309931AF218B310B307D
:101860002200C2002630C1005D30890B352CC10B2F
:10187000352CC20B352C0032013099316E218B3161
:1018800029302200C2009630C1007F30890B462CDF
:10189000C10B462CC20B462C01309C31AB248B3142
:1018A000003A0319542C552C702C01309C31CE2455
:1018B0008B31003A03195D2C5E2C702C01309C3169
:1018C000F1248B31003A0319662C672C702C66309A
:1018D0002100AD00A630AE009A31A1228B319E2CA2
:1018E0002500C70100309931A2218B310030993198
:1018F000AF218B3145302100B000A730B100C73097
:10190000B2000230B300C630B4000230B5009331EB
:1019100042238B31C5302100B8000230B900C730F6
:10192000BA000230BB00C630BC000230BD00C4307B
:10193000BE000230BF0092318F228B310B3022006B
:10194000C2002630C1005D30890BA42CC10BA42C31
:10195000C20BA42C003200309931A2218B3100300F
:101960009931AF218B31250047080319B82CB92CC8
:101970002C2D55302000B800A730B900F430BA0043
:10198000A330BB002430BC00A030BD002430BE001A
:10199000A030BF009B312F238B3100309931A22121
:1019A0008B3100309931AF218B310B302200C200D6
:1019B0002630C1005D30890BDB2CC10BDB2CC20B48
:1019C000DB2C003201309C31AB248B31003A031DFB
:1019D000EA2CEB2C062D01309C31CE248B31003AC1
:1019E000031DF32CF42C062D01309C31F1248B3196
:1019F000003A031DFC2CFD2C062D72302100AD0099
:101A0000A630AE009A31A1228B312C2D2500C701C2
:101A100055302100B000A730B100C730B20002300D
:101A2000B300C630B4000230B500933142238B318D
:101A3000C5302100B8000230B900C730BA0002300A
:101A4000BB00C630BC000230BD00C430BE00023056
:101A5000BF0092318F228B31250047080319312DA9
:101A6000322DA62D65302000B800A730B9006330B4
:101A7000BA00A530BB002430BC00A030BD0024302B
:101A8000BE00A030BF009B312F238B310130993134
:101A9000A2218B3106302200C2001330C100AD30CC
:101AA000890B502DC10B502DC20B502D0032003030
:101AB0009931A2218B31250041080319602D612D38
:101AC000A62D4A302100AD00A030AE009A31A122EF
:101AD0008B3125004508943157248B312200C100F9
:101AE00041082500C6004608031D772D782D9E2D40
:101AF000C70165302100B000A730B100C730B20087
:101B00000230B300C630B4000230B5009331422336
:101B10008B31C5302100B8000230B900C730BA009F
:101B20000230BB00C630BC000230BD00C430BE0075
:101B30000230BF0092318F228B31A62D7E302100E2
:101B4000AD00A630AE009A31A1228B3125004708A6
:101B50000319AC2D8D31AE2D8E31192E6D30200034
:101B6000B800A730B9008130BA00A530BB002430DE
:101B7000BC00A030BD002430BE00A030BF009B31AF
:101B80002F238D3101309931A2218D310630220071
:101B9000C2001330C100AD30890BCC2DC10BCC2D50
:101BA000C20BCC2D003200309931A2218D3125009D
:101BB00041080319DC2DDD2D192E450894315724D9
:101BC0008D312200C10041082500C6004608031DD2
:101BD000EA2DEB2D112EC7016D302100B000A7308A
:101BE000B100C730B2000230B300C630B4000230DA
:101BF000B500933142238D31C5302100B800023049
:101C0000B900C730BA000230BB00C630BC00023099
:101C1000BD00C430BE000230BF0092318F228D3132
:101C2000192E8A302100AD00A630AE009A31A122D3
:101C30008D312500470803191E2E1F2E8A2E753060
:101C40002000B800A730B9007230BA00A530BB0040
:101C50002430BC00A030BD002430BE00A030BF0046
:101C60009B312F238D3101309931A2218D310630E6
:101C70002200C2001330C100AD30890B3D2EC10BD4
:101C80003D2EC20B3D2E003200309931A2218D3104
:101C90002500410803194D2E4E2E8A2E45089431F9
:101CA00057248D312200C10041082500C600460896
:101CB000031D5B2E5C2E822EC70175302100B00003
:101CC000A730B100C730B2000230B300C630B40054
:101CD0000230B500933142238D31C5302100B80068
:101CE0000230B900C730BA000230BB00C630BC00B9
:101CF0000230BD00C430BE000230BF0092318F22DE
:101D00008D318A2E96302100AD00A630AE009A317A
:101D1000A1228D312500470803198F2E902EFE2E0B
:101D20007D302000B800A730B900E930BA00A630F5
:101D3000BB002430BC00A030BD002430BE00A03069
:101D4000BF009B312F238D3101309931A2218D317C
:101D50000B302200C2002630C1005D30890BAE2E50
:101D6000C10BAE2EC20BAE2E003200309931A22133
:101D70008D310B302200C2002630C1005D30890B4E
:101D8000BF2EC10BBF2EC20BBF2E003201309C31C3
:101D9000AB248D31003A0319CE2ECF2ED82EA2308F
:101DA0002100AD00A630AE009A31A1228D31FE2E69
:101DB0002500C7017D302100B000A730B100C73039
:101DC000B2000230B300C630B4000230B500933127
:101DD00042238D31C5302100B8000230B900C73030
:101DE000BA000230BB00C630BC000230BD00C430B7
:101DF000BE000230BF0092318F228D31250047088E
:101E00000319032F042F7B2F85302000B800A73043
:101E1000B9009730BA00A230BB002430BC00A0301B
:101E2000BD002430BE00A030BF009B312F238D3178
:101E300001309931A2218D310B302200C2002630B1
:101E4000C1005D30890B222FC10B222FC20B222F24
:101E5000003200309931A2218D310B302200C200B6
:101E60002630C1005D30890B332FC10B332FC20BDD
:101E7000332F003200309C31AB248D31003A0319EE
:101E8000422F432F552F01309C31CE248D31003A03
:101E900003194B2F4C2F552FAE302100AD00A6302B
:101EA000AE009A31A1228D317B2F2500C7018530EC
:101EB0002100B000A730B100C730B2000230B3003B
:101EC000C630B4000230B500933142238D31C530A5
:101ED0002100B8000230B900C730BA000230BB00A0
:101EE000C630BC000230BD00C430BE000230BF00AE
:101EF00092318F228D31250047080319802F812FC1
:101F0000F82F8D302000B800A730B900AB30BA00F0
:101F1000A230BB002430BC00A030BD002430BE0085
:101F2000A030BF009B312F238D3101309931A22188
:101F30008D3115302200C2004B30C100BE30890BFC
:101F40009F2FC10B9F2FC20B9F2F00000030993194
:101F5000A2218D3115302200C2004B30C100BE30AD
:101F6000890BB02FC10BB02FC20BB02F0000003077
:101F70009C31CE248D31003A0319BF2FC02FD22FB0
:101F800001309C31F1248D31003A0319C82FC92F3B
:101F9000D22FBA302100AD00A630AE009A31A12276
:101FA0008D31F82F2500C7018D302100B000A730FA
:101FB000B100C730B2000230B300C630B400023006
:101FC000B500933142238D31C5302100B800023075
:101FD000B900C730BA000230BB00C630BC000230C6
:101FE000BD00C430BE000230BF0092318F228D315F
:101FF000250047080319FE2F8031922881314E2990
:102000002000911108002000A601A701222822002B
:102010008D1668302000A500E430890B0D28A50B33
:102020000D28000022008D1268302000A500E43049
:10203000890B1828A50B1828000001302000A607DE
:102040000030A73D2708803AA5002408803A2502E1
:10205000031D2C2823082602031C2F2830280728BC
:1020600022008D12080020006C08BD3E8600013061
:102070008700810123001D1D3E283F284C28200099
:102080006C08BD3E860001308700811422004A089A
:102090008A0049080A00903123009D1C50285128CD
:1020A0005E2820006C08BD3E8600013087000115C7
:1020B000220048088A0047080A00903120006C0876
:1020C000BD3E860001308700010803196828692891
:1020D0007028220046088A0045080A0090317328BB
:1020E0009B31622390310800983167209031FA00CB
:1020F00023003708860087017A0881000130FA0042
:102100007A08B7070130B8020030B93B3808390403
:1021100003198B288C28912898317920903105302B
:10212000B928BC159B289831AD209031B928983139
:10213000A8209031B9282C08FA007A08F900210863
:102140008A0020080A009031FB00FC017C08003A5C
:102150000319AB2897287B08013A03199728033AFB
:1021600003199328013A03199328073A031997286A
:10217000972808002100911233302000A30010306E
:10218000A4009931172190312100111289302000CB
:10219000A3001C30A4009931202190310830230085
:1021A0009F0090309D0024309E0040309B00033003
:1021B0009C005C302000A3001830A4009931052158
:1021C000903171302000A3001830A40099310E2105
:1021D00090316D302000A3001830A4009831FC200D
:1021E00090312100EB01FD01ED0108302000A50038
:1021F00025082100EC002000EC01EB01EA012100A0
:10220000911608002000A801A9012000AA01AB0135
:102210009D31DB2591310B302000A7002630A60030
:102220005D30890B1129A60B1129A70B112900324A
:1022300001302000AA070030AB3D2B08803AA600F1
:1022400080302602031D262904302A02031C292976
:102250002A2908290B302000A7002630A6005D306F
:10226000890B3029A60B3029A70B30290032013009
:102270002000A8070030A93D2908803AA600803038
:102280002602031D452904302802031C4829492938
:102290000529080021003408860035088700010858
:1022A000031D532954295B29DC30AD00A130AE0059
:1022B0009A31A1229131210030088600310887002F
:1022C00081013208860033088700810134088600C6
:1022D00035088700810136088600370887000130FD
:1022E0008100003099317B21913100309931882172
:1022F00091310030993195219131003099316E2121
:10230000913100309931A221913100309931AF21C2
:10231000913100309931BC21913100309931C9217E
:10232000913122008C138D120800993129219131AD
:1023300006309A31FE22913102302000B70004307D
:10234000B600BA30890BA229B60BA229B70BA22975
:1023500000002000A901A90A01309E31BE2691315A
:1023600020002F08AA002E08A9009C3128249131B2
:102370002000A901A90A02309E31BE269131200019
:102380003108AA003008A9009C312824913120008E
:10239000A901A90A03309E31BE26913120003308DD
:1023A000AA003208A9009C31282491312000A901FB
:1023B000A90A04309E31BE26913120003508AA00BA
:1023C0003408A9009C3128249131080020002808F5
:1023D0000319EB29EC29F1292808031DF029F1291B
:1023E000F62926089831DC209131372A2808033E47
:1023F00086008701160001040319FF29002A1D2AFF
:102400002808033E86008701403FA900413FAA00FB
:10241000280A86008701403FAB00413FAC002C08F2
:10242000803AAD002A08803A2D02031D192A290896
:102430002B0203181C2A1D2A372A20002608A9006F
:10244000280886008701280A840085010008010702
:10245000AA002A0886000230870029088100280A7D
:10246000860087010130810741310318810A080085
:102470009831B7209231003A03193F2A402A712A35
:102480004D2A98318F2092318E2A983194209231A2
:102490008E2A98319E2092318E2A23002F08FA002E
:1024A0007A08F9000630A03E860001308700413FDF
:1024B0008A00403F0A009231FB00FC017C08003A90
:1024C0000319632A492A7B08013A0319492A033A66
:1024D0000319412A013A0319452A073A0319492ADF
:1024E000492A23003C101730A03E860001308700A7
:1024F000403F84008501810A00089831852092318F
:1025000001302300B8020030B93B38083904031DFC
:102510008A2A8B2A8D2A06308E2A03300800210051
:1025200038088600390887000108C000C10140084A
:10253000B0004108B1003A0886003B088700010856
:10254000C200C3014208B2004308B3008831022030
:10255000923121003A0886003B0887000108C0003C
:10256000C1014008B0004108B1003C0886003D08A8
:1025700087000108C200C3014208B2004308B3004B
:1025800038088600390887000108C400C5014408DE
:10259000B4004508B5003E0886003F0887000108E2
:1025A000C600C7014608B6004708B70091314A2166
:1025B000923129302100C1009630C0007F30890B54
:1025C000DF2AC00BDF2AC10BDF2A08002000BE0073
:1025D0002100631CEC2AED2AF62A20003E08B900EF
:1025E0003908AE0036089D31882592312000B81B8D
:1025F000FA2AFB2A002B3808BD003708BC00022B42
:10260000BC01BD01BA01BB01162B20302000A60081
:102610000030A7003E08B9003908A8009131E62132
:10262000923101302000BA070030BB3D3B08803AB0
:10263000B9003D08803A3902031D202B3C083A02BC
:10264000031C232B242B052B21006318282B292B5B
:10265000322B20003E08B9003908AE0036089D3103
:102660008825923120003608A3000230A4009B3157
:102670004823923120003C082307B6003D08243D42
:10268000B70008003430860002308700C130840073
:102690000030850014302100B60016001A00B60B79
:1026A0004D2BE330860001308700B73084000030C6
:1026B00085000A30B60016001A00B60B5B2B0130FD
:1026C000993188219331013099319521933100302E
:1026D00099317B219331003099316E219331210062
:1026E00031082000AF00210030082000AE00BE30CD
:1026F000B000A330B1005A30B200A230B300243091
:10270000B400A030B500913195219331C130200043
:10271000B3000030B400210031082000B6002100D1
:1027200030082000B5009A31B722933120003408D8
:102730002100D600200033082100D50056082000D3
:10274000B400210055082000B300B730B5000030B8
:10275000B6009A31B7229331200034082100AE0030
:10276000200033082100AD009A31A122933191312C
:102770000221933120000F1DBE2BBF2BBA2B21004D
:102780003208860033088700810134088600350846
:102790008700810108002000AB002B08A900290850
:1027A0002100E90000309A318C2293319C302000C6
:1027B000A900D730890BDA2BA90BDA2B03309A3119
:1027C000FE2293311A302000A900F830890BE62B45
:1027D000A90BE62B000003309A31FE2293311A3008
:1027E0002000A900F830890BF32BA90BF32B000074
:1027F00003309A31FE2293311A302000A900F830BC
:10280000890B002CA90B002C000002309A31FE220B
:1028100093311A302000A900F830890B0D2CA90B38
:102820000D2C000028309A31FE2293310230200016
:10283000AA000430A900BA30890B1C2CA90B1C2C4F
:10284000AA0B1C2C00000C309A31FE22933102306E
:102850002000AA000430A900BA30890B2D2CA90B46
:102860002D2CAA0B2D2C000001309A31FE22933121
:1028700002302000AA000430A900BA30890B3E2C97
:10288000A90B3E2CAA0B3E2C000006309A31FE22EA
:10289000933102302000AA000430A900BA30890B1D
:1028A0004F2CA90B4F2CAA0B4F2C00000800200026
:1028B000A800A901AA01280803195F2C602CC32CC9
:1028C000BD2C6A080319652C662CBD2C9E31ED26A3
:1028D00094312000A5002508A700A72C0100023094
:1028E0002000A6000430A500BA30890B752CA50B7A
:1028F000752CA60B752C00002000A901A90AAA01BD
:10290000AA0ABD2C02302000A6000430A500BA306F
:10291000890B882CA50B882CA60B882C0000200086
:10292000A9017F2C02302000A6000430A500BA3097
:10293000890B982CA50B982CA60B982C0000200036
:10294000A901A90AAA01AA0A22008C13BD2C2708F2
:10295000A500A6012608003A0319AF2CBD2C2508B6
:10296000303A03196E2C023A03196F2C013A0319FD
:10297000822C0A3A0319922CBD2C20002A08031934
:10298000C22CC32C612C2808031DC72CC82CEA2C90
:10299000E42C01309B317D239431003A0319D12C72
:1029A000D22CD62C2000A901AA01AA0A01309B3101
:1029B00098239431003A0319DE2CDF2CE42C2000FC
:1029C000A901A90AAA01AA0A20002A080319E92CC8
:1029D000EA2CC92C290808002000B5012B308600FC
:1029E00000308700473FB300B31FF72CF82C1A2D97
:1029F0002000AB09AC09AD09AE09AF09B009B109B6
:102A0000B209AB0A031D172DAC0A031D172DAD0A21
:102A1000031D172DAE0A031D172DAF0A031D172D19
:102A2000B00A031D172DB10A031D172DB20A20008D
:102A3000B501B50A2330860000308700473F2000EB
:102A4000B300B31F242D252D442D2000A309A40974
:102A5000A509A609A709A809A909AA09A30A031D86
:102A6000442DA40A031D442DA50A031D442DA60AC6
:102A7000031D442DA70A031D442DA80A031D442D40
:102A8000A90A031D442DAA0A2000230824042504B2
:102A900026042704280429042A040319502D512D43
:102AA000A42DB401B40A602DA335A40DA50DA60D67
:102AB000A70DA80DA90DAA0D0130B3003308B40766
:102AC000AA1F632D642D542D2A083202031D822D66
:102AD00029083102031D822D28083002031D822D92
:102AE00027082F02031D822D26082E02031D822D8A
:102AF00025082D02031D822D24082C02031D822D82
:102B000023082B02031C852D862D962D2308AB024E
:102B10002408AC3B2508AD3B2608AE3B2708AF3B5D
:102B20002808B03B2908B13B2A08B23BAA36A90CB9
:102B3000A80CA70CA60CA50CA40CA30C0130B40285
:102B4000031DA32DA42D642D35080319A82DA92D2F
:102B5000C72DAB09AC09AD09AE09AF09B009B10980
:102B6000B209AB0A031DC72DAC0A031DC72DAD0A60
:102B7000031DC72DAE0A031DC72DAF0A031DC72DA8
:102B8000B00A031DC72DB10A031DC72DB20A2000CC
:102B90002B08A3002C08A4002D08A5002E08A600D1
:102BA0002F08A7003008A8003108A9003208AA00A1
:102BB00008002000B5012330860000308700473F21
:102BC000B300B31FE42DE52D072E2000A309A409AF
:102BD000A509A609A709A809A909AA09A30A031D05
:102BE000042EA40A031D042EA50A031D042EA60A02
:102BF000031D042EA70A031D042EA80A031D042E7C
:102C0000A90A031D042EAA0A2000B501B50A2B301B
:102C1000860000308700473F2000B300B31F112E0D
:102C2000122E362E2000AB09AC09AD09AE09AF0952
:102C3000B009B109B209AB0A031D312EAC0A031D5C
:102C4000312EAD0A031D312EAE0A031D312EAF0AFF
:102C5000031D312EB00A031D312EB10A031D312E82
:102C6000B20A01302000B3003308B50636308600C2
:102C70000030870008302000B30000301E00B30B86
:102C80003E2E2308240425042604270428042904AE
:102C90002A0403194C2E4D2EA92EB401B40A5C2E21
:102CA000A335A40DA50DA60DA70DA80DA90DAA0D60
:102CB0000130B3003308B407AA1F5F2E602E502ED8
:102CC000B635B70DB80DB90DBA0DBB0DBC0DBD0DA8
:102CD0002A083202031D862E29083102031D862E82
:102CE00028083002031D862E27082F02031D862E7A
:102CF00026082E02031D862E25082D02031D862E72
:102D000024082C02031D862E23082B02031C892E67
:102D10008A2E9B2E2308AB022408AC3B2508AD3B32
:102D20002608AE3B2708AF3B2808B03B2908B13B3B
:102D30002A08B23B3614AA36A90CA80CA70CA60C7C
:102D4000A50CA40CA30C0130B402031DA82EA92EBF
:102D5000602E35080319AD2EAE2ECC2EB609B7095C
:102D6000B809B909BA09BB09BC09BD09B60A031DEE
:102D7000CC2EB70A031DCC2EB80A031DCC2EB90ADF
:102D8000031DCC2EBA0A031DCC2EBB0A031DCC2E6C
:102D9000BC0A031DCC2EBD0A20003608A30037084C
:102DA000A4003808A5003908A6003A08A7003B0887
:102DB000A8003C08A9003D08AA0008002100A900BD
:102DC00020005D0886008701403FDF00413FE000B2
:102DD0005F088400600885001200253A031DF12E6B
:102DE000F22EDA2F5D08860087010130810741311C
:102DF0000318810A2300D501D6012100E301E40173
:102E0000FF30E100FF30E20020005D08860087010E
:102E1000403FDF00413FE0005F088400600885001C
:102E20001200643A0319152F162F272F5D0886000C
:102E30008701403FDF00413FE0005F0884006008F9
:102E400085001200693A031D262F272F752F5D0874
:102E5000860087010130810741310318810A5E082D
:102E60008600870101088400850102308107003F48
:102E7000DF00013FE0005F082100A00020006008A3
:102E80002100A100890D893B8909A200A300A400AB
:102E9000A500A600A70020082000BF0021002108EF
:102EA0002000C000210022082000C10021002308CA
:102EB0002000C200210024082000C30021002508B2
:102EC0002000C400210026082000C500210027089A
:102ED0002000C6002100290886316A26963120008C
:102EE0004008DE003F08DD00FF2F5D0886008701F7
:102EF000403FDF00413FE0005F088400600885003C
:102F000012006E3A031D852F862FA52F5D088600BF
:102F100087010130810741310318810A5E0886006C
:102F20008701403F84008501810A0008DF005F08B7
:102F30002100A8002808860087015F08C03F6008BC
:102F4000C13F2000DD01DE01FF2F5D088600870103
:102F5000403FDF00413FE0005F08840060088500DB
:102F60001200253A031DB52FB62FD12F5D0886001C
:102F700087010130810741310318810A2530A600FD
:102F80000030A700210029082000DF005F08A8000A
:102F90009131E621963101302000DD000030DE0065
:102FA000FF2F5D088600870101308107413103183A
:102FB000810AA12F5D0886008701403FDF00413F65
:102FC000E0005F088400600885000008E100E2017D
:102FD0006108A6006208A700210029082000E3007C
:102FE0006308A8009131E621963120005D08860033
:102FF00087010130810741310318810ACB2F080076
:103000008A341834F3341834E3341834383412342E
:1030100074341034D53418348F341E348F3418344B
:1030200094341834993418349E341834A334183432
:10303000A8341834AD341834B234183407341E347C
:103040002D343E34203454344534533454342034F5
:1030500043344F344E3446344F3452344D34453477
:1030600020342D34203441345434543445344E34D7
:103070005434453420344134433451345534493484
:103080005434543445344D3445344E3454340D3472
:043090000A340034CA
:1030B8000800083424009614080024001615080097
:1030C8002400961508002400110808002000911516
:1030D80008009B3162239831080023001D121D1639
:1030E80008002400961616160800240096121616D4
:1030F80008009E316126983108001630210097009B
:103108000800F00070082400910008002300BC109B
:10311800BB010E30080098315E209831013008005C
:1031280098315E2098310230080098315E2098313D
:10313800013008009831612098310030080098313A
:1031480079209831053008009831752098310A3077
:103158000800983175209831093008002300BC1008
:10316800BB010E3008002400160E890C890C0139A9
:103178000800993149219831240016140800993122
:103188004921983124001615080064008001013196
:10319800890BCA280034FE0012001E00FE0BD0283E
:1031A800003423003C109831642098310430080022
:1031B8002000A50025089E313426983108002300F8
:1031C8003C14363598318520983103300800F030AA
:1031D80021009E009B019C0101309D0008002300F6
:1031E8003C140314360D98318520983105300800B9
:1031F800200024082200C600200023082200C50061
:103208000800200024082200CA0020002308220009
:10321800C9000800200024082200C8002000230854
:103228002200C7000800200024082200CC0020004B
:1032380023082200CB000800200024082100E60013
:10324800200023082100E500080001309A31FE2201
:1032580099313530890B2E290000080028302400C8
:103268009500960194012730920021008E150E16C4
:103278000800703021009900980122009601210071
:103288001A1F4729482943290800240014194D29E1
:103298004E29492916081F39031D5329542949293C
:1032A800080022008D1268302000A300E430890B4A
:1032B8005B29A30B5B29000008007608F10075085C
:1032C800F0007708F8007808F20000309D31B12549
:1032D800993108002000A3002308031974297529CF
:1032E800782922000C147A2922000C1008002000EA
:1032F800A300230803198129822985292200101493
:1033080087292200101008002000A30023080319B1
:103318008E298F2992292200901494292200901036
:1033280008002000A300230803199B299C299F2932
:1033380022001015A1292200101108002000A30066
:1033480023080319A829A929AC2922008C14AE291D
:1033580022008C1008002000A30023080319B529B7
:10336800B629B92922000C15BB2922000C11080026
:103378002000A30023080319C229C329C629220053
:103388000C16C82922000C1208002000A3002308EC
:103398000319CF29D029D32922008C16D529220038
:1033A8008C1208002000A30023080319DC29DD295A
:1033B800E02922008C15E22922008C110800220045
:1033C8008D1268302000A300E430890BE929A30B93
:1033D800E929000022008D160800F3002300BC1D17
:1033E800F629F729002A7308F2007208B700710855
:1033F800B9007008B800BC1108009B31EA239A3163
:1034080099313D219A31983181209A319831EB20B8
:103418009A319031BA209A3108002000A3009931DE
:1034280049219A3120002308240091002000911D91
:103438001E2A1F2A1A2A911108000230F0000030B3
:10344800F10079089931F1219A310030F500F60040
:10345800F701993161219A31043008000130F000F8
:103468000030F10079089931F1219A310030F500E6
:10347800F600F701993161219A31023008000230D3
:10348800F0000030F10079089931F1219A310030CB
:10349800F500F600F701993161219A3102300800F0
:1034A8000130F0000030F10079089931F1219A31AA
:1034B8000030F500F600F701993161219A310430A6
:1034C800080020008D19692A6A2A652A8D1D6D2A2F
:1034D8006E2A6A2AD0302000A300C930890B722ACC
:1034E800A30B722A003208000D340A340034003469
:1034F8000034003400340034003400340D340A340D
:103508000034003400340034003400340034003413
:103518002000A4009831BD209A31210069089A3111
:1035280011229A312000240821006E049A311122B8
:103538009A319831C3209A310800AF302000E90051
:1035480069082100AF002E082000E50021002D08A1
:103558002000E400AF30E9006908E60000309F3140
:103568001C279A31080020003408A4003308A3005F
:103578009B3148239A31200023083307A7002408E9
:10358800343DA8003608AA003508A9009D31392520
:103598009A310800790886008701403FF000413FD2
:1035A800F1007908023E8600870101089931F1216E
:1035B8009A310030F500F600F701993161219A310E
:1035C800023008002000A60021006A082000A5009B
:1035D8002508A604260804389A318C229A3120003E
:1035E8002608FB399A318C229A314230890BFA2A03
:1035F800003208002000A8002100EA012000280865
:10360800F0399A31E6229A3120002808A7000330C1
:10361800A735FF3E031D0C2B2735F0399A31E622DA
:103628009A3108002000A8002100EA01EA0A2000D7
:103638002808F0399A31E6229B3120002808A70093
:103648000330A735FF3E031D252B2735F0399A3166
:10365800E6229B3108004E309331CB239B3120006A
:103668003908AF003808AE003B08B1003A08B0008E
:103678003D08B3003C08B2003F08B5003E08B4005E
:10368800913195219B31080020002408A6002308C9
:10369800A500522B0130A3070030A43D2308860063
:1036A800240887000108031D5A2B5B2B4E2B250885
:1036B8002302A3002608243BA400080023001908BD
:1036C800F00020006C08C53E8600013087007008B5
:1036D80081000130F0007008EC0708306C02031C10
:1036E800762B772B782BEC010130F0007008EA0775
:1036F80008002000A400A30124080319842B852BAB
:103708008B2B8F1B882B892B8B2BA301A30A2408B7
:10371800031D8F2B902B962B8F1F932B942B962B5F
:10372800A301A30A230808002000A400A301240879
:1037380003199F2BA02BA62B0F19A32BA42BA62B69
:10374800A301A30A2408031DAA2BAB2BB12B0F1D21
:10375800AE2BAF2BB12BA301A30A2308080020002E
:10376800A300230A86000230870042300106031DA9
:10377800BE2BBF2BCC2B2308023E860002308700CD
:1037880058300106031DC92BCA2BCC2B0130CD2B79
:103798000030080020003708803AB800803038022E
:1037A800031DD82B013036020318DB2BDC2BE92B49
:1037B80020003609B8003709B900B80A0319B90A50
:1037C8003808B6003908B700E92B08002200900134
:1037D8008F018C018D018E010830210090008C0131
:1037E800CF308D00BF308E00FF308F0023008F0157
:1037F80037308D0090013C308C00240090018D0101
:103808002100951722009D01080022000C170630A0
:103818002000A4001330A300AD30890B112CA30B9A
:10382800112CA40B112C003222000C13063020009E
:10383800A4001330A300AD30890B202CA30B202C3F
:10384800A40B202C003208002000AC01AD013B2C59
:1038580029082C0784002A082D3D850000089B3183
:1038680016239C3101302000AC070030AD3D2908FB
:103878002C0784002A082D3D85001200031D452CC5
:10388800462C2C2C08002000A6002608A500A50D13
:10389800A50D21001D0820002506833925062100D5
:1038A8009D001D140D30890B572C000021009D141C
:1038B8009D185F2C602C5C2C1C082000A4002100A3
:1038C8001B082000A300080020302100AD0098301C
:1038D800AE009A31A1229C312100B101B201873199
:1038E800DA279C3101302100B1070030B23D32089F
:1038F800803AB00080303002031D842C023031023F
:10390800031C872C882C732C0800083021006C02BB
:1039180003188F2C902CA92C6D08CD3E8600013001
:103928008700010823009A000130F0007008210088
:10393800ED0708306D02031CA22CA32CA42CED016A
:103948000130F0007008EC07AA2C111208002000C2
:10395800A400A30124080319B22CB32CBD2C0F1CFE
:10396800B62CB72CBD2C8F18BA2CBB2CBD2CA301A0
:10397800A30A2408031DC12CC22CCC2C0F18C52C5B
:10398800C62CCC2C8F1CC92CCA2CCC2CA301A30A66
:10399800230808002000A400A30124080319D52C3B
:1039A800D62CE02C8F1DD92CDA2CE02C0F1ADD2C0C
:1039B800DE2CE02CA301A30A2408031DE42CE52C2B
:1039C800EF2C8F19E82CE92CEF2C0F1EEC2CED2C8A
:1039D800EF2CA301A30A230808002000A400A301D8
:1039E80024080319F82CF92C032D8F1EFC2CFD2C10
:1039F800032D0F1B002D012D032DA301A30A24085D
:103A0800031D072D082D122D8F1A0B2D0C2D122D8D
:103A18000F1F0F2D102D122DA301A30A2308080034
:103A28002000A80023032404031D1B2D1C2D272D73
:103A38000130A700250A212DA735890B202D27083D
:103A48002804A800382D23082404031D2C2D2D2D0F
:103A5800382D0130A700250A322DA735890B312DC5
:103A68002708FF3A2805A800080020002A08B00007
:103A78002908AF002808B2002708B1003208AC00B6
:103A88003108AB00B10A0319B20A2B0886002C08CA
:103A980087003008AE002F08AD00AF0A0319B00A3E
:103AA8002D0884002E0885000008C03F8908031DE2
:103AB8005E2D5F2D422D08002D343E3420344534D0
:103AC800523452344534553452343A342034003464
:103AD800003400340034003400340034003400343E
:103AE8002D343E3420344534523452344534553420
:103AF80052343A3420340034003400340034003472
:103B080000340034003400342000B500B301B4019F
:103B1800A02D3208AF00B0012F08A6003008A7007A
:103B28002E08B1003108A8009131E6219D310130FD
:103B38002000B3070030B43D33083507AF002F0825
:103B48008600023087000108B0003008B200320851
:103B5800031DAF2DB02D8D2D0800F40070087104E1
:103B68000319B72DB82DCB2D7435A03E8600013032
:103B780087007008C03F7108C13F7208F3007408DD
:103B8800AC3E86000130870073088100DA2D743559
:103B9800A03E8600013087000030C03F0830C13F9A
:103BA8007408AC3E860001308700810108002000BF
:103BB800A401A50122000D1606302000A300303014
:103BC800890BE42DA30BE42D000022000D12063012
:103BD8002000A3003030890BEF2DA30BEF2D000040
:103BE80001302000A4070030A53D2508803AA30035
:103BF80080302302031D022E32302402031C052EBE
:103C0800062EDE2D080023003C100230FA007A0848
:103C1800BB00162E983199209E31332E98319E2064
:103C28009E31332E2E08FA007A08F9000430A03E9F
:103C3800860001308700413F8A00403F0A009E31DC
:103C4800FB00FC017C08003A03192B2E122E7B087E
:103C5800023A03190E2E013A03190E2E122E0800ED
:103C68002000A40021006C0803193B2E3C2E362EA0
:103C7800111A3F2E402E452E2000240823009A00BA
:103C88005E2E111220002408A3007D08CD3E860078
:103C980001308700230881000130A3002308FD07B5
:103CA80008307D02031C592E5A2E5B2EFD0101306F
:103CB8002100EC02210011160800903100209E31ED
:103CC80023003C1C682E692E772E9831B7209E3130
:103CD800003A0319702E712E772E0F302000A000A5
:103CE80020082300BA0023003A082000A000A10100
:103CF800A035A10D0030200784009830213D8500B3
:103D0800013F8A00003F0A009E312000A2002208DD
:103D18002300BA0008002300BC159F2E9831992073
:103D28009E31BD2E98316A209E310330BD2E9831C8
:103D38009E209E31BD2E2C08FA007A08F900210831
:103D48008A0020080A009E31FB00FC017C08003A2A
:103D58000319AF2E9B2E7B08013A03199B2E033AB9
:103D68000319922E013A0319922E073A0319962E37
:103D78009B2E08002000AC00D92E2908BF3E9A319E
:103D8800FE229E31EC2E2908933E9A31FE229E3166
:103D9800EC2E2908D33E9A31FE229E31EC2E2908BA
:103DA8007F3E9A31FE229E31EC2E2C08AA00AB01F0
:103DB8002B08003A0319E12ED32E2A08023A0319D8
:103DC800C12E013A0319C72E073A0319CD2ED32E57
:103DD800080020006A080319F22EF32EED2E6B0856
:103DE800BD3E8600013087000108A300230821009A
:103DF800EB0020006B08C53E8600013087000108F3
:103E0800A3002308A4000130A3002308EB0708300F
:103E18006B02031C102F112F122FEB01210091129E
:103E280001302000EA022100911620002408080031
:103E38002100AA00200065082100AC0020006408C9
:103E48002100AB00DF01E0013F2FAB302000E7008D
:103E58006708DD006608E8006808DE0021002A0817
:103E68009631DE269F3120005D082100DF07200003
:103E78005E082100E03D2B0884002C088500120014
:103E8800031D472F482F292F60082000E500210037
:103E98005F082000E40008002000AE010730AF00F2
:103EA8000030B0009931E3219F3134302000A9005F
:103EB800F130890B5D2FA90B5D2F003220000D0C0E
:103EC800A900A90C290C0139AA00AB012A08AC00E9
:103ED8002B08AD002D08A4002C08A3003008A6006C
:103EE8002F08A5002E089D3114259F312000A90018
:103EF8002908AE00FF30AF07FF30B03DB01F852F57
:103F0800862F562F2E0808002100B400AF3020005D
:103F1800E90069082100B30034082000E9006908B5
:103F28002100B500B601B701B801B9012E0820007B
:103F3800E50021002D082000E400B330E9006908FD
:103F4800E600B5309F311C279F312000650821000D
:103F5800B200200064082100B100360834072000B0
:103F6800E9006908860002308700810121003208D3
:103F7800AE003108AD0008002000B500B301B4015F
:103F88009F3150279F312000B10033083507B20018
:103F98003208860002308700310881000130B307FB
:103FA8000030B43D3408803AB10080303102031D3E
:103FB800DF2F14303302031CE22FE32FC42F20001D
:103FC800350886000230870023300106031DED2FD7
:103FD800EE2FF62F2030B10035088600023087001A
:103FE800310881003508133E8600023087008101C0
:103FF800993155219F3108002D343E3420345034F6
:1040080052344F344734523441344D344D344134B2
:10401800543449344F344E3420344D344F344434BE
:1040280055344C34453420343134203454344534F8
:1040380052344D3449344E34453445340D340A3401
:1040480000342D343E342034503452344F34473405
:10405800523441344D344D344134543449344F345E
:104068004E3420344D344F34443455344C34453474
:104078002034323420345434453452344D344934A5
:104088004E34453445340D340A34003441347434E4
:10409800743465346E347434653420347634613461
:1040A8006C34693464346134743469346F346E3414
:1040B80020346C3465346434203472346F3475348D
:1040C800673465340D340A3400342D343E342034DA
:1040D800503452344F344734523441344D344D34D3
:1040E8004134543449344F344E34203454344534F4
:1040F80052344D3449344E34453445340D340A3441
:1041080000342D343E342034503452344F34473444
:10411800523441344D344D344134543449344F349D
:104128004E34203445344E34203443344F345534DF
:10413800523453340D340A3400342D343E34203490
:104148004534523452344534553452342034503482
:1041580052344F344734523441344D344D34413461
:10416800543449344F344E340D340A3400342D3429
:104178003E342034543445345334543420344D348C
:1041880041344E34553445344C34203445344E345F
:10419800203443344F345534523453340D340A34B4
:1041A800003441345434543445344E345434453452
:1041B8002034563441344C34493444344134543432
:1041C80049344F344E3420344C3445344434533419
:1041D8000D340A3400342D343E34203453344C34F6
:1041E80041345634453420345234453453345034F1
:1041F8004F344E345334453420344E3455344C34D3
:104208004C340D340A3400342D343E3420344534D3
:10421800463446344134433445344D3445344E34C1
:104228005434203445344E34203443344F345534D8
:10423800523453340D340A3400342D343E3420348F
:1042480053344C34413456344534203445344E3498
:1042580044342034503452344F34473420344B34AF
:10426800383420344F344634463400342D343E3408
:1042780020344534463446344134433445344D348F
:1042880045344E34543420345434453452344D3447
:1042980049344E3445340D340A3400342D343E3418
:1042A800203453344C344134563445345F34543418
:1042B800453453345434203447344534543420344A
:1042C8004134433451340D340A3400342D343E34EF
:1042D800203453344C344134563445345F345434E8
:1042E800453453345434203447344534543420341A
:1042F8004F344B340D340A3400342D343E342034DA
:1043080053344C344134563445345F345434453492
:1043180053345434203447344534543420344B34E3
:104328004F340D340A3400342D343E3420345334A1
:104338004C344134563445342034543445345334A1
:104348005434203443344F344E3446344F3452348A
:104358004D34453400342D343E34203453344C34F9
:104368004134563445342034543445345334543469
:10437800203441344334513455344934543454345A
:10438800453400342D343E34203453344C344134D5
:10439800563445345F34503452344F344734203423
:1043A800533454344134523454340D340A340034C0
:1043B8002D343E342034463449344E342034543479
:1043C80045345334543420344D3441344E34553408
:1043D80045344C340D340A3400342D343E34203402
:1043E80053344C34413456344534203445344E34F7
:1043F800203441345434543445344E3454344534E0
:104408003A3400342D343E34203453344C3441345F
:10441800563445345F34543445345334543420349A
:1044280047344534543420344F344B340034453405
:104438005234523445345534523420345034523482
:104448004F344734523441344D344D34413454346C
:1044580049344F344E340034503452344534533494
:1044680053344534523420344F344B3420344F3491
:10447800553420344534523452344534553452344A
:104488000034413443345134553449345334493475
:10449800543449344F344E34203445344E34203467
:1044A80043344F3455345234533400344134543443
:1044B800543445344E345434453420344134433430
:1044C8005134553449345434543445344D344534D6
:1044D8004E34543400342D343E3420344134703456
:1044E80070347534793465347234203473347534E7
:1044F800723420344F344B340D340A3400342D34A4
:104508003E34203453344C3441345634453420340A
:10451800503452344F34473420344B3438342034F8
:104528004F344E34003454344534533454342034E6
:104538005234313420344F344634463420342D3408
:1045480020345234323420344F344E34003454340E
:1045580045345334543420345234323420344F34B4
:104568004634463420342D34203452343334203405
:104578004F344E3400342D343E34203454344534D2
:104588005334543420344134433451345534493449
:104598005434543445340D340A3400342D343E3404
:1045A800203453344C344134563445345F34543415
:1045B80045345334543420344F344E340D340A3493
:1045C800003454344534533454342034433441345F
:1045D8005234543445342034443439343234353444
:1045E80045344434343400342D343E342034533488
:1045F8004C344134563445345434453453345434AB
:104608003A34313430343A34313400342D343E3491
:10461800203453344C3441345634453454344534BE
:10462800533454343A34313431343A343134003434
:104638002D343E34203453344C34413456344534CC
:1046480054344534533454343A34313432343A34AB
:10465800313400342D343E34203453344C34413416
:104668005634453454344534533454343A3431345C
:1046780033343A34313400342D343E342034533416
:104688004C3441345634453454344534533454341A
:104698003A34313434343A34313400342D343E34FD
:1046A800203453344C34413456344534543445342E
:1046B800533454343A34313435343A3431340034A0
:1046C8002D343E34203453344C344134563445343C
:1046D80054344534533454343A34313436343A3417
:1046E800313400342D343E34203453344C34413486
:1046F8005634453454344534533454343A343134CC
:1047080037343A34313400342D343E342034533481
:104718004C34413456344534543445345334543489
:104728003A34313438343A34313400345634453438
:1047380052344934463449344534523420345034A0
:104748003134203445345434203450343234003435
:1047580052344534533455344C345434413454343D
:10476800203443344F344E344634493452344D3473
:1047780045340034543445345334543420344E349E
:104788004F344E34203443344F344E3446344F344F
:1047980052344D3445340034463449344E34203490
:1047A800503452344F344734523441344D344D34FC
:1047B8004134543449344F344E34003450344F3437
:1047C80053344934543449344F344E344E344534D8
:1047D8005234203443344134523454344534003450
:1047E800543445345334543420343334203452341C
:1047F80045344C3441344934533420344F344634EE
:10480800463400342D343E34203453344C3441344F
:104818005634453454344534533454343A343134AA
:104828003A34313400342D343E34203453344C344B
:1048380041345634453454344534533454343A347A
:1048480032343A34313400342D343E342034533445
:104858004C34413456344534543445345334543448
:104868003A3433343A34313400342D343E3420343D
:1048780053344C3441345634453454344534533429
:1048880054343A3434343A34313400342D343E34E8
:10489800203453344C34413456344534543445343C
:1048A800533454343A3435343A34313400342D34B2
:1048B8003E34203453344C34413456344534543423
:1048C8004534533454343A3436343A343134003479
:1048D8002D343E34203453344C344134563445342A
:1048E80054344534533454343A3437343A34313404
:1048F80000342D343E34203453344C34413456344F
:10490800453454344534533454343A3438343A34CE
:10491800313400342D343E34203453344C34413453
:104928005634453454344534533454343A34393491
:104938003A34313400342D343E34203453344C343A
:104948004134563445342034453452345234453495
:10495800553452343A3400342D343E3420345334F0
:104968004C3441345634453420345434453453346B
:10497800543420344F344B3400342D343E342034F6
:1049880053344C344134563445342034543445344B
:104998005334543420344B344F34003443344C347F
:1049A8004134563449344534523420344534433440
:1049B8004C3441344934523445343F340034503453
:1049C80052344534533453344534523420344F34FC
:1049D8004B3420342F3420344E344F344B3400348D
:1049E800543445345334543420343334203452341A
:1049F80045344C3441344934533420344F344E34E4
:104A08000034543445345334543420344C3445340D
:104A18004434203443344C344134563449344534D6
:104A28005234003443344C344134563449344534D8
:104A38005234203445345434453449344E34543493
:104A48003F340034543445345334543420344C34D3
:104A58004534443453342034433441345234543488
:104A68004534003445345234523445345534523484
:104A78002034563441344C34493444344534453474
:104A880000344D344F34443455344C344534203498
:104A98004534533443344C3441345634453400346B
:104AA800463449344E34203445344634463441344F
:104AB800433445344D3445344E345434003454343E
:104AC80045345334543420344C344534443420343D
:104AD80052344F3455344734453400345434453413
:104AE8005334543420344C3445344434203456340C
:104AF80045345234543445340034543445345334F2
:104B0800543420344C3445344434203442344C3406
:104B180045345534453400345434453453345434CE
:104B2800203442344C345534453454344F344F34A3
:104B380054344834003441345034503455345934A2
:104B480045345234203453345534523420344F349D
:104B58004B3400344D344F34443455344C3445349C
:104B680020344D34413449345434523445340034BB
:104B78005234453454344934523445345234203450
:104B88004334413452345434453400344C3445347D
:104B980044345334203441344C344C3455344D343B
:104BA80045344534533400342D343E3420345434A1
:104BB80045345334543420344F344E340D340A348D
:104BC80000342D343E342034543445345334543472
:104BD8003A34313430343A34313400342D343E34BC
:104BE800203454344534533454343A343134323420
:104BF8003A34313400342D343E342034543445347E
:104C0800533454343A34313433343A34313400344C
:104C18002D343E34203454344534533454343A34E7
:104C2800313434343A34313400342D343E34203481
:104C380054344534533454343A34313435343A34B2
:104C4800313400342D343E34203454344534533414
:104C580054343A34313436343A34313400342D341F
:104C68003E34203454344534533454343A34313493
:104C780037343A34313400342D343E34203454340B
:104C88004534533454343A34313438343A34313482
:104C980000345434453453345434203448344F3475
:104CA80052344C344F344734453400344634493454
:104CB8004E34203444344534203454344534533449
:104CC800543400342D343E34203454344534533471
:104CD80054343A3431343A34313400342D343E3497
:104CE800203454344534533454343A3432343A3416
:104CF800313400342D343E34203454344534533464
:104D080054343A3433343A34313400342D343E3464
:104D1800203454344534533454343A3434343A34E3
:104D2800313400342D343E34203454344534533433
:104D380054343A3435343A34313400342D343E3432
:104D4800203454344534533454343A3436343A34B1
:104D5800313400342D343E34203454344534533403
:104D680054343A3437343A34313400342D343E3400
:104D7800203454344534533454343A3438343A347F
:104D8800313400342D343E342034543445345334D3
:104D980054343A3439343A343134003454344534A0
:104DA800533454342034533446344C34413453341B
:104DB8004834003456344F34493452342034413462
:104DC800503450344C34493400345434453453341A
:104DD800543420345234313420344F344E34003477
:104DE800453454344134503445342034313430342B
:104DF800003445345434413450344534203431344B
:104E08003234003454344534533454342034423426
:104E180050343234003445345434413450344534F9
:104E2800203431343334003445345434413450342C
:104E38004534203431343434003445345434413426
:104E48005034453420343134353400344534543406
:104E58004134503445342034313436340034453408
:104E680054344134503445342034313437340034E8
:104E78004534543441345034453420343134383492
:104E880000344534543441345034453420343134BA
:104E98000034543445345334543420345034313489
:104EA8000034453454344134503445342034323499
:104EB8000034543445345334543420345034323468
:104EC8000034453454344134503445342034333478
:104ED8000034453454344134503445342034343467
:104EE8000034453454344134503445342034353456
:104EF8000034453454344134503445342034363445
:104F08000034453454344134503445342034373433
:104F18000034453454344134503445342034383422
:104F28000034453454344134503445342034393411
:084F3800003425346434003418
:020000040001F9
:08000000FF3FFF3FFF3FFF3F00
:04000E00E43FFF3F8D
:00000001FF
