:1000000080314A28053008007E1480310B1F0928F2
:100010000A2848282100111E0E280F281B2820001E
:10002000111E132814281B28210066088A00650861
:100030000A00803148282100911E1F2820282C28E2
:100040002000911E242825282C2822004A088A00F6
:1000500049080A00803148282100921D30283128A3
:100060003D282000921D352836283D2821006808AB
:100070008A0067080A00803148282100911D412824
:10008000422848282000911D46284728482836281D
:100090007E10090080314C28210098314A2080319F
:1000A000EE00E730840099308500DB3086000130B7
:1000B000870014308731FA278031EF3084009C307C
:1000C0008500203086000230870028308731FA27EB
:1000D0008031FD012000EA01EB01EC01DF308400FA
:1000E000003085000F30A731F32780312200C50191
:1000F000C601C701C801C901CA01A030840001308E
:1001000085003B30A731F32780314830840002302E
:1001100085002030A731F32780317E1020008B31FD
:10012000752BCD302000B800A730B9002830BA00B8
:10013000A530BB00E430BC00A430BD002430BE00BC
:10014000A030BF009A31B3228031013099311121A2
:10015000803106302200C2001330C100AD30890B5F
:10016000AF28C10BAF28C20BAF2800320030993145
:10017000112180310B302200C2002630C1005D30D9
:10018000890BC028C10BC028C20BC02800320C301C
:100190009B31B0238031200024082500C4002000BA
:1001A00023082500C30000302100AD00B030AE00B0
:1001B000250044082100B000250043082100AF00BD
:1001C000BC309F314727803121002E082500B60022
:1001D00021002D082500B5004408803A2200C10006
:1001E00083304102031DF728203025004302031805
:1001F000FA28FB28062922008C1706302100AD00C2
:10020000A730AE009A31252280314029CD3021001F
:10021000B000A730B100C830B2000230B300C73020
:10022000B4000230B500933142238031CD3020003C
:10023000AE00A730AF002830B000A530B100BC3010
:10024000B2000230B3002430B400A030B5009131C8
:100250003C21803122008C13C6302100B8000230CE
:10026000B900C830BA000230BB00C730BC00023051
:10027000BD00C530BE000230BF0092313622803151
:1002800015302200C2004B30C100BE30890B462918
:10029000C10B4629C20B4629000025004808031956
:1002A000522953290F2A34302000B800A730B90052
:1002B0002830BA00A530BB003930BC00A530BD00E5
:1002C0002430BE00A030BF009A31B322803101300B
:1002D00099311121803106302200C2001330C10053
:1002E000AD30890B7129C10B7129C20B7129003204
:1002F00000309931112180310B302200C2002630AC
:10030000C1005D30890B8229C10B8229C20B822971
:1003100000320C309B31B0238031200024082500AE
:10032000C400200023082500C30000302100AD00D8
:10033000B030AE00250044082100B000250043087D
:100340002100AF00BC309F314727803121002E08AB
:100350002500B80021002D082500B7004408803A88
:100360002200C10082304102031DB929BC302500A2
:1003700043020318BC29BD29C82922008C1325304B
:100380002100AD00A630AE009A3125228031022A2C
:1003900034302100B000A730B100C830B2000230C4
:1003A000B300C730B4000230B5009331422380312E
:1003B00034302000B800A730B9002830BA00A5308A
:1003C000BB00BC30BC000230BD002430BE00A030F9
:1003D000BF009A31B322803122008C17C630210031
:1003E000B8000230B900C830BA000230BB00C730D4
:1003F000BC000230BD00C530BE000230BF009231EB
:100400003622803115302200C2004B30C100BE3090
:10041000890B082AC10B082AC20B082A00002500F4
:1004200048080319142A152AE12A3D302000B80093
:10043000A730B9001230BA00A730BB002430BC008E
:10044000A030BD002430BE00A030BF009A31B322DE
:1004500080310B302200C2002630C1005D30890B94
:100460002F2AC10B2F2AC20B2F2A003201309931BB
:100470001121803106302200C2001330C100AD309E
:10048000890B402AC10B402AC20B402A003200309F
:100490009931112180313D302200C200E130C1008C
:1004A0003F30890B512AC10B512AC20B512A00320D
:1004B000013099311121803106302200C200133001
:1004C000C100AD30890B622AC10B622AC20B622ABD
:1004D0000032003099311121803110302200C200E9
:1004E0003930C1000D30890B732AC10B732AC20B3E
:1004F000732A003201309C3114248031003A0319F0
:10050000822A832A9E2A01309C3137248031003A86
:1005100003198B2A8C2A9E2A00309C315A24803160
:10052000003A0319942A952A9E2A32302100AD0000
:10053000A630AE009A3125228031CC2A2500C80190
:100540000030993111218031003099311E218031E4
:100550003D302100B000A730B100C830B2000230F9
:10056000B300C730B4000230B5009331422380316C
:10057000C6302100B8000230B900C830BA000230DD
:10058000BB00C730BC000230BD00C530BE00023029
:10059000BF009231362280310B302200C20026305B
:1005A000C1005D30890BD22AC10BD22AC20BD22ADC
:1005B00000320030993111218031003099311E21F3
:1005C0008031250048080319E62AE72A552B4F30C9
:1005D0002000B800A730B9004930BA00A530BB00F0
:1005E0000A30BC00A630BD000630BE00A530BF00FA
:1005F0009A31B32280310130993111218031063096
:100600002200C2001330C100AD30890B052BC10B95
:10061000052BC20B052B003200309931112180319E
:10062000D5302100AD00A030AE009A3125228031B6
:10063000250046089431572480312200C10041082A
:100640002500C7004708031D262B272B4D2BC8016B
:100650004F302100B000A730B100C830B2000230E6
:10066000B300C730B4000230B5009331422380316B
:10067000C6302100B8000230B900C830BA000230DC
:10068000BB00C730BC000230BD00C530BE00023028
:10069000BF00923136228031552B3F302100AD0012
:1006A000A630AE009A312522803125004808031972
:1006B0005A2B5B2BDB2B58302000B800A730B90039
:1006C0004630BA00A730BB002430BC00A030BD00CB
:1006D0002430BE00A030BF009A31B32280310130F7
:1006E00099311E21803106302200C2001330C10032
:1006F000AD30890B792BC10B792BC20B792B0032D2
:10070000003099311E2180310B302200C20026308A
:10071000C1005D30890B8A2BC10B8A2BC20B8A2B3F
:10072000003201309C3114248031003A0319992B96
:100730009A2BB52B01309C3137248031003A0319B4
:10074000A22BA32BB52B01309C315A248031003AC7
:100750000319AB2BAC2BB52B4C302100AD00A630D0
:10076000AE009A3125228031DB2B2500C80158309C
:100770002100B000A730B100C830B2000230B30091
:10078000C730B4000230B500933142238031C63007
:100790002100B8000230B900C830BA000230BB00F6
:1007A000C730BC000230BD00C530BE000230BF0003
:1007B000923136228031250048080319E02BE12BC5
:1007C000612C61302000B800A730B9008D30BA002C
:1007D000A630BB002430BC00A030BD002430BE00D9
:1007E000A030BF009A31B3228031013099314521C8
:1007F000803106302200C2001330C100AD30890BB9
:10080000FF2BC10BFF2BC20BFF2B003200309931A5
:10081000452180310B302200C2002630C1005D30FE
:10082000890B102CC10B102CC20B102C0032003085
:100830009C3114248031003A03191F2C202C3B2CAE
:1008400000309C3137248031003A0319282C292CA0
:100850003B2C00309C315A248031003A0319312C52
:10086000322C3B2C59302100AD00A630AE009A311D
:1008700025228031612C2500C80161302100B000A3
:10088000A730B100C830B2000230B300C730B400A6
:100890000230B500933142238031C6302100B800C8
:1008A0000230B900C830BA000230BB00C730BC000B
:1008B0000230BD00C530BE000230BF00923136228A
:1008C0008031250048080319662C672CE12C6A301A
:1008D0002000B800A730B9008530BA00A730BB00AF
:1008E0002430BC00A030BD002430BE00A030BF00CA
:1008F0009A31B3228031013099312B218031193066
:100900002200C2005A30C100B130890B852CC10BC6
:10091000852CC20B852C0032003099312B2180317F
:100920000B302200C2002630C1005D30890B962CAE
:10093000C10B962CC20B962C003201309C31142432
:100940008031003A0319A52CA62CC12C01309C3112
:1009500037248031003A0319AE2CAF2CC12C013062
:100960009C315A248031003A0319B72CB82CC12C81
:1009700066302100AD00A630AE009A3125228031CC
:10098000E12C6A302100D700A730D800C8302200FF
:10099000C10041082100D900C7302200C20042082E
:1009A0002100DA00C6302200C30043082100DB002A
:1009B000C5302200C40044082100DC0088316C20CE
:1009C0008031250048080319E62CE72C672D733089
:1009D0002000B800A730B9009530BA00A730BB009E
:1009E0002430BC00A030BD002430BE00A030BF00C9
:1009F0009A31B32280310130993138218031193058
:100A00002200C2005A30C100B130890B052DC10B44
:100A1000052DC20B052D003200309931382180316F
:100A20000B302200C2002630C1005D30890B162D2C
:100A3000C10B162DC20B162D003200309C31142430
:100A40008031003A0319252D262D412D00309C318F
:100A500037248031003A03192E2D2F2D412D0030DF
:100A60009C315A248031003A0319372D382D412DFD
:100A700073302100AD00A630AE009A3125228031BE
:100A8000672D2500C80173302100B000A730B100E8
:100A9000C830B2000230B300C730B4000230B50035
:100AA000933142238031C6302100B8000230B900B2
:100AB000C830BA000230BB00C730BC000230BD00F5
:100AC000C530BE000230BF00923136228031250091
:100AD000480803196C2D6D2D342E7C302000B80091
:100AE000A730B900C230BA00A530BB004530BC0009
:100AF000A230BD002430BE00A030BF009A31B32226
:100B000080319B317223803103302200C2000830D3
:100B1000C1007730890B8A2DC10B8A2DC20B8A2D1B
:100B200002302000A3000030A4009E31AB268031AB
:100B300092318D2280312200C10041082500C10080
:100B40004108031DA42DA52DBC2DF5302000B800B3
:100B5000A430B900E030BA00A530BB000630BC00BC
:100B6000A430BD008630BE00A530BF009A31B3224C
:100B700080319A311022803103302000A3000030F0
:100B8000A4009E31AB2680319931D4218031A03030
:100B90009F317F27803103302200C2000830C1001E
:100BA0007730890BD12DC10BD12DC20BD12D7C30CB
:100BB0002000B800A730B900C230BA00A530BB0091
:100BC000A030BC000230BD002430BE00A030BF0009
:100BD0009A31B3228031A030903100208031220040
:100BE000C10041082500C7004708031DF82DF92D55
:100BF0002C2EC8017C302100B000A730B100C830D5
:100C0000B2000230B300C730B4000230B5009331F7
:100C100042238031C6302100B8000230B900C8300C
:100C2000BA000230BB00C730BC000230BD00C53086
:100C3000BE000230BF0092313622803115302200D2
:100C4000C2004B30C100BE30890B242EC10B242EB4
:100C5000C20B242E0000342E80302100AD00A630BF
:100C6000AE009A3125228031250048080319392E1B
:100C70003B2E8B31A62BA1302000B800A130B9004B
:100C8000A030BA000230BB00FC30BC00A530BD0073
:100C90005A30BE00A230BF009A31B32280310130F9
:100CA0009831EA20803100309831DD2080319B314D
:100CB000D1238031C6302100B0000230B100C830ED
:100CC000B2000230B300883105208031C8302100E5
:100CD000B0000230B100C730B2000230B300C630FD
:100CE000B4000230B500C530B6000230B700903114
:100CF000F120803115302200C2004B30C100BE30DF
:100D0000890B802EC10B802EC20B802E0000392E45
:100D100080314A282000CA003F08D3004008D40090
:100D20004108D5004208D6004308D7004408D8003F
:100D30004508D9004608DA005330860000308700A5
:100D4000473FC700C71BA52EA72E0130A82E003095
:100D50002000C800C9014808D1004908D200510844
:100D600052040319B42EB52ED32ED309D409D509B4
:100D7000D609D709D809D909DA09D30A031DD32E10
:100D8000D40A031DD32ED50A031DD32ED60A031D64
:100D9000D32ED70A031DD32ED80A031DD32ED90A6A
:100DA000031DD32EDA0A2100E21BD72ED82EDC2E0B
:100DB000FD30E305FF30E4056208803A2000C700FB
:100DC00080304702031DE72E013021006102031825
:100DD000EA2EEB2EF12E01302000CD000030CE00A7
:100DE000F92E210062082000CE00210061082000B9
:100DF000CD00230056082000D00023005508200015
:100E0000CF0051085204031D062F072F0C2F21007D
:100E1000631D0B2F0C2F112FFF302000CF07FF3049
:100E2000D03D1F302000DB000030DC002400E70153
:100E3000822FFF302000DB07FF30DC3D0A30A300AB
:100E4000A401A501A601A701A801A901AA015308AF
:100E5000AB005408AC005508AD005608AE0057086A
:100E6000AF005808B0005908B1005A08B2009431D8
:100E7000EC24863120002408B7002308B6009B31FB
:100E80003723863120003608303EC7005B08483ED5
:100E900086000230870047088100FF30CD07FF3011
:100EA000CE3DFF30CF07FF30D03D0A30A300A40174
:100EB000A501A601A701A801A901AA015308AB0039
:100EC0005408AC005508AD005608AE005708AF00F6
:100ED0005808B0005908B1005A08B2009531D92518
:100EE000863120002308D3002408D4002508D5002B
:100EF0002608D6002708D7002808D8002908D900D6
:100F00002A08DA0020005C08803AC70080304702D7
:100F1000031D8C2F01305B02031C8F2F902FBD2FE0
:100F20002000530854045504560457045804590427
:100F30005A04031D9C2F9D2F192F4E08803AC7007D
:100F400080304702031DA62F01304D020318A92F40
:100F5000AA2F192F20005008803AC700803047027E
:100F6000031DB42F01304F02031CB72FB82FBD2F24
:100F70002100E318BC2FBD2F192F20005108520467
:100F8000031DC32FC42FC92F2100631DC82FC92FD4
:100F9000E62FFF302000DB07FF30DC3D5108520414
:100FA000031DD32FD42FD92F2B30CB000030CC00F2
:100FB000DD2F2D30CB000030CC004B08C7005B0884
:100FC000483E8600023087004708810020005B0809
:100FD000483EC7004708B6005008B8004F08B700A1
:100FE0004A089231E622863120003708C0003608D0
:100FF000BF000800FE0012001E00FE0BFB2F003495
:101000002300BC10BB010E3008002100B701652889
:1010100020000F190C280D282228DC302100AD00FB
:10102000A130AE009A31252288312100B701B70ADC
:1010300030088600310887008101320886003308B5
:101040008700810120006A080319272828286528BD
:101050009E317C2688312100B4003408B600552822
:1010600001006528BF30AD00A230AE009A312522C4
:10107000883121003008860031088700810132085C
:10108000860033088700810102302100B50004305A
:10109000B400BA30890B4A28B40B4A28B50B4A2849
:1010A00000002100B701B70A65283608B400B50171
:1010B0003508003A03195D2865283408303A0319C9
:1010C0003028043A0319322865282100370803190B
:1010D0006A286B2808280800203086000230870024
:1010E0002A3084000130850014302100DD00160014
:1010F0001A00DD0B7728DB308600013087002030B6
:101100008400013085000A30DD0016001A00DD0B76
:10111000852801309831F720883101309931042138
:10112000883100309831EA208831210058082000A9
:10113000AF00210057082000AE00BE30B000A33041
:10114000B1009A30B200A330B3003030B400A23006
:10115000B50091313C2188312A302000B3000130A4
:10116000B400210058082000B600210057082000D4
:10117000B5009A313B228831200034082200BF009C
:10118000200033082200BE003F082000B4002200E7
:101190003E082000B3002030B5000130B6009A317F
:1011A0003B228831200034082100AE0020003308A3
:1011B0002100AD009A31252288319031A920883153
:1011C00021005B0886000230870001089431572413
:1011D00088312100DD005D082200C0000B302100B5
:1011E000DE002630DD005D30890BF428DD0BF428AD
:1011F000DE0BF428003222004008031900290129DF
:1012000035292100590886000230870081015A08DB
:1012100086000230870081016A302000AE00A730CE
:10122000AF00C330B000A330B100AC30B200A33087
:10123000B3005A30B400A230B50091313C2188315E
:10124000DB302100B8000030B900D930BA000030DE
:10125000BB00DA30BC000030BD00DC30BE00003026
:10126000BF00923136228831BD296A302000AE009D
:10127000A730AF008530B000A730B1002430B200F5
:10128000A030B3002430B400A030B50091313C212F
:10129000883100309831F7208831013099310421AC
:1012A000883100309831EA208831013099312B2182
:1012B000883119302100DE005A30DD00B130890B51
:1012C0005F29DD0B5F29DE0B5F2900320030993189
:1012D0002B21883115302100DE004B30DD00BE307F
:1012E000890B7029DD0B7029DE0B7029000001309D
:1012F0009C3114248831003A03197F298029A729B9
:1013000001309C3137248831003A03198829892912
:10131000A72901309C315A248831003A03199129B8
:101320009229A7296A302000AE00A730AF0085308F
:10133000B000A730B1005930B200A530B300CB30B7
:10134000B400A430B50091313C218831BD29210081
:10135000590886000230870081016A30B000A7304A
:10136000B100D930B2000030B300DA30B400003040
:10137000B500933142238831202908002100B600AE
:10138000B5016E2B20000F19C629C729E229BB30F1
:101390002100AD00A030AE009A3125228931210014
:1013A000B501B50A36088600023087008101310890
:1013B00086000230870081013008860002308700F5
:1013C0008101810A20006A080319E729E8296E2BA8
:1013D0009E317C2689312100B2003208B4004F2BA7
:1013E000010018302100AD00A630AE009A31252250
:1013F0008931210036088600023087008101810A88
:1014000030088600023087008101810A3108860099
:1014100002308700810102302100B3000430B200A5
:10142000BA30890B112AB20B112AB30B112A000012
:101430002100B501B50A6E2BA130AD00A030AE0081
:101440009A3125228931E5302000AE00A230AF006C
:101450002430B000A030B1001B30B200A230B30085
:101460002430B400A030B50091313C2189312100F5
:1014700036088600023087008101810A023021008F
:10148000B3000430B200BA30890B442AB20B442AAC
:10149000B30B442A00002100B501B50A30088600CC
:1014A00002308700810122008C136E2B8530AD0045
:1014B000A030AE009A3125228931E5302000AE00FF
:1014C000A230AF002430B000A030B100D430B20060
:1014D000A330B3002430B400A030B50091313C21DA
:1014E0008931210036088600023087008101810A97
:1014F0003008860002308700810131088600023002
:101500008700810102302100B3000430B200BA30FC
:10151000890B882AB20B882AB30B882A0000210085
:10152000B501B50A22008C176E2B6930AD00A030D2
:10153000AE009A3125228931E5302000AE00A2307C
:10154000AF002430B000A030B100D030B200A330E2
:10155000B3002430B400A030B50091313C21893172
:10156000210036088600023087008101810A02309E
:101570002100B3000430B200BA30890BBD2AB20B8F
:10158000BD2AB30BBD2A00002100B501B50A300801
:10159000860002308700810122008C136E2B0830F8
:1015A000AD00A130AE009A3125228931E53020000E
:1015B000AE00A230AF002430B000A030B1007B30CC
:1015C000B200A530B3002430B400A030B500913192
:1015D0003C218931210036088600023087008101D4
:1015E000810A3008860002308700810131088600B8
:1015F000023087008101810A02302100B3000430EB
:10160000B200BA30890B022BB20B022BB30B022BA8
:1016100000002100B501B50A22008C176E2B3A306C
:10162000AD00A130AE009A3125228931E53020008D
:10163000AE00A230AF002430B000A030B10077304F
:10164000B200A530B3002430B400A030B500913111
:101650003C21893121003608860002308700810153
:10166000810A300886000230870081013108860037
:10167000023087008101810A02302100B30004306A
:10168000B200BA30890B422BB20B422BB30B422B68
:1016900000002100B501B50A22008C136E2B34081E
:1016A000B200B3013308003A0319572B6E2B3208EE
:1016B000303A0319F029013A0319F129043A0319C0
:1016C0000F2B033A03191C2A013A0319562A0F3A21
:1016D0000319CF2A013A0319952A6E2B21003508E8
:1016E0000319732B742BC2290800993170218B3197
:1016F0008B170B172500C801C701C601C501C50A14
:10170000B901B90ABA01BB01C1019831A1208B31DD
:1017100020000E1C8C2B8D2B912B2500C201C20AA0
:10172000932B2500C20120008E18972B982B992B04
:10173000992B3D302200C200E130C1003F30890BBF
:101740009F2BC10B9F2BC20B9F2B0032E53020003B
:10175000B800A230B900EE30BA00A530BB00E230CC
:10176000BC00A330BD00D130BE00A530BF009A310F
:10177000B3228B3103302200C2000830C100773021
:10178000890BC02BC10BC02BC20BC02B22008C13AA
:101790008D12DA2BC8302200C10041082100B000B0
:1017A000C5302200C20042082100B100C630893194
:1017B000BE218B31250048080319DF2BE02BCA2BF3
:1017C0009C31A2248B3101302000A3000030A40002
:1017D0009E31AB268B3103302200C2000830C1009D
:1017E0007730890BF12BC10BF12BC20BF12B2500AC
:1017F000C501C801C80A00309831EA208B31003099
:101800009831F7208B310130993104218B3103302D
:101810002200C2000830C1007730890B0D2CC10BAB
:101820000D2CC20B0D2C8D302000B800A530B90056
:101830001730BA00A530BB002430BC00A030BD007A
:101840002430BE00A030BF009A31B3228B3101306A
:10185000993111218B31013099311E218B310B309F
:101860002200C2002630C1005D30890B352CC10B2F
:10187000352CC20B352C003201309831DD208B31F4
:1018800029302200C2009630C1007F30890B462CDF
:10189000C10B462CC20B462C01309C3114248B31D9
:1018A000003A0319542C552C702C01309C313724EC
:1018B0008B31003A03195D2C5E2C702C01309C3169
:1018C0005A248B31003A0319662C672C702CA630F1
:1018D0002100AD00A630AE009A3125228B319E2C1E
:1018E0002500C8010030993111218B310030993128
:1018F0001E218B318D302100B000A530B100C830E1
:10190000B2000230B300C730B4000230B5009331EA
:1019100042238B31C6302100B8000230B900C830F4
:10192000BA000230BB00C730BC000230BD00C53079
:10193000BE000230BF00923136228B310B302200C4
:10194000C2002630C1005D30890BA42CC10BA42C31
:10195000C20BA42C00320030993111218B310030A0
:1019600099311E218B31250048080319B82CB92C58
:101970002C2D8D302000B800A730B900F430BA000B
:10198000A330BB002430BC00A030BD002430BE001A
:10199000A030BF009A31B3228B3100309931112130
:1019A0008B31003099311E218B310B302200C20067
:1019B0002630C1005D30890BDB2CC10BDB2CC20B48
:1019C000DB2C003201309C3114248B31003A031D92
:1019D000EA2CEB2C062D01309C3137248B31003A58
:1019E000031DF32CF42C062D01309C315A248B312D
:1019F000003A031DFC2CFD2C062DB2302100AD0059
:101A0000A630AE009A3125228B312C2D2500C8013D
:101A10008D302100B000A730B100C830B2000230D4
:101A2000B300C730B4000230B500933142238B318C
:101A3000C6302100B8000230B900C830BA00023008
:101A4000BB00C730BC000230BD00C530BE00023054
:101A5000BF00923136228B31250048080319312D01
:101A6000322DA62D9D302000B800A730B90095304A
:101A7000BA00A530BB002430BC00A030BD0024302B
:101A8000BE00A030BF009A31B3228B3101309931B2
:101A900011218B3106302200C2001330C100AD305D
:101AA000890B502DC10B502DC20B502D0032003030
:101AB000993111218B31250042080319602D612DC8
:101AC000A62D4A302100AD00A030AE009A3125226B
:101AD0008B3125004608943157248B312200C100F8
:101AE00041082500C7004708031D772D782D9E2D3E
:101AF000C8019D302100B000A730B100C830B2004D
:101B00000230B300C730B4000230B5009331422335
:101B10008B31C6302100B8000230B900C830BA009D
:101B20000230BB00C730BC000230BD00C530BE0073
:101B30000230BF00923136228B31A62DBE302100FB
:101B4000AD00A630AE009A3125228B312500480821
:101B50000319AC2D8D31AE2D8E31192EA5302000FC
:101B6000B800A730B900B330BA00A530BB002430AC
:101B7000BC00A030BD002430BE00A030BF009A31B0
:101B8000B3228D310130993111218D31063022007F
:101B9000C2001330C100AD30890BCC2DC10BCC2D50
:101BA000C20BCC2D00320030993111218D3125002E
:101BB00042080319DC2DDD2D192E460894315724D7
:101BC0008D312200C10041082500C7004708031DD0
:101BD000EA2DEB2D112EC801A5302100B000A73051
:101BE000B100C830B2000230B300C730B4000230D8
:101BF000B500933142238D31C6302100B800023048
:101C0000B900C830BA000230BB00C730BC00023097
:101C1000BD00C530BE000230BF00923136228D318A
:101C2000192ECA302100AD00A630AE009A3125220F
:101C30008D312500480803191E2E1F2E8A2EAD3027
:101C40002000B800A730B900A430BA00A530BB000E
:101C50002430BC00A030BD002430BE00A030BF0046
:101C60009A31B3228D310130993111218D310630F5
:101C70002200C2001330C100AD30890B3D2EC10BD4
:101C80003D2EC20B3D2E00320030993111218D3195
:101C90002500420803194D2E4E2E8A2E46089431F7
:101CA00057248D312200C10041082500C700470894
:101CB000031D5B2E5C2E822EC801AD302100B000CA
:101CC000A730B100C830B2000230B300C730B40052
:101CD0000230B500933142238D31C6302100B80067
:101CE0000230B900C830BA000230BB00C730BC00B7
:101CF0000230BD00C530BE000230BF009231362236
:101D00008D318A2ED6302100AD00A630AE009A313A
:101D100025228D312500480803198F2E902EFE2E86
:101D2000B5302000B800A730B9002930BA00A7307C
:101D3000BB002430BC00A030BD002430BE00A03069
:101D4000BF009A31B3228D310130993111218D318B
:101D50000B302200C2002630C1005D30890BAE2E50
:101D6000C10BAE2EC20BAE2E0032003099311121C4
:101D70008D310B302200C2002630C1005D30890B4E
:101D8000BF2EC10BBF2EC20BBF2E003201309C31C3
:101D900014248D31003A0319CE2ECF2ED82EE230E6
:101DA0002100AD00A630AE009A3125228D31FE2EE5
:101DB0002500C801B5302100B000A730B100C830FF
:101DC000B2000230B300C730B4000230B500933126
:101DD00042238D31C6302100B8000230B900C8302E
:101DE000BA000230BB00C730BC000230BD00C530B5
:101DF000BE000230BF00923136228D3125004808E6
:101E00000319032F042F7B2FBD302000B800A7300B
:101E1000B9009730BA00A230BB002430BC00A0301B
:101E2000BD002430BE00A030BF009A31B3228D31F6
:101E30000130993111218D310B302200C200263042
:101E4000C1005D30890B222FC10B222FC20B222F24
:101E500000320030993111218D310B302200C20047
:101E60002630C1005D30890B332FC10B332FC20BDD
:101E7000332F003200309C3114248D31003A031985
:101E8000422F432F552F01309C3137248D31003A9A
:101E900003194B2F4C2F552FEE302100AD00A630EB
:101EA000AE009A3125228D317B2F2500C801BD302F
:101EB0002100B000A730B100C830B2000230B3003A
:101EC000C730B4000230B500933142238D31C630A3
:101ED0002100B8000230B900C830BA000230BB009F
:101EE000C730BC000230BD00C530BE000230BF00AC
:101EF000923136228D31250048080319802F812F19
:101F0000F82FC5302000B800A730B900AB30BA00B8
:101F1000A230BB002430BC00A030BD002430BE0085
:101F2000A030BF009A31B3228D3101309931112197
:101F30008D3115302200C2004B30C100BE30890BFC
:101F40009F2FC10B9F2FC20B9F2F00000030993194
:101F500011218D3115302200C2004B30C100BE303E
:101F6000890BB02FC10BB02FC20BB02F0000003077
:101F70009C3137248D31003A0319BF2FC02FD22F47
:101F800001309C315A248D31003A0319C82FC92FD2
:101F9000D22FFA302100AD00A630AE009A312522B2
:101FA0008D31F82F2500C801C5302100B000A730C1
:101FB000B100C830B2000230B300C730B400023004
:101FC000B500933142238D31C6302100B800023074
:101FD000B900C830BA000230BB00C730BC000230C4
:101FE000BD00C530BE000230BF00923136228D31B7
:101FF000250048080319FE2F8031912881314D2991
:102000002000A300230A8600023087004230010628
:10201000031D0B280C2819282308023E86000230D5
:10202000870058300106031D16281728192801308B
:102030001A2800300800AF31BC279031FA00230085
:102040003708860087017A0881000130FA007A0893
:10205000B7070130B8020030B93B3808390403191A
:10206000322833283828AF31D12790310530602805
:10207000BC154228A731DC2790316028A731D7272B
:10208000903160282C08FA007A08F90021088A00AB
:1020900020080A009031FB00FC017C08003A03197B
:1020A00052283E287B08013A03193E28033A0319B7
:1020B0003A28013A03193A28073A03193E283E28DC
:1020C000080021009112BF302000A3001F30A4009F
:1020D00098318620903121001112F2302000A300A7
:1020E0001B30A40098318F209031083023009F00CE
:1020F00090309D0024309E0040309B0003309C00B7
:10210000B1302000A3002F30A4009831742090310A
:10211000C9302000A3002F30A40098317D209031D9
:10212000C5302000A3002F30A40098316B209031DF
:102130002100EB01FD01ED0108302000A50025087C
:102140002100EC002000EC01EB01EA0121009116D6
:1021500008002000A801A9012000AA01AB019D31BF
:102160006A2590310B302000A7002630A6005D3094
:10217000890BB828A60BB828A70BB8280032013065
:102180002000AA070030AB3D2B08803AA600803023
:102190002602031DCD2804302A02031CD028D12892
:1021A000AF280B302000A7002630A6005D30890B39
:1021B000D728A60BD728A70BD7280032013020003C
:1021C000A8070030A93D2908803AA60080302602E1
:1021D000031DEC2804302802031CEF28F028AC284B
:1021E0000800210034088600350887000108031D17
:1021F000FA28FB280229DC30AD00A130AE009A316C
:1022000025229031210030088600310887008101A5
:1022100032088600330887008101340886003508BB
:102220008700810136088600370887000130810069
:1022300000309831EA20903100309831F720903109
:10224000003099310421903100309831DD209031F7
:102250000030993111219031003099311E21903197
:10226000003099312B219031003099313821903153
:1022700022008C138D12080098319820913106307D
:102280009A318222913102302000B7000430B6002A
:10229000BA30890B4929B60B4929B70B49290000E7
:1022A0002000A901A90A01309E314D26913120005C
:1022B0002F08AA002E08A9009B31912391312000FC
:1022C000A901A90A02309E314D2691312000310822
:1022D000AA003008A9009B31912391312000A90167
:1022E000A90A03309E314D26913120003308AA00FF
:1022F0003208A9009B31912391312000A901A90A3C
:1023000004309E314D26913120003508AA00340852
:10231000A9009B319123913108002000280803195E
:102320009229932998292808031D972998299D29DE
:10233000260898314B209131DE292808033E86007B
:102340008701160001040319A629A729C429280812
:10235000033E86008701403FA900413FAA00280AAA
:1023600086008701403FAB00413FAC002C08803A1B
:10237000AD002A08803A2D02031DC02929082B022E
:102380000318C329C429DE2920002608A90028082B
:1023900086008701280A8400850100080107AA0039
:1023A0002A0886000230870029088100280A860052
:1023B00087010130810741310318810A0800A731E4
:1023C000E1279131003A0319E629E729182AF4296F
:1023D000AF31E7279131352AAF31EC279131352ADA
:1023E000AF31F6279131352A23002F08FA007A08F9
:1023F000F9000630A03E860001308700413F8A0088
:10240000403F0A009231FB00FC017C08003A0319AE
:102410000A2AF0297B08013A0319F029033A031923
:10242000E829013A0319EC29073A0319F029F029A0
:1024300023003C101730A03E860001308700403F4B
:1024400084008501810A0008AF31DD279131013018
:102450002300B8020030B93B38083904031D312A83
:10246000322A342A0630352A033008002100380881
:102470008600390887000108C000C1014008B0008B
:102480004108B1003A0886003B0887000108C200F5
:10249000C3014208B2004308B300883105209231DD
:1024A00021003A0886003B0887000108C000C101EE
:1024B0004008B0004108B1003C0886003D08870094
:1024C0000108C200C3014208B2004308B300380843
:1024D0008600390887000108C400C5014408B4001B
:1024E0004508B5003E0886003F0887000108C60081
:1024F000C7014608B6004708B7009031F120923175
:1025000029302100C1009630C0007F30890B862A17
:10251000C00B862AC10B862A080000302000A700C5
:102520000030A6000030A5000030A400B02A013021
:10253000A4070030A53D0030A63D0030A73DA71BF5
:10254000AD2A2708031DAE2A013024020930253B9D
:102550003D30263B031CAD2AAE2AB02A0030E52AC6
:1025600020008D19B42AB52A972A0030A700003020
:10257000A6000030A5000030A400D62A0130A40730
:102580000030A53D0030A63D0030A73DA71BD42A52
:102590002708031DD52A013024020930253B3D3090
:1025A000263B031CD42AD52AD62AAE2A20008D1D0C
:1025B000DA2ADB2ABE2AD0302000A300C930890BDA
:1025C000DF2AA30BDF2A0032013008002000BE0002
:1025D0002100631CEC2AED2AF62A20003E08B900EF
:1025E0003908AE0036089D31172592312000B81BFE
:1025F000FA2AFB2A002B3808BD003708BC00022B42
:10260000BC01BD01BA01BB01162B20302000A60081
:102610000030A7003E08B9003908A80091318D218B
:10262000923101302000BA070030BB3D3B08803AB0
:10263000B9003D08803A3902031D202B3C083A02BC
:10264000031C232B242B052B21006318282B292B5B
:10265000322B20003E08B9003908AE0036089D3103
:102660001725923120003608A3000230A4009A31C9
:10267000CC22923120003C082307B6003D08243DBF
:10268000B70008003430860002308700C130840073
:102690000030850014302100B60016001A00B60B79
:1026A0004D2BE530860001308700B73084000030C4
:1026B00085000A30B60016001A00B60B5B2B0130FD
:1026C0009831F72093310130993104219331003052
:1026D0009831EA20933100309831DD209331210088
:1026E00031082000AF00210030082000AE00BE30CD
:1026F000B000A330B1005A30B200A230B300243091
:10270000B400A030B50091313C219331C13020009C
:10271000B3000030B400210031082000B6002100D1
:1027200030082000B5009A313B2293312000340854
:102730002100D600200033082100D50056082000D3
:10274000B400210055082000B300B730B5000030B8
:10275000B6009A313B229331200034082100AE00AC
:10276000200033082100AD009A31252293319031A9
:10277000A920933120000F1DBE2BBF2BBA2B2100A7
:102780003208860033088700810134088600350846
:102790008700810108002000AB002B08A900290850
:1027A0002100E90000309931FB2193319C30200059
:1027B000A900D730890BDA2BA90BDA2B03309A3119
:1027C000822293311A302000A900F830890BE62BC1
:1027D000A90BE62B000003309A31822293311A3084
:1027E0002000A900F830890BF32BA90BF32B000074
:1027F00003309A31822293311A302000A900F83038
:10280000890B002CA90B002C000002309A31822287
:1028100093311A302000A900F830890B0D2CA90B38
:102820000D2C000028309A31822293310230200092
:10283000AA000430A900BA30890B1C2CA90B1C2C4F
:10284000AA0B1C2C00000C309A31822293310230EA
:102850002000AA000430A900BA30890B2D2CA90B46
:102860002D2CAA0B2D2C000001309A31822293319D
:1028700002302000AA000430A900BA30890B3E2C97
:10288000A90B3E2CAA0B3E2C000006309A31822266
:10289000933102302000AA000430A900BA30890B1D
:1028A0004F2CA90B4F2CAA0B4F2C00000800200026
:1028B000A800A901AA01280803195F2C602CC32CC9
:1028C000BD2C6A080319652C662CBD2C9E317C2614
:1028D00094312000A5002508A700A72C0100023094
:1028E0002000A6000430A500BA30890B752CA50B7A
:1028F000752CA60B752C00002000A901A90AAA01BD
:10290000AA0ABD2C02302000A6000430A500BA306F
:10291000890B882CA50B882CA60B882C0000200086
:10292000A9017F2C02302000A6000430A500BA3097
:10293000890B982CA50B982CA60B982C0000200036
:10294000A901A90AAA01AA0A22008C13BD2C2708F2
:10295000A500A6012608003A0319AF2CBD2C2508B6
:10296000303A03196E2C023A03196F2C013A0319FD
:10297000822C0A3A0319922CBD2C20002A08031934
:10298000C22CC32C612C2808031DC72CC82CEA2C90
:10299000E42C01309B3101239431003A0319D12CEE
:1029A000D22CD62C2000A901AA01AA0A01309B3101
:1029B0001C239431003A0319DE2CDF2CE42C200078
:1029C000A901A90AAA01AA0A20002A080319E92CC8
:1029D000EA2CC92C290808002000B5012B308600FC
:1029E00000308700473FB300B31FF72CF82C1A2D97
:1029F0002000AB09AC09AD09AE09AF09B009B109B6
:102A0000B209AB0A031D172DAC0A031D172DAD0A21
:102A1000031D172DAE0A031D172DAF0A031D172D19
:102A2000B00A031D172DB10A031D172DB20A20008D
:102A3000B501B50A2330860000308700473F2000EB
:102A4000B300B31F242D252D442D2000A309A40974
:102A5000A509A609A709A809A909AA09A30A031D86
:102A6000442DA40A031D442DA50A031D442DA60AC6
:102A7000031D442DA70A031D442DA80A031D442D40
:102A8000A90A031D442DAA0A2000230824042504B2
:102A900026042704280429042A040319502D512D43
:102AA000A42DB401B40A602DA335A40DA50DA60D67
:102AB000A70DA80DA90DAA0D0130B3003308B40766
:102AC000AA1F632D642D542D2A083202031D822D66
:102AD00029083102031D822D28083002031D822D92
:102AE00027082F02031D822D26082E02031D822D8A
:102AF00025082D02031D822D24082C02031D822D82
:102B000023082B02031C852D862D962D2308AB024E
:102B10002408AC3B2508AD3B2608AE3B2708AF3B5D
:102B20002808B03B2908B13B2A08B23BAA36A90CB9
:102B3000A80CA70CA60CA50CA40CA30C0130B40285
:102B4000031DA32DA42D642D35080319A82DA92D2F
:102B5000C72DAB09AC09AD09AE09AF09B009B10980
:102B6000B209AB0A031DC72DAC0A031DC72DAD0A60
:102B7000031DC72DAE0A031DC72DAF0A031DC72DA8
:102B8000B00A031DC72DB10A031DC72DB20A2000CC
:102B90002B08A3002C08A4002D08A5002E08A600D1
:102BA0002F08A7003008A8003108A9003208AA00A1
:102BB00008002000B5012330860000308700473F21
:102BC000B300B31FE42DE52D072E2000A309A409AF
:102BD000A509A609A709A809A909AA09A30A031D05
:102BE000042EA40A031D042EA50A031D042EA60A02
:102BF000031D042EA70A031D042EA80A031D042E7C
:102C0000A90A031D042EAA0A2000B501B50A2B301B
:102C1000860000308700473F2000B300B31F112E0D
:102C2000122E362E2000AB09AC09AD09AE09AF0952
:102C3000B009B109B209AB0A031D312EAC0A031D5C
:102C4000312EAD0A031D312EAE0A031D312EAF0AFF
:102C5000031D312EB00A031D312EB10A031D312E82
:102C6000B20A01302000B3003308B50636308600C2
:102C70000030870008302000B30000301E00B30B86
:102C80003E2E2308240425042604270428042904AE
:102C90002A0403194C2E4D2EA92EB401B40A5C2E21
:102CA000A335A40DA50DA60DA70DA80DA90DAA0D60
:102CB0000130B3003308B407AA1F5F2E602E502ED8
:102CC000B635B70DB80DB90DBA0DBB0DBC0DBD0DA8
:102CD0002A083202031D862E29083102031D862E82
:102CE00028083002031D862E27082F02031D862E7A
:102CF00026082E02031D862E25082D02031D862E72
:102D000024082C02031D862E23082B02031C892E67
:102D10008A2E9B2E2308AB022408AC3B2508AD3B32
:102D20002608AE3B2708AF3B2808B03B2908B13B3B
:102D30002A08B23B3614AA36A90CA80CA70CA60C7C
:102D4000A50CA40CA30C0130B402031DA82EA92EBF
:102D5000602E35080319AD2EAE2ECC2EB609B7095C
:102D6000B809B909BA09BB09BC09BD09B60A031DEE
:102D7000CC2EB70A031DCC2EB80A031DCC2EB90ADF
:102D8000031DCC2EBA0A031DCC2EBB0A031DCC2E6C
:102D9000BC0A031DCC2EBD0A20003608A30037084C
:102DA000A4003808A5003908A6003A08A7003B0887
:102DB000A8003C08A9003D08AA0008002100A900BD
:102DC00020005D0886008701403FDF00413FE000B2
:102DD0005F088400600885001200253A031DF12E6B
:102DE000F22EDA2F5D08860087010130810741311C
:102DF0000318810A2300D501D6012100E301E40173
:102E0000FF30E100FF30E20020005D08860087010E
:102E1000403FDF00413FE0005F088400600885001C
:102E20001200643A0319152F162F272F5D0886000C
:102E30008701403FDF00413FE0005F0884006008F9
:102E400085001200693A031D262F272F752F5D0874
:102E5000860087010130810741310318810A5E082D
:102E60008600870101088400850102308107003F48
:102E7000DF00013FE0005F082100A00020006008A3
:102E80002100A100890D893B8909A200A300A400AB
:102E9000A500A600A70020082000BF0021002108EF
:102EA0002000C000210022082000C10021002308CA
:102EB0002000C200210024082000C30021002508B2
:102EC0002000C400210026082000C500210027089A
:102ED0002000C6002100290886318A26963120006C
:102EE0004008DE003F08DD00FF2F5D0886008701F7
:102EF000403FDF00413FE0005F088400600885003C
:102F000012006E3A031D852F862FA52F5D088600BF
:102F100087010130810741310318810A5E0886006C
:102F20008701403F84008501810A0008DF005F08B7
:102F30002100A8002808860087015F08C03F6008BC
:102F4000C13F2000DD01DE01FF2F5D088600870103
:102F5000403FDF00413FE0005F08840060088500DB
:102F60001200253A031DB52FB62FD12F5D0886001C
:102F700087010130810741310318810A2530A600FD
:102F80000030A700210029082000DF005F08A8000A
:102F900091318D21963101302000DD000030DE00BE
:102FA000FF2F5D088600870101308107413103183A
:102FB000810AA12F5D0886008701403FDF00413F65
:102FC000E0005F088400600885000008E100E2017D
:102FD0006108A6006208A700210029082000E3007C
:102FE0006308A80091318D21963120005D0886008C
:102FF00087010130810741310318810ACB2F080076
:10300000E2342F346234183452341834DF3411343B
:103010001B341034F93427341E341E34E7342F3473
:10302000EC342F34F1342F34F6342F34FB342F3476
:10303000D7342734DC3427340034083496341D3434
:103040002D343E34203454344534533454342034F5
:1030500043344F344E3446344F3452344D34453477
:1030600020342D34203441345434543445344E34D7
:103070005434453420344134433451345534493484
:103080005434543445344D3445344E3454340D3472
:103090000A34003408342000A50025089D31C325DA
:1030A0009831080023003C143635AF31DD279831C4
:1030B00003300800F03021009E009B019C0101308C
:1030C0009D00080023003C140314360DAF31DD27AA
:1030D000983105300800200024082300D800200083
:1030E00023082300D7000800200024082200C8007D
:1030F000200023082200C700080020002408220026
:10310000C600200023082200C50008002000240873
:103110002200CA00200023082200C9000800200065
:1031200024082100E600200023082100E500080013
:1031300001309A31822298313530890B9D28000068
:103140000800283024009500960194012730920051
:1031500021008E150E16080070302100990098018C
:103160002200960121001A1FB628B728B2280800AD
:1031700024001419BC28BD28B82816081F39031DBF
:10318000C228C328B828080022008D126830200009
:10319000A300E430890BCA28A30BCA28000008004A
:1031A0007608F1007508F0007708F8007808F2005A
:1031B00000309D314025983108002000A3002308ED
:1031C0000319E328E428E72822000C14E928220048
:1031D0000C1008002000A30023080319F028F12890
:1031E000F42822001014F6282200101008002000F5
:1031F000A30023080319FD28FE28012922009014AA
:1032000003292200901008002000A30023080319BE
:103210000A290B290E29220010151029220010114D
:1032200008002000A30023080319172918291B29C7
:1032300022008C141D2922008C1008002000A300FD
:103240002308031924292529282922000C152A29B5
:1032500022000C1108002000A300230803193129C3
:103260003229352922000C16372922000C120800B9
:103270002000A300230803193E293F2942292200E8
:103280008C16442922008C1208002000A300230879
:1032900003194B294C294F2922008C155129220052
:1032A0008C11080022008D1268302000A300E43049
:1032B000890B5829A30B5829000022008D160800FD
:1032C000F3002300BC1D652966296F297308F200ED
:1032D0007208B7007108B9007008B800BC11080086
:1032E0009B31532399319831AC209931AF31D92793
:1032F000993198315A2099319031612099310800E3
:103300002000A3009831B820993120002308240020
:1033100091002000911D8D298E2989299111080085
:103320000230F0000030F1007908993160219931C4
:103330000030F500F600F7019831D02099310430C3
:1033400008000130F0000030F10079089931602167
:1033500099310030F500F600F7019831D02099310D
:10336000023008000230F0000030F1007908993195
:10337000602199310030F500F600F7019831D02036
:103380009931023008000130F0000030F100790876
:103390009931602199310030F500F600F70198313C
:1033A000D02099310430080020008D19D829D9295E
:1033B000D4298D1DDC29DD29D929D0302000A30096
:1033C000C930890BE129A30BE129003208000D3433
:1033D0000A34003400340034003400340034003443
:1033E00000340D340A340034003400340034003426
:1033F0000034003400342000A400A731E7279931BD
:103400002100690899318021993120002408210088
:103410006E04993180219931A731ED279931080047
:10342000AF31B2279A313D302000AB00E130AA0025
:103430003F30890B192AAA0B192AAB0B192A003223
:103440009C31A2249A3101000800AF302000E9002D
:1034500069082100AF002E082000E50021002D089A
:103460002000E400AF30E9006908E60000309E313A
:10347000DB269A31080020003408A4003308A3009A
:103480009A31CC229A31200023083307A700240860
:10349000343DA8003608AA003508A9009C31C8248C
:1034A0009A310800790886008701403FF000413FCB
:1034B000F1007908023E86008701010899316021F8
:1034C0009A310030F500F600F7019831D0209A319A
:1034D000023008002000A60021006A082000A50094
:1034E0002508A604260804389931FB219A312000CA
:1034F0002608FB399931FB219A314230890B7E2A0B
:10350000003208002000A8002100EA01200028085D
:10351000F0399A316A229A3120002808A700033036
:10352000A735FF3E031D902A2735F0399A316A22CC
:103530009A3108002000A8002100EA01EA0A2000D0
:103540002808F0399A316A229A3120002808A70009
:103550000330A735FF3E031DA92A2735F0399A31DC
:103560006A229A3108004E309331CB239A312000E1
:103570003908AF003808AE003B08B1003A08B00087
:103580003D08B3003C08B2003F08B5003E08B40057
:1035900091313C219A31080020002408A60023081C
:1035A000A500D62A0130A3070030A43D23088600D9
:1035B000240887000108031DDE2ADF2AD22A2508F5
:1035C0002302A3002608243BA400080023001908B6
:1035D000F00020006C08C53E8600013087007008AE
:1035E00081000130F0007008EC0708306C02031C09
:1035F000FA2AFB2AFC2AEC010130F0007008EA07E5
:1036000008002000A400A30124080319082B092B9B
:103610000F2B8F1B0C2B0D2B0F2BA301A30A2408A0
:10362000031D132B142B1A2B8F1F172B182B1A2B40
:10363000A301A30A230808002000A400A301240872
:103640000319232B242B2A2B0F19272B282B2A2B4A
:10365000A301A30A2408031D2E2B2F2B352B0F1D8E
:10366000322B332B352BA301A30A2308080020009B
:103670003708803AB80080303802031D412B0130F2
:1036800036020318442B452B522B20003609B80074
:103690003709B900B80A0319B90A3808B600390859
:1036A000B700522B0800220090018F018C018D0180
:1036B0008E010830210090008C01CF308D00BF308A
:1036C0008E00FF308F0023008F0137308D00900176
:1036D0003C308C00240090018D01210095172200C0
:1036E0009D01080022000C1706302000A4001330B2
:1036F000A300AD30890B7A2BA30B7A2BA40B7A2B6A
:10370000003222000C1306302000A4001330A30066
:10371000AD30890B892BA30B892BA40B892B00328D
:1037200008002000AC01AD01A42B29082C0784005F
:103730002A082D3D850000089A319A229B310130DC
:103740002000AC070030AD3D29082C0784002A0872
:103750002D3D85001200031DAE2BAF2B952B0800CD
:103760002000A6002608A500A50DA50D21001D0816
:10377000200025068339250621009D001D140D30EB
:10378000890BC02B000021009D149D18C82BC92B4C
:10379000C52B1C082000A40021001B082000A3004A
:1037A000080020302100AD009830AE009A3125226B
:1037B0009B312100B101B2019C31A2249B31013027
:1037C0002100B1070030B23D3208803AB0008030AD
:1037D0003002031DED2B02303102031CF02BF12BC4
:1037E000DC2B0800083021006C020318F82BF92BA1
:1037F000122C6D08CD3E86000130870001082300A1
:103800009A000130F00070082100ED0708306D02C9
:10381000031C0B2C0C2C0D2CED010130F00070085A
:10382000EC07132C111208002000A400A3012408A7
:1038300003191B2C1C2C262C0F1C1F2C202C262C77
:103840008F18232C242C262CA301A30A2408031D43
:103850002A2C2B2C352C0F182E2C2F2C352C8F1C72
:10386000322C332C352CA301A30A23080800200096
:10387000A400A301240803193E2C3F2C492C8F1DC2
:10388000422C432C492C0F1A462C472C492CA301BF
:10389000A30A2408031D4D2C4E2C582C8F19512C93
:1038A000522C582C0F1E552C562C582CA301A30A11
:1038B000230808002000A400A30124080319612C98
:1038C000622C6C2C8F1E652C662C6C2C0F1B692CAB
:1038D0006A2C6C2CA301A30A2408031D702C712CE4
:1038E0007B2C8F1A742C752C7B2C0F1F782C792C29
:1038F0007B2CA301A30A230808002000A8002303AF
:103900002404031D842C852C902C0130A700250A4B
:103910008A2CA735890B892C27082804A800A12CFC
:1039200023082404031D952C962CA12C0130A700FC
:10393000250A9B2CA735890B9A2C2708FF3A2805C6
:10394000A80008002000A801A9019D316A259C312A
:103950000B302000A7002630A6005D30890BAE2C6E
:10396000A60BAE2CA70BAE2C003201302000A8070E
:103970000030A93D2908803AA60080302602031DA8
:10398000C32C02302802031CC62CC72CA52C08000F
:1039900020002A08B0002908AF002808B200270834
:1039A000B1003208AC003108AB00B10A0319B20A09
:1039B0002B0886002C0887003008AE002F08AD00C9
:1039C000AF0A0319B00A2D0884002E0885000008EC
:1039D000C03F8908031DED2CEE2CD12C08002D349E
:1039E0003E34203445345234523445345534523404
:1039F0003A342034003400340034003400340034CD
:103A00000034003400342D343E34203445345234F4
:103A100052344534553452343A342034003400346E
:103A2000003400340034003400340034003420000A
:103A3000B500B301B4012F2D3208AF00B0012F083B
:103A4000A6003008A7002E08B1003108A800913167
:103A50008D219D3101302000B3070030B43D330883
:103A60003507AF002F088600023087000108B0003C
:103A70003008B2003208031D3E2D3F2D1C2D0800DA
:103A8000F400700871040319462D472D5A2D743522
:103A9000A03E8600013087007008C03F7108C13F1A
:103AA0007208F3007408AC3E86000130870073088A
:103AB0008100692D7435A03E860001308700D53025
:103AC000C03F2730C13F7408AC3E860001308700FC
:103AD000810108002000A401A50122000D16063076
:103AE0002000A3003030890B732DA30B732D000031
:103AF00022000D1206302000A3003030890B7E2DED
:103B0000A30B7E2D000001302000A4070030A53D4E
:103B10002508803AA30080302302031D912D323006
:103B20002402031C942D952D6D2D080023003C10BC
:103B30000230FA007A08BB00A52DAF31F1279D3184
:103B4000C22DAF31F6279D31C22D2E08FA007A081A
:103B5000F9000430A03E860001308700413F8A0012
:103B6000403F0A009D31FB00FC017C08003A03192C
:103B7000BA2DA12D7B08023A03199D2D013A031994
:103B80009D2DA12D08002000A40021006C08031920
:103B9000CA2DCB2DC52D111ACE2DCF2DD42D200001
:103BA000240823009A00ED2D111220002408A30000
:103BB0007D08CD3E8600013087002308810001305A
:103BC000A3002308FD0708307D02031CE82DE92D22
:103BD000EA2DFD0101302100EC0221001116080040
:103BE000AF31C2279D3123003C1CF72DF82D062E46
:103BF000A731E1279D31003A0319FF2D002E062E33
:103C00000F302000A00020082300BA0023003A084B
:103C10002000A000A101A035A10D003020078400E4
:103C20009830213D8500013F8A00003F0A009E3107
:103C30002000A20022082300BA0008002300BC15BF
:103C40002E2EAF31F1279E314C2EAF31BF279E3142
:103C500003304C2EAF31F6279E314C2E2C08FA0043
:103C60007A08F90021088A0020080A009E31FB002A
:103C7000FC017C08003A03193E2E2A2E7B08013AEB
:103C800003192A2E033A0319212E013A0319212E72
:103C9000073A0319252E2A2E08002000AC00682EB2
:103CA0002908BF3E9A3182229E317B2E2908933EFD
:103CB0009A3182229E317B2E2908D33E9A3182226C
:103CC0009E317B2E29087F3E9A3182229E317B2EA7
:103CD0002C08AA00AB012B08003A0319702E622EA3
:103CE0002A08023A0319502E013A0319562E073AB0
:103CF00003195C2E622E080020006A080319812E29
:103D0000822E7C2E6B08BD3E8600013087000108A4
:103D1000A30023082100EB0020006B08C53E8600AD
:103D2000013087000108A3002308A4000130A3008C
:103D30002308EB0708306B02031C9F2EA02EA12E38
:103D4000EB012100911201302000EA0221009116BE
:103D50002000240808002000A601A701CA2E220086
:103D60008D1668302000A500E430890BB52EA50B18
:103D7000B52E000022008D1268302000A500E4302E
:103D8000890BC02EA50BC02E000001302000A60715
:103D90000030A73D2708803AA5002408803A250274
:103DA000031DD42E23082602031CD72ED82EAF2E97
:103DB00022008D1208002100AA00200065082100C1
:103DC000AC00200064082100AB00DF01E001FE2E02
:103DD000AB302000E7006708DD006608E8006808EF
:103DE000DE0021002A089631DE269E3120005D0883
:103DF0002100DF0720005E082100E03D2B08840041
:103E00002C0885001200031D062F072FE82E6008DE
:103E10002000E50021005F082000E40008002000E9
:103E2000AE010730AF000030B000993152219F3110
:103E300034302000A900F130890B1C2FA90B1C2F56
:103E4000003220000D0CA900A90C290C0139AA0090
:103E5000AB012A08AC002B08AD002D08A4002C08EB
:103E6000A3003008A6002F08A5002E089C317D2451
:103E70009F312000A9002908AE00FF30AF07FF30B6
:103E8000B03DB01F442F452F152F2E0808002100EC
:103E9000B400AF302000E90069082100B300340805
:103EA0002000E90069082100B500B601B701B8019A
:103EB000B9012E082000E50021002D082000E400B3
:103EC000B330E9006908E600B5309E31DB269F314A
:103ED000200065082100B200200064082100B10024
:103EE000360834072000E9006908860002308700A0
:103EF000810121003208AE003108AD000800200029
:103F0000B500B301B4019F310F279F312000B100EC
:103F100033083507B20032088600023087003108C6
:103F200081000130B3070030B43D3408803AB1005D
:103F300080303102031D9E2F14303302031CA12F49
:103F4000A22F832F200035088600023087002330FF
:103F50000106031DAC2FAD2FB52F2030B100350861
:103F6000860002308700310881003508133E860044
:103F70000230870081019831C4209F310800200061
:103F80006C08BD3E860001308700810123001D1DA5
:103F9000CA2FCB2FD82F20006C08BD3E86000130E1
:103FA00087008114220048088A0047080A009F31D0
:103FB00023009D1CDC2FDD2FEA2F20006C08BD3E66
:103FC0008600013087000115220046088A00450856
:103FD0000A009F3120006C08BD3E8600013087003A
:103FE00001080319F42FF52FFC2F230058088A002D
:103FF00057080A009F31FF2F9A31E6229F310800AF
:104000002D343E342034503452344F3447345234FB
:1040100041344D344D344134543449344F344E34AA
:1040200020344D344F34443455344C3445342034EA
:10403000313420345434453452344D3449344E34C0
:10404000453445340D340A3400342D343E342034A4
:10405000503452344F344734523441344D344D345B
:104060004134543449344F344E3420344D344F3479
:10407000443455344C3445342034323420345434B0
:10408000453452344D3449344E34453445340D347E
:104090000A34003441347434743465346E34743406
:1040A00065342034763461346C346934643461347A
:1040B000743469346F346E3420346C346534643451
:1040C000203472346F347534673465340D340A34F7
:1040D00000342D343E342034503452344F3447347D
:1040E000523441344D344D344134543449344F34D6
:1040F0004E3420345434453452344D3449344E34E3
:10410000453445340D340A3400342D343E342034E3
:10411000503452344F344734523441344D344D349A
:104120004134543449344F344E34203445344E34C1
:10413000203443344F345534523453340D340A341C
:1041400000342D343E342034453452345234453416
:10415000553452342034503452344F34473452346E
:1041600041344D344D344134543449344F344E3459
:104170000D340A3400342D343E3420345434453464
:104180005334543420344D3441344E345534453452
:104190004C34203445344E34203443344F34553479
:1041A000523453340D340A340034413454345434CA
:1041B00045344E34543445342034563441344C3430
:1041C000493444344134543449344F344E34203427
:1041D0004C344534443453340D340A3400342D34D3
:1041E0003E34203453344C34413456344534203436
:1041F00052344534533450344F344E3453344534B0
:1042000020344E3455344C344C340D340A3400349C
:104210002D343E342034453446344634413443341E
:1042200045344D3445344E345434203445344E34C2
:10423000203443344F345534523453340D340A341B
:1042400000342D343E34203453344C34413456340D
:104250004534203445344E344434203450345234C0
:104260004F34473420344B34383420344F344634C0
:10427000463400342D343E342034453446344634FC
:104280004134433445344D3445344E345434203471
:104290005434453452344D3449344E3445340D345D
:1042A0000A3400342D343E34203453344C344134F9
:1042B000563445345F345434453453345434203404
:1042C00047344534543420344134433451340D346C
:1042D0000A3400342D343E34203453344C344134C9
:1042E000563445345F3454344534533454342034D4
:1042F00047344534543420344F344B340D340A346D
:1043000000342D343E34203453344C34413456344C
:1043100045345F34543445345334543420344734B2
:104320004534543420344B344F340D340A34003483
:104330002D343E34203453344C34413456344534D7
:1043400020345434453453345434203443344F34BB
:104350004E3446344F3452344D34453400342D34C9
:104360003E34203453344C344134563445342034B4
:104370005434453453345434203441344334513468
:104380005534493454345434453400342D343E3497
:10439000203453344C344134563445345F34503433
:1043A00052344F344734203453345434413452342B
:1043B00054340D340A3400342D343E342034463421
:1043C00049344E3420345434453453345434203436
:1043D0004D3441344E34553445344C340D340A3464
:1043E00000342D343E34203453344C34413456346C
:1043F0004534203445344E3420344134543454341C
:1044000045344E34543445343A3400342D343E343B
:10441000203453344C344134563445345F345434AE
:1044200045345334543420344734453454342034E0
:104430004F344B34003445345234523445345534BF
:1044400052342034503452344F344734523441348F
:104450004D344D344134543449344F344E340034A7
:104460005034523445345334533445345234203468
:104470004F344B3420344F34553420344534523487
:104480005234453455345234003441344334513479
:104490005534493453344934543449344F344E3408
:1044A000203445344E34203443344F345534523460
:1044B0005334003441345434543445344E34543439
:1044C0004534203441344334513455344934543420
:1044D000543445344D3445344E34543400342D3442
:1044E0003E3420344134703470347534793465345A
:1044F0007234203473347534723420344F344B3476
:104500000D340A3400342D343E34203453344C34CA
:104510004134563445342034503452344F344734C7
:1045200020344B34383420344F344E340034543437
:1045300045345334543420345234313420344F34DD
:104540004634463420342D3420345234323420342E
:104550004F344E34003454344534533454342034BE
:104560005234323420344F344634463420342D34DF
:1045700020345234333420344F344E3400342D340C
:104580003E3420345434453453345434203441348C
:1045900043345134553449345434543445340D344F
:1045A0000A3400342D343E34203453344C344134F6
:1045B000563445345F345434453453345434203401
:1045C0004F344E340D340A340034543445345334AB
:1045D0005434203443344134523454344534203438
:1045E000443439343234353445344434343400348A
:1045F0002D343E34203453344C3441345634453415
:1046000054344534533454343A34313430343A34F5
:10461000313400342D343E34203453344C3441345E
:104620005634453454344534533454343A343134A4
:1046300031343A34313400342D343E342034533460
:104640004C34413456344534543445345334543462
:104650003A34313432343A34313400342D343E3447
:10466000203453344C344134563445345434453476
:10467000533454343A34313433343A3431340034EA
:104680002D343E34203453344C3441345634453484
:1046900054344534533454343A34313434343A3461
:1046A000313400342D343E34203453344C344134CE
:1046B0005634453454344534533454343A34313414
:1046C00035343A34313400342D343E3420345334CC
:1046D0004C344134563445345434453453345434D2
:1046E0003A34313436343A34313400342D343E34B3
:1046F000203453344C3441345634453454344534E6
:10470000533454343A34313437343A343134003455
:104710002D343E34203453344C34413456344534F3
:1047200054344534533454343A34313438343A34CC
:1047300031340034563445345234493446344934E3
:1047400045345234203450343134203445345434D8
:1047500020345034323400345234453453345534D8
:104760004C34543441345434203443344F344E3474
:104770004634493452344D3445340034543445348D
:104780005334543420344E344F344E342034433474
:104790004F344E3446344F3452344D344534003463
:1047A000463449344E342034503452344F34473434
:1047B000523441344D344D344134543449344F34FF
:1047C0004E34003450344F34533449345434493423
:1047D0004F344E344E344534523420344334413413
:1047E00052345434453400345434453453345434FE
:1047F000203433342034523445344C344134493439
:10480000533420344F344634463400345234453423
:104810005034523445344E344434523445342034C8
:104820004C344534203454344534533454340034F7
:104830002D343E34203453344C34413456344534D2
:1048400054344534533454343A3431343A343134B2
:1048500000342D343E34203453344C3441345634F7
:10486000453454344534533454343A3432343A347D
:10487000313400342D343E34203453344C344134FC
:104880005634453454344534533454343A34333440
:104890003A34313400342D343E34203453344C34E3
:1048A00041345634453454344534533454343A3412
:1048B00034343A34313400342D343E3420345334DB
:1048C0004C344134563445345434453453345434E0
:1048D0003A3435343A34313400342D343E342034D3
:1048E00053344C34413456344534543445345334C1
:1048F00054343A3436343A34313400342D343E347E
:10490000203453344C3441345634453454344534D3
:10491000533454343A3437343A34313400342D3447
:104920003E34203453344C344134563445345434BA
:104930004534533454343A3438343A34313400340E
:104940002D343E34203453344C34413456344534C1
:1049500054344534533454343A3439343A34313499
:1049600000342D343E34203453344C3441345634E6
:10497000453420344534523452344534553452345D
:104980003A3400342D343E34203453344C344134E2
:10499000563445342034543445345334543420345C
:1049A0004F344B3400342D343E34203453344C34A3
:1049B000413456344534203454344534533454341B
:1049C00020344B344F34003443344C344134563467
:1049D0004934453452342034453443344C34413422
:1049E0004934523445343F3400345234453453341E
:1049F0004534543420344D344F34443455344C34DD
:104A00004534203442344C3445340034503452342C
:104A10004534533453344534523420344F344B34BA
:104A200020342F3420344E344F344B34003454343B
:104A300045345334543420343334203452344534E0
:104A40004C3441344934533420344F344E340034E0
:104A5000543445345334543420344C344534443481
:104A6000203443344C344134563449344534523480
:104A7000003443344C344134563449344534523490
:104A8000203445345434453449344E3454343F345E
:104A90000034543445345334543420344C34453485
:104AA0004434533420344334413452345434453440
:104AB0000034453452345234453455345234203461
:104AC000563441344C34493444344534453400344C
:104AD0004D344F34443455344C344534203445340B
:104AE000533443344C344134563445340034463422
:104AF00049344E342034453446344634413443340A
:104B000045344D3445344E345434003452344534F5
:104B100054344F34553452342034453454344134B1
:104B20005034453420343134003454344534533413
:104B3000543420344C3445344434203452344F34CB
:104B400055344734453400345434453453345434A4
:104B500020344C34453444342034563445345234B3
:104B600054344534003454344534533454342034AC
:104B70004C3445344434203442344C344534553478
:104B8000453400345434453453345434203442349E
:104B90004C345534453454344F344F345434483401
:104BA000003441345034503455345934453452343F
:104BB000203453345534523420344F344B34003481
:104BC00052344534533445345434203453345934F6
:104BD0005334543445344D34453400344D344F341B
:104BE000443455344C34453420344D344134493404
:104BF00054345234453400345234453454344934F6
:104C000052344534523420344334413452345434D1
:104C1000453400344C344534443453342034413426
:104C20004C344C3455344D344534453453340034CD
:104C30002D343E34203454344534533454342034E9
:104C40004F344E340D340A3400342D343E34203485
:104C500054344534533454343A34313430343A349F
:104C6000313400342D343E342034543445345334FC
:104C700054343A34313432343A34313400342D340B
:104C80003E34203454344534533454343A3431347B
:104C900033343A34313400342D343E3420345434F7
:104CA0004534533454343A34313434343A3431346E
:104CB00000342D343E342034543445345334543489
:104CC0003A34313435343A34313400342D343E34CE
:104CD000203454344534533454343A343134363433
:104CE0003A34313400342D343E3420345434453495
:104CF000533454343A34313437343A343134003460
:104D00002D343E34203454344534533454343A34FE
:104D1000313438343A343134003454344534533433
:104D20005434203448344F3452344C344F344734A4
:104D300045340034463449344E3420344434453408
:104D40002034543445345334543400342D343E34F8
:104D5000203454344534533454343A3431343A34AE
:104D6000313400342D343E342034543445345334FB
:104D700054343A3432343A34313400342D343E34FD
:104D8000203454344534533454343A3433343A347C
:104D9000313400342D343E342034543445345334CB
:104DA00054343A3434343A34313400342D343E34CB
:104DB000203454344534533454343A3435343A344A
:104DC000313400342D343E3420345434453453349B
:104DD00054343A3436343A34313400342D343E3499
:104DE000203454344534533454343A3437343A3418
:104DF000313400342D343E3420345434453453346B
:104E000054343A3438343A34313400342D343E3466
:104E1000203454344534533454343A3439343A34E5
:104E200031340034543445345334543420345334FE
:104E300046344C34413453344834003456344F34BF
:104E40004934523420344134503450344C34493491
:104E500000345434453453345434203452343134CF
:104E600020344F344E3400344534543441345034BB
:104E700045342034313430340034453454344134F2
:104E800050344534203431343234003454344534D1
:104E900053345434203442345034323400344534A2
:104EA00054344134503445342034313433340034B4
:104EB000453454344134503445342034313434345E
:104EC0000034453454344134503445342034313482
:104ED000353400344534543441345034453420346E
:104EE000313436340034453454344134503445344C
:104EF0002034313437340034453454344134503460
:104F00004534203431343834003454344534533447
:104F10005434203450343134003445345434413422
:104F2000503445342034323400345434453453340E
:104F30005434203450343234003445345434413401
:104F400050344534203433340034453454344134FF
:104F500050344534203434340034453454344134EE
:104F600050344534203435340034453454344134DD
:104F700050344534203436340034453454344134CC
:104F800050344534203437340034453454344134BB
:104F900050344534203438340034453454344134AA
:104FA0005034453420343934003401300800AF31F6
:104FB000CD27A7310A300800AF31CD27A7310930FE
:104FC00008002400160E890C890C0139080098315C
:104FD000B820A7312400161408009831B820A73152
:104FE000240016150800640080010131890BF42F9C
:104FF000003423003C10AF31B927A731043008003A
:105F620008000800240096140800240016150800F2
:105F7200240096150800240011080800200091153D
:105F820008002000911108009A31E622AF31080082
:105F920023001D121D16080024009616161608006E
:105FA20024009612161608009D31F025AF31080024
:105FB2001630210097000800F000700824009100BC
:105FC20008002300BC10BB010E300800AF31B3271C
:105FD200AF3101300800AF31B327AF3102300800D2
:105FE200AF31B327AF3101300800AF31B627AF313F
:105FF20000300800AF31D127AF3105300800253419
:0460020064340034CE
:020000040001F9
:08000000FF3FFF3FFF3FFF3F00
:04000E00E43FFF3F8D
:00000001FF
